{
  "contracts/ColourMatchCUSD.sol": {
    "ColorMatchGame": {
      "abi": [
        {
          "inputs": [
            {
              "internalType": "address",
              "name": "_paymentToken",
              "type": "address"
            }
          ],
          "stateMutability": "nonpayable",
          "type": "constructor"
        },
        {
          "inputs": [],
          "name": "AlreadyClaimed",
          "type": "error"
        },
        {
          "inputs": [],
          "name": "AlreadySubmitted",
          "type": "error"
        },
        {
          "inputs": [],
          "name": "CantCleanupCurrentDay",
          "type": "error"
        },
        {
          "inputs": [],
          "name": "ClaimWindowExpired",
          "type": "error"
        },
        {
          "inputs": [],
          "name": "ClaimWindowNotExpired",
          "type": "error"
        },
        {
          "inputs": [],
          "name": "DayNotFinalized",
          "type": "error"
        },
        {
          "inputs": [],
          "name": "DayNotFinished",
          "type": "error"
        },
        {
          "inputs": [],
          "name": "DayNotOver",
          "type": "error"
        },
        {
          "inputs": [],
          "name": "ExceedsReserve",
          "type": "error"
        },
        {
          "inputs": [],
          "name": "InsufficientPool",
          "type": "error"
        },
        {
          "inputs": [],
          "name": "InvalidRange",
          "type": "error"
        },
        {
          "inputs": [],
          "name": "InvalidScore",
          "type": "error"
        },
        {
          "inputs": [],
          "name": "InvalidSession",
          "type": "error"
        },
        {
          "inputs": [],
          "name": "InvalidTokenAddress",
          "type": "error"
        },
        {
          "inputs": [],
          "name": "MaxTenDaysPerCall",
          "type": "error"
        },
        {
          "inputs": [],
          "name": "NotEnoughPlayers",
          "type": "error"
        },
        {
          "inputs": [],
          "name": "NotInTop3",
          "type": "error"
        },
        {
          "inputs": [],
          "name": "NotYourSession",
          "type": "error"
        },
        {
          "inputs": [],
          "name": "OnlyOwner",
          "type": "error"
        },
        {
          "inputs": [],
          "name": "SessionExpired",
          "type": "error"
        },
        {
          "inputs": [],
          "name": "TransferFailed",
          "type": "error"
        },
        {
          "inputs": [],
          "name": "UseWithdrawReserve",
          "type": "error"
        },
        {
          "inputs": [],
          "name": "WrongFee",
          "type": "error"
        },
        {
          "anonymous": false,
          "inputs": [
            {
              "indexed": true,
              "internalType": "address",
              "name": "player",
              "type": "address"
            },
            {
              "indexed": false,
              "internalType": "uint8",
              "name": "rank",
              "type": "uint8"
            },
            {
              "indexed": false,
              "internalType": "uint256",
              "name": "reward",
              "type": "uint256"
            },
            {
              "indexed": false,
              "internalType": "uint256",
              "name": "day",
              "type": "uint256"
            }
          ],
          "name": "DailyRewardPaid",
          "type": "event"
        },
        {
          "anonymous": false,
          "inputs": [
            {
              "indexed": false,
              "internalType": "uint256",
              "name": "day",
              "type": "uint256"
            },
            {
              "indexed": false,
              "internalType": "uint256",
              "name": "totalCollected",
              "type": "uint256"
            },
            {
              "indexed": false,
              "internalType": "uint16",
              "name": "totalPlayers",
              "type": "uint16"
            }
          ],
          "name": "DayFinalized",
          "type": "event"
        },
        {
          "anonymous": false,
          "inputs": [
            {
              "indexed": false,
              "internalType": "uint256",
              "name": "day",
              "type": "uint256"
            },
            {
              "indexed": false,
              "internalType": "uint256",
              "name": "amount",
              "type": "uint256"
            }
          ],
          "name": "ExpiredFundsReclaimed",
          "type": "event"
        },
        {
          "anonymous": false,
          "inputs": [
            {
              "indexed": true,
              "internalType": "address",
              "name": "player",
              "type": "address"
            },
            {
              "indexed": false,
              "internalType": "uint256",
              "name": "sessionId",
              "type": "uint256"
            },
            {
              "indexed": false,
              "internalType": "uint32",
              "name": "score",
              "type": "uint32"
            }
          ],
          "name": "GameCompleted",
          "type": "event"
        },
        {
          "anonymous": false,
          "inputs": [
            {
              "indexed": true,
              "internalType": "address",
              "name": "player",
              "type": "address"
            },
            {
              "indexed": false,
              "internalType": "uint256",
              "name": "sessionId",
              "type": "uint256"
            },
            {
              "indexed": false,
              "internalType": "uint256",
              "name": "day",
              "type": "uint256"
            }
          ],
          "name": "GameStarted",
          "type": "event"
        },
        {
          "anonymous": false,
          "inputs": [
            {
              "indexed": true,
              "internalType": "address",
              "name": "player",
              "type": "address"
            },
            {
              "indexed": false,
              "internalType": "uint32",
              "name": "score",
              "type": "uint32"
            }
          ],
          "name": "HighScoreSet",
          "type": "event"
        },
        {
          "anonymous": false,
          "inputs": [
            {
              "indexed": false,
              "internalType": "uint256",
              "name": "newReserve",
              "type": "uint256"
            }
          ],
          "name": "ReserveUpdated",
          "type": "event"
        },
        {
          "inputs": [],
          "name": "CLAIM_WINDOW_DAYS",
          "outputs": [
            {
              "internalType": "uint256",
              "name": "",
              "type": "uint256"
            }
          ],
          "stateMutability": "view",
          "type": "function"
        },
        {
          "inputs": [],
          "name": "ENTRY_FEE",
          "outputs": [
            {
              "internalType": "uint256",
              "name": "",
              "type": "uint256"
            }
          ],
          "stateMutability": "view",
          "type": "function"
        },
        {
          "inputs": [],
          "name": "FIRST_PLACE_PERCENTAGE",
          "outputs": [
            {
              "internalType": "uint256",
              "name": "",
              "type": "uint256"
            }
          ],
          "stateMutability": "view",
          "type": "function"
        },
        {
          "inputs": [],
          "name": "LEADERBOARD_RETENTION_DAYS",
          "outputs": [
            {
              "internalType": "uint256",
              "name": "",
              "type": "uint256"
            }
          ],
          "stateMutability": "view",
          "type": "function"
        },
        {
          "inputs": [],
          "name": "MAX_SESSION_AGE",
          "outputs": [
            {
              "internalType": "uint256",
              "name": "",
              "type": "uint256"
            }
          ],
          "stateMutability": "view",
          "type": "function"
        },
        {
          "inputs": [],
          "name": "MIN_PLAYERS_FOR_REWARDS",
          "outputs": [
            {
              "internalType": "uint256",
              "name": "",
              "type": "uint256"
            }
          ],
          "stateMutability": "view",
          "type": "function"
        },
        {
          "inputs": [],
          "name": "SECOND_PLACE_PERCENTAGE",
          "outputs": [
            {
              "internalType": "uint256",
              "name": "",
              "type": "uint256"
            }
          ],
          "stateMutability": "view",
          "type": "function"
        },
        {
          "inputs": [],
          "name": "THIRD_PLACE_PERCENTAGE",
          "outputs": [
            {
              "internalType": "uint256",
              "name": "",
              "type": "uint256"
            }
          ],
          "stateMutability": "view",
          "type": "function"
        },
        {
          "inputs": [
            {
              "internalType": "uint256",
              "name": "amount",
              "type": "uint256"
            }
          ],
          "name": "addToPrizePool",
          "outputs": [],
          "stateMutability": "nonpayable",
          "type": "function"
        },
        {
          "inputs": [
            {
              "internalType": "uint256",
              "name": "day",
              "type": "uint256"
            },
            {
              "internalType": "uint8",
              "name": "rank",
              "type": "uint8"
            }
          ],
          "name": "calculateReward",
          "outputs": [
            {
              "internalType": "uint256",
              "name": "",
              "type": "uint256"
            }
          ],
          "stateMutability": "view",
          "type": "function"
        },
        {
          "inputs": [
            {
              "internalType": "address",
              "name": "player",
              "type": "address"
            },
            {
              "internalType": "uint256",
              "name": "day",
              "type": "uint256"
            }
          ],
          "name": "canClaimReward",
          "outputs": [
            {
              "internalType": "bool",
              "name": "canClaim",
              "type": "bool"
            },
            {
              "internalType": "uint256",
              "name": "reward",
              "type": "uint256"
            },
            {
              "internalType": "uint8",
              "name": "rank",
              "type": "uint8"
            }
          ],
          "stateMutability": "view",
          "type": "function"
        },
        {
          "inputs": [
            {
              "internalType": "uint256",
              "name": "day",
              "type": "uint256"
            }
          ],
          "name": "canReclaimExpiredRewards",
          "outputs": [
            {
              "internalType": "bool",
              "name": "canReclaim",
              "type": "bool"
            },
            {
              "internalType": "uint256",
              "name": "unclaimedAmount",
              "type": "uint256"
            }
          ],
          "stateMutability": "view",
          "type": "function"
        },
        {
          "inputs": [
            {
              "internalType": "uint256",
              "name": "day",
              "type": "uint256"
            }
          ],
          "name": "claimDailyReward",
          "outputs": [],
          "stateMutability": "nonpayable",
          "type": "function"
        },
        {
          "inputs": [
            {
              "internalType": "uint256[]",
              "name": "dayIds",
              "type": "uint256[]"
            }
          ],
          "name": "claimMultipleDays",
          "outputs": [],
          "stateMutability": "nonpayable",
          "type": "function"
        },
        {
          "inputs": [
            {
              "internalType": "uint256",
              "name": "startDay",
              "type": "uint256"
            },
            {
              "internalType": "uint256",
              "name": "endDay",
              "type": "uint256"
            }
          ],
          "name": "cleanupOldDays",
          "outputs": [],
          "stateMutability": "nonpayable",
          "type": "function"
        },
        {
          "inputs": [],
          "name": "currentDay",
          "outputs": [
            {
              "internalType": "uint256",
              "name": "",
              "type": "uint256"
            }
          ],
          "stateMutability": "view",
          "type": "function"
        },
        {
          "inputs": [
            {
              "internalType": "uint256",
              "name": "",
              "type": "uint256"
            },
            {
              "internalType": "address",
              "name": "",
              "type": "address"
            }
          ],
          "name": "dailyBestScores",
          "outputs": [
            {
              "internalType": "uint32",
              "name": "",
              "type": "uint32"
            }
          ],
          "stateMutability": "view",
          "type": "function"
        },
        {
          "inputs": [
            {
              "internalType": "uint256",
              "name": "",
              "type": "uint256"
            },
            {
              "internalType": "address",
              "name": "",
              "type": "address"
            }
          ],
          "name": "dailyPlayerParticipated",
          "outputs": [
            {
              "internalType": "bool",
              "name": "",
              "type": "bool"
            }
          ],
          "stateMutability": "view",
          "type": "function"
        },
        {
          "inputs": [
            {
              "internalType": "uint256",
              "name": "",
              "type": "uint256"
            },
            {
              "internalType": "address",
              "name": "",
              "type": "address"
            }
          ],
          "name": "dailyRewardsClaimed",
          "outputs": [
            {
              "internalType": "bool",
              "name": "",
              "type": "bool"
            }
          ],
          "stateMutability": "view",
          "type": "function"
        },
        {
          "inputs": [
            {
              "internalType": "uint256",
              "name": "",
              "type": "uint256"
            }
          ],
          "name": "dailySummaries",
          "outputs": [
            {
              "components": [
                {
                  "internalType": "address",
                  "name": "player",
                  "type": "address"
                },
                {
                  "internalType": "uint32",
                  "name": "score",
                  "type": "uint32"
                },
                {
                  "internalType": "uint32",
                  "name": "sessionId",
                  "type": "uint32"
                }
              ],
              "internalType": "struct ColorMatchGame.LeaderboardEntry",
              "name": "first",
              "type": "tuple"
            },
            {
              "components": [
                {
                  "internalType": "address",
                  "name": "player",
                  "type": "address"
                },
                {
                  "internalType": "uint32",
                  "name": "score",
                  "type": "uint32"
                },
                {
                  "internalType": "uint32",
                  "name": "sessionId",
                  "type": "uint32"
                }
              ],
              "internalType": "struct ColorMatchGame.LeaderboardEntry",
              "name": "second",
              "type": "tuple"
            },
            {
              "components": [
                {
                  "internalType": "address",
                  "name": "player",
                  "type": "address"
                },
                {
                  "internalType": "uint32",
                  "name": "score",
                  "type": "uint32"
                },
                {
                  "internalType": "uint32",
                  "name": "sessionId",
                  "type": "uint32"
                }
              ],
              "internalType": "struct ColorMatchGame.LeaderboardEntry",
              "name": "third",
              "type": "tuple"
            },
            {
              "internalType": "uint128",
              "name": "totalCollected",
              "type": "uint128"
            },
            {
              "internalType": "uint16",
              "name": "totalPlayers",
              "type": "uint16"
            },
            {
              "internalType": "bool",
              "name": "finalized",
              "type": "bool"
            }
          ],
          "stateMutability": "view",
          "type": "function"
        },
        {
          "inputs": [
            {
              "internalType": "uint256",
              "name": "",
              "type": "uint256"
            }
          ],
          "name": "dailyWinners",
          "outputs": [
            {
              "internalType": "address",
              "name": "first",
              "type": "address"
            },
            {
              "internalType": "address",
              "name": "second",
              "type": "address"
            },
            {
              "internalType": "address",
              "name": "third",
              "type": "address"
            },
            {
              "internalType": "uint128",
              "name": "dailyPool",
              "type": "uint128"
            },
            {
              "internalType": "uint64",
              "name": "finalizedAt",
              "type": "uint64"
            },
            {
              "internalType": "uint16",
              "name": "totalPlayers",
              "type": "uint16"
            },
            {
              "internalType": "bool",
              "name": "finalized",
              "type": "bool"
            },
            {
              "internalType": "bool",
              "name": "expiredFundsClaimed",
              "type": "bool"
            }
          ],
          "stateMutability": "view",
          "type": "function"
        },
        {
          "inputs": [
            {
              "internalType": "address",
              "name": "token",
              "type": "address"
            },
            {
              "internalType": "uint256",
              "name": "amount",
              "type": "uint256"
            }
          ],
          "name": "emergencyWithdrawToken",
          "outputs": [],
          "stateMutability": "nonpayable",
          "type": "function"
        },
        {
          "inputs": [],
          "name": "finalizeCurrentDay",
          "outputs": [],
          "stateMutability": "nonpayable",
          "type": "function"
        },
        {
          "inputs": [
            {
              "internalType": "uint256",
              "name": "",
              "type": "uint256"
            }
          ],
          "name": "gameSessions",
          "outputs": [
            {
              "internalType": "address",
              "name": "player",
              "type": "address"
            },
            {
              "internalType": "uint64",
              "name": "timestamp",
              "type": "uint64"
            },
            {
              "internalType": "uint32",
              "name": "score",
              "type": "uint32"
            },
            {
              "internalType": "uint16",
              "name": "level",
              "type": "uint16"
            },
            {
              "internalType": "bool",
              "name": "completed",
              "type": "bool"
            },
            {
              "internalType": "bool",
              "name": "rewarded",
              "type": "bool"
            }
          ],
          "stateMutability": "view",
          "type": "function"
        },
        {
          "inputs": [],
          "name": "getContractBalance",
          "outputs": [
            {
              "internalType": "uint256",
              "name": "",
              "type": "uint256"
            }
          ],
          "stateMutability": "view",
          "type": "function"
        },
        {
          "inputs": [],
          "name": "getCurrentDay",
          "outputs": [
            {
              "internalType": "uint256",
              "name": "",
              "type": "uint256"
            }
          ],
          "stateMutability": "view",
          "type": "function"
        },
        {
          "inputs": [],
          "name": "getCurrentTop3",
          "outputs": [
            {
              "internalType": "address[3]",
              "name": "topPlayers",
              "type": "address[3]"
            },
            {
              "internalType": "uint32[3]",
              "name": "topScores",
              "type": "uint32[3]"
            },
            {
              "internalType": "uint256[3]",
              "name": "potentialRewards",
              "type": "uint256[3]"
            }
          ],
          "stateMutability": "view",
          "type": "function"
        },
        {
          "inputs": [
            {
              "internalType": "uint256",
              "name": "day",
              "type": "uint256"
            }
          ],
          "name": "getDailySummary",
          "outputs": [
            {
              "internalType": "uint16",
              "name": "totalPlayers",
              "type": "uint16"
            },
            {
              "internalType": "uint128",
              "name": "totalCollected",
              "type": "uint128"
            },
            {
              "internalType": "bool",
              "name": "finalized",
              "type": "bool"
            },
            {
              "internalType": "bool",
              "name": "rewardsAvailable",
              "type": "bool"
            }
          ],
          "stateMutability": "view",
          "type": "function"
        },
        {
          "inputs": [
            {
              "internalType": "uint256",
              "name": "day",
              "type": "uint256"
            }
          ],
          "name": "getDailyTop3",
          "outputs": [
            {
              "internalType": "address[3]",
              "name": "topPlayers",
              "type": "address[3]"
            },
            {
              "internalType": "uint32[3]",
              "name": "topScores",
              "type": "uint32[3]"
            },
            {
              "internalType": "uint256[3]",
              "name": "rewards",
              "type": "uint256[3]"
            }
          ],
          "stateMutability": "view",
          "type": "function"
        },
        {
          "inputs": [
            {
              "internalType": "uint256",
              "name": "day",
              "type": "uint256"
            }
          ],
          "name": "getDailyWinners",
          "outputs": [
            {
              "internalType": "address",
              "name": "first",
              "type": "address"
            },
            {
              "internalType": "address",
              "name": "second",
              "type": "address"
            },
            {
              "internalType": "address",
              "name": "third",
              "type": "address"
            },
            {
              "internalType": "uint128",
              "name": "dailyPool",
              "type": "uint128"
            },
            {
              "internalType": "uint64",
              "name": "finalizedAt",
              "type": "uint64"
            },
            {
              "internalType": "uint16",
              "name": "totalPlayers",
              "type": "uint16"
            },
            {
              "internalType": "bool",
              "name": "finalized",
              "type": "bool"
            },
            {
              "internalType": "bool",
              "name": "expiredFundsClaimed",
              "type": "bool"
            }
          ],
          "stateMutability": "view",
          "type": "function"
        },
        {
          "inputs": [],
          "name": "getHouseReserve",
          "outputs": [
            {
              "internalType": "uint256",
              "name": "",
              "type": "uint256"
            }
          ],
          "stateMutability": "view",
          "type": "function"
        },
        {
          "inputs": [],
          "name": "getPaymentToken",
          "outputs": [
            {
              "internalType": "address",
              "name": "",
              "type": "address"
            }
          ],
          "stateMutability": "view",
          "type": "function"
        },
        {
          "inputs": [
            {
              "internalType": "address",
              "name": "playerAddr",
              "type": "address"
            }
          ],
          "name": "getPlayerStats",
          "outputs": [
            {
              "internalType": "uint64",
              "name": "gamesPlayed",
              "type": "uint64"
            },
            {
              "internalType": "uint64",
              "name": "lastPlayTime",
              "type": "uint64"
            },
            {
              "internalType": "uint64",
              "name": "highScore",
              "type": "uint64"
            },
            {
              "internalType": "uint128",
              "name": "totalEarnings",
              "type": "uint128"
            }
          ],
          "stateMutability": "view",
          "type": "function"
        },
        {
          "inputs": [
            {
              "internalType": "uint256",
              "name": "sessionId",
              "type": "uint256"
            }
          ],
          "name": "getSessionScore",
          "outputs": [
            {
              "internalType": "address",
              "name": "player",
              "type": "address"
            },
            {
              "internalType": "uint32",
              "name": "score",
              "type": "uint32"
            },
            {
              "internalType": "uint16",
              "name": "level",
              "type": "uint16"
            },
            {
              "internalType": "bool",
              "name": "completed",
              "type": "bool"
            }
          ],
          "stateMutability": "view",
          "type": "function"
        },
        {
          "inputs": [],
          "name": "houseReserve",
          "outputs": [
            {
              "internalType": "uint256",
              "name": "",
              "type": "uint256"
            }
          ],
          "stateMutability": "view",
          "type": "function"
        },
        {
          "inputs": [],
          "name": "oldestTrackedDay",
          "outputs": [
            {
              "internalType": "uint256",
              "name": "",
              "type": "uint256"
            }
          ],
          "stateMutability": "view",
          "type": "function"
        },
        {
          "inputs": [],
          "name": "owner",
          "outputs": [
            {
              "internalType": "address",
              "name": "",
              "type": "address"
            }
          ],
          "stateMutability": "view",
          "type": "function"
        },
        {
          "inputs": [],
          "name": "paymentToken",
          "outputs": [
            {
              "internalType": "contract IERC20",
              "name": "",
              "type": "address"
            }
          ],
          "stateMutability": "view",
          "type": "function"
        },
        {
          "inputs": [
            {
              "internalType": "address",
              "name": "",
              "type": "address"
            }
          ],
          "name": "players",
          "outputs": [
            {
              "internalType": "uint64",
              "name": "gamesPlayed",
              "type": "uint64"
            },
            {
              "internalType": "uint64",
              "name": "lastPlayTime",
              "type": "uint64"
            },
            {
              "internalType": "uint64",
              "name": "highScore",
              "type": "uint64"
            },
            {
              "internalType": "uint128",
              "name": "totalEarnings",
              "type": "uint128"
            }
          ],
          "stateMutability": "view",
          "type": "function"
        },
        {
          "inputs": [
            {
              "internalType": "uint256",
              "name": "day",
              "type": "uint256"
            }
          ],
          "name": "reclaimExpiredRewards",
          "outputs": [],
          "stateMutability": "nonpayable",
          "type": "function"
        },
        {
          "inputs": [],
          "name": "sessionCounter",
          "outputs": [
            {
              "internalType": "uint256",
              "name": "",
              "type": "uint256"
            }
          ],
          "stateMutability": "view",
          "type": "function"
        },
        {
          "inputs": [],
          "name": "startGame",
          "outputs": [
            {
              "internalType": "uint256",
              "name": "",
              "type": "uint256"
            }
          ],
          "stateMutability": "nonpayable",
          "type": "function"
        },
        {
          "inputs": [
            {
              "internalType": "uint256",
              "name": "sessionId",
              "type": "uint256"
            },
            {
              "internalType": "uint32",
              "name": "score",
              "type": "uint32"
            },
            {
              "internalType": "uint16",
              "name": "level",
              "type": "uint16"
            }
          ],
          "name": "submitScore",
          "outputs": [],
          "stateMutability": "nonpayable",
          "type": "function"
        },
        {
          "inputs": [],
          "name": "totalPrizePool",
          "outputs": [
            {
              "internalType": "uint256",
              "name": "",
              "type": "uint256"
            }
          ],
          "stateMutability": "view",
          "type": "function"
        },
        {
          "inputs": [
            {
              "internalType": "uint256",
              "name": "amount",
              "type": "uint256"
            }
          ],
          "name": "withdrawReserve",
          "outputs": [],
          "stateMutability": "nonpayable",
          "type": "function"
        }
      ],
      "evm": {
        "bytecode": {
          "linkReferences": {},
          "object": "60a060405234801561001057600080fd5b5060405161308238038061308283398101604081905261002f91610090565b6001600160a01b03811661005657604051630f58058360e11b815260040160405180910390fd5b600580546001600160a01b031916331790556001600160a01b03811660805261008262015180426100c0565b600b819055600c55506100e2565b6000602082840312156100a257600080fd5b81516001600160a01b03811681146100b957600080fd5b9392505050565b6000826100dd57634e487b7160e01b600052601260045260246000fd5b500490565b608051612f4d610135600039600081816102d601528181610a4a01528181610b4a015281816110500152818161156d015281816118d00152818161197501528181611c9a01526120380152612f4d6000f3fe608060405234801561001057600080fd5b506004361061027f5760003560e01c80638da5cb5b1161015c578063c7f388c1116100ce578063d65ab5f211610087578063d65ab5f214610a6e578063e2eb41ff14610a76578063e9753d5f14610ac8578063eaf9a24b14610adb578063f34426f114610ae3578063f6d361cc14610aeb57600080fd5b8063c7f388c114610940578063cc64e2af14610949578063cd37e6e814610952578063cddacbe71461095a578063ce898eb314610a3f578063d41c3a6514610a4857600080fd5b8063b1471d0611610120578063b1471d0614610820578063b8cdaff814610828578063bbc10e4c1461083b578063be2a99a1146108bd578063c273c53e146108eb578063c3b07e211461091e57600080fd5b80638da5cb5b1461070257806397a75cba146107155780639fb0a4b11461071e578063a43156b614610804578063a4c3b0911461080d57600080fd5b80634ba82d64116101f55780636724e9d8116101b95780636724e9d81461050d57806368218aeb1461055357806368d0d501146106295780636d009cdd146106675780636f9fb98a1461067a578063745c0d721461068257600080fd5b80634ba82d641461040b5780634fd66eae146104135780635966ab32146104c75780635c9302c9146104f15780635e67fe14146104fa57600080fd5b806334a8014b1161024757806334a8014b1461031057806335af65eb146103cc578063398ab9a7146103df5780633e6968b6146103e85780633e696f38146103f05780634a48b60e1461040357600080fd5b8063091b81661461028457806312c7093e146102a0578063186ba253146102a95780631b5cd01c146102be5780633013ce29146102d1575b600080fd5b61028d6105dc81565b6040519081526020015b60405180910390f35b61028d610bb881565b6102bc6102b73660046129d8565b610afa565b005b61028d6102cc3660046129f1565b610c31565b6102f87f000000000000000000000000000000000000000000000000000000000000000081565b6040516001600160a01b039091168152602001610297565b61037c61031e3660046129d8565b600160208190526000918252604090912080549101546001600160a01b03821691600160a01b81046001600160401b031691600160e01b90910463ffffffff169061ffff81169062010000810460ff90811691630100000090041686565b604080516001600160a01b0390971687526001600160401b03909516602087015263ffffffff9093169385019390935261ffff1660608401529015156080830152151560a082015260c001610297565b6102bc6103da366004612a39565b610cf9565b61028d60035481565b600b5461028d565b6102bc6103fe3660046129d8565b610fbf565b6102bc611110565b60045461028d565b61048e610421366004612a97565b6001600160a01b031660009081526020818152604091829020825160808101845281546001600160401b03808216808452600160401b83048216958401869052600160801b909204169482018590526001909201546001600160801b031660609091018190529093919291565b604080516001600160401b039586168152938516602085015291909316908201526001600160801b039091166060820152608001610297565b6104da6104d53660046129d8565b61115b565b604080519215158352602083019190915201610297565b61028d600b5481565b6102bc6105083660046129d8565b6112e9565b61053e61051b366004612abb565b600960209081526000928352604080842090915290825290205463ffffffff1681565b60405163ffffffff9091168152602001610297565b6105ef6105613660046129d8565b600090815260016020818152604092839020835160c08101855281546001600160a01b038116808352600160a01b82046001600160401b031694830194909452600160e01b900463ffffffff1694810185905292015461ffff81166060840181905262010000820460ff908116151560808601819052630100000090930416151560a0909401939093529093565b604080516001600160a01b03909516855263ffffffff909316602085015261ffff9091169183019190915215156060820152608001610297565b610657610637366004612abb565b600860209081526000928352604080842090915290825290205460ff1681565b6040519015158152602001610297565b6102bc6106753660046129d8565b611650565b61028d6118b8565b6106cd6106903660046129d8565b6000908152600660205260409020600390810154600160c01b810461ffff16926001600160801b03821692600160d01b90920460ff169184101590565b6040805161ffff90951685526001600160801b0390931660208501529015159183019190915215156060820152608001610297565b6005546102f8906001600160a01b031681565b61028d6109c481565b6107a061072c3660046129d8565b60009081526006602052604090208054600182015460028301546003909301546001600160a01b03928316949183169392909216916001600160801b038116916001600160401b03600160801b8304169161ffff600160c01b8204169160ff600160d01b8304811692600160d81b90041690565b604080516001600160a01b03998a168152978916602089015297909516968601969096526001600160801b0390921660608501526001600160401b0316608084015261ffff1660a083015291151560c082015290151560e082015261010001610297565b61028d600c5481565b6102bc61081b366004612ae0565b611948565b61028d601e81565b6102bc610836366004612b0c565b611a3c565b6107a06108493660046129d8565b60066020526000908152604090208054600182015460028301546003909301546001600160a01b03928316939183169291909116906001600160801b038116906001600160401b03600160801b8204169061ffff600160c01b8204169060ff600160d01b8204811691600160d81b90041688565b6106576108cb366004612abb565b600a60209081526000928352604080842090915290825290205460ff1681565b6108fe6108f9366004612ae0565b611d37565b604080519315158452602084019290925260ff1690820152606001610297565b61093161092c3660046129d8565b611ed2565b60405161029793929190612ba4565b61028d610e1081565b61028d60025481565b61028d600781565b610a2d6109683660046129d8565b60076020908152600091825260409182902082516060808201855282546001600160a01b03808216845263ffffffff600160a01b808404821686890152600160c01b938490048216868a015288518086018a52600188015480851682528281048416828b01528590048316818b015289519586018a526002880154938416865290830482169785019790975291900416948101949094526003909101549092906001600160801b0381169061ffff600160801b8204169060ff600160901b9091041686565b60405161029796959493929190612c4c565b61028d60045481565b7f00000000000000000000000000000000000000000000000000000000000000006102f8565b61028d612002565b61048e610a84366004612a97565b600060208190529081526040902080546001909101546001600160401b0380831692600160401b8104821692600160801b909104909116906001600160801b031684565b6102bc610ad6366004612ca4565b612278565b610931612368565b61028d600381565b61028d67016345785d8a000081565b6005546001600160a01b03163314610b2557604051635fc483c560e01b815260040160405180910390fd5b6040516323b872dd60e01b8152336004820152306024820152604481018290526000907f00000000000000000000000000000000000000000000000000000000000000006001600160a01b0316906323b872dd906064016020604051808303816000875af1158015610b9b573d6000803e3d6000fd5b505050506040513d601f19601f82011682018060405250810190610bbf9190612cc6565b905080610bdf576040516312171d8360e31b815260040160405180910390fd5b8160046000828254610bf19190612cfe565b90915550506004546040519081527f85e15aee91823036f338b40b55f10eea0356cfb9da506963651ac73e503f47db906020015b60405180910390a15050565b60008281526006602052604081206003810154600160d01b900460ff16610c5c576000915050610cf3565b600381810154600160c01b900461ffff161015610c7d576000915050610cf3565b60038101546001600160801b031660ff8416600103610cb857612710610ca5610bb883612d11565b610caf9190612d28565b92505050610cf3565b8360ff16600203610cd257612710610ca56109c483612d11565b8360ff16600303610cec57612710610ca56105dc83612d11565b6000925050505b92915050565b600083815260016020526040902080546001600160a01b03163314610d3157604051638c33f38360e01b815260040160405180910390fd5b600181015462010000900460ff1615610d5d57604051639fbfc58960e01b815260040160405180910390fd5b8054600160a01b90046001600160401b0316600003610d8f576040516316f78d3b60e11b815260040160405180910390fd5b8054610dae90610e1090600160a01b90046001600160401b0316612cfe565b421115610dce57604051630fe82d2560e11b815260040160405180910390fd5b629896808363ffffffff161115610df857604051631556136560e01b815260040160405180910390fd5b805463ffffffff8416600160e01b026001600160e01b0390911617815560018101805462ffffff191661ffff841617620100001790556000610e3d6201518042612d28565b9050600b548114610e6057610e53600b546123f0565b600b819055610e60612633565b3360009081526020819052604090208054426001600160401b03908116600160401b026001600160801b0319831692821660010182169290921791909117808355600160801b90041663ffffffff86161115610f1057805467ffffffffffffffff60801b191663ffffffff8616600160801b810291909117825560405190815233907f22905902cc8c9719b33f7d75db0df77d6a28a6821e0c6645a0de271335d318bd9060200160405180910390a25b600082815260096020908152604080832033845290915290205463ffffffff908116908616811015610f76576000838152600960209081526040808320338085529252909120805463ffffffff191663ffffffff8916179055610f76908490888a6126f5565b6040805188815263ffffffff8816602082015233917fdb93f11fe0756b029244a28f83aab90e847b5c26d8659ba05cfb74aab73ea6b0910160405180910390a250505050505050565b6005546001600160a01b03163314610fea57604051635fc483c560e01b815260040160405180910390fd5b60045481111561100d57604051634b63e0e160e11b815260040160405180910390fd5b806004600082825461101f9190612d4a565b909155505060055460405163a9059cbb60e01b81526001600160a01b039182166004820152602481018390526000917f0000000000000000000000000000000000000000000000000000000000000000169063a9059cbb906044016020604051808303816000875af1158015611099573d6000803e3d6000fd5b505050506040513d601f19601f820116820180604052508101906110bd9190612cc6565b9050806110dd576040516312171d8360e31b815260040160405180910390fd5b7f85e15aee91823036f338b40b55f10eea0356cfb9da506963651ac73e503f47db600454604051610c2591815260200190565b600b546111206201518042612d28565b1161113e57604051637485c29d60e01b815260040160405180910390fd5b611149600b546123f0565b6111566201518042612d28565b600b55565b60008181526006602052604081206003810154829190600160d01b900460ff1661118b5750600093849350915050565b600381810154600160c01b900461ffff1610156111ae5750600093849350915050565b6003810154600160d81b900460ff16156111ce5750600093849350915050565b6111dc600762015180612d11565b60038201546111fb9190600160801b90046001600160401b0316612cfe565b421161120d5750600093849350915050565b600084815260086020908152604080832084546001600160a01b0316845290915281205460ff1661125057611243856001610c31565b61124d9082612cfe565b90505b600085815260086020908152604080832060018601546001600160a01b0316845290915290205460ff1661129657611289856002610c31565b6112939082612cfe565b90505b600085815260086020908152604080832060028601546001600160a01b0316845290915290205460ff166112dc576112cf856003610c31565b6112d99082612cfe565b90505b8015159590945092505050565b600b54811061130b57604051630c09254360e01b815260040160405180910390fd5b600081815260086020908152604080832033845290915290205460ff161561134657604051630c8d9eab60e31b815260040160405180910390fd5b60008181526006602052604090206003810154600160d01b900460ff1661138057604051630912829760e31b815260040160405180910390fd5b600381810154600160c01b900461ffff1610156113b05760405163f770074360e01b815260040160405180910390fd5b6113be600762015180612d11565b60038201546113dd9190600160801b90046001600160401b0316612cfe565b4211156113fd57604051631b8709b760e01b815260040160405180910390fd5b8054600090336001600160a01b039091160361141b57506001611453565b6001820154336001600160a01b039091160361143957506002611453565b6002820154336001600160a01b0390911603611453575060035b8060ff1660000361147757604051639c56052b60e01b815260040160405180910390fd5b60006114838483610c31565b9050806000036114a65760405163785eab3760e01b815260040160405180910390fd5b8060035410156114c95760405163785eab3760e01b815260040160405180910390fd5b60008481526008602090815260408083203384528252808320805460ff191660019081179091559183905282209081018054919284926115139084906001600160801b0316612d5d565b92506101000a8154816001600160801b0302191690836001600160801b0316021790555081600360008282546115499190612d4a565b909155505060405163a9059cbb60e01b8152336004820152602481018390526000907f00000000000000000000000000000000000000000000000000000000000000006001600160a01b03169063a9059cbb906044016020604051808303816000875af11580156115be573d6000803e3d6000fd5b505050506040513d601f19601f820116820180604052508101906115e29190612cc6565b905080611602576040516312171d8360e31b815260040160405180910390fd5b6040805160ff861681526020810185905290810187905233907f338d011a22421a3389379c72db1f2fc001c6e60c197df7ad91ca88bb05177f589060600160405180910390a2505050505050565b6005546001600160a01b0316331461167b57604051635fc483c560e01b815260040160405180910390fd5b60008181526006602052604090206003810154600160d01b900460ff166116b557604051630912829760e31b815260040160405180910390fd5b600381810154600160c01b900461ffff1610156116e55760405163f770074360e01b815260040160405180910390fd5b6003810154600160d81b900460ff161561171257604051630c8d9eab60e31b815260040160405180910390fd5b611720600762015180612d11565b600382015461173f9190600160801b90046001600160401b0316612cfe565b421161175e57604051632afb7d3b60e11b815260040160405180910390fd5b60038101805460ff60d81b1916600160d81b179055600082815260086020908152604080832084546001600160a01b0316845290915281205460ff166117b6576117a9836001610c31565b6117b39082612cfe565b90505b600083815260086020908152604080832060018601546001600160a01b0316845290915290205460ff166117fc576117ef836002610c31565b6117f99082612cfe565b90505b600083815260086020908152604080832060028601546001600160a01b0316845290915290205460ff1661184257611835836003610c31565b61183f9082612cfe565b90505b80156118b357806003600082825461185a9190612d4a565b9250508190555080600460008282546118739190612cfe565b909155505060408051848152602081018390527f052f0789d8217d58ae6c5a915aa0d2867b067f58e8137bc30d341428ad071e2891015b60405180910390a15b505050565b6040516370a0823160e01b81523060048201526000907f00000000000000000000000000000000000000000000000000000000000000006001600160a01b0316906370a0823190602401602060405180830381865afa15801561191f573d6000803e3d6000fd5b505050506040513d601f19601f820116820180604052508101906119439190612d7c565b905090565b6005546001600160a01b0316331461197357604051635fc483c560e01b815260040160405180910390fd5b7f00000000000000000000000000000000000000000000000000000000000000006001600160a01b0316826001600160a01b0316036119c5576040516366b83bad60e11b815260040160405180910390fd5b60055460405163a9059cbb60e01b81526001600160a01b039182166004820152602481018390529083169063a9059cbb906044016020604051808303816000875af1158015611a18573d6000803e3d6000fd5b505050506040513d601f19601f820116820180604052508101906118b39190612cc6565b806000805b82811015611c74576000858583818110611a5d57611a5d612d95565b905060200201359050600b5481108015611a915750600081815260086020908152604080832033845290915290205460ff16155b15611c6b5760008181526006602052604090206003810154600160d01b900460ff168015611ace5750600381810154600160c01b900461ffff1610155b15611c6957611ae1600762015180612d11565b6003820154611b009190600160801b90046001600160401b0316612cfe565b4211611c69578054600090336001600160a01b0390911603611b2457506001611b5c565b6001820154336001600160a01b0390911603611b4257506002611b5c565b6002820154336001600160a01b0390911603611b5c575060035b60ff811615611c67576000611b718483610c31565b9050600081118015611b8557508060035410155b15611c655760008481526008602090815260408083203384528252808320805460ff19166001908117909155918390528220908101805491928492611bd49084906001600160801b0316612d5d565b92506101000a8154816001600160801b0302191690836001600160801b031602179055508160036000828254611c0a9190612d4a565b90915550611c1a90508288612cfe565b6040805160ff861681526020810185905290810187905290975033907f338d011a22421a3389379c72db1f2fc001c6e60c197df7ad91ca88bb05177f589060600160405180910390a2505b505b505b505b50600101611a41565b508015611d315760405163a9059cbb60e01b8152336004820152602481018290526000907f00000000000000000000000000000000000000000000000000000000000000006001600160a01b03169063a9059cbb906044016020604051808303816000875af1158015611ceb573d6000803e3d6000fd5b505050506040513d601f19601f82011682018060405250810190611d0f9190612cc6565b905080611d2f576040516312171d8360e31b815260040160405180910390fd5b505b50505050565b6000806000600b548410611d5357506000915081905080611ecb565b60008481526008602090815260408083206001600160a01b038916845290915290205460ff1615611d8c57506000915081905080611ecb565b60008481526006602052604090206003810154600160d01b900460ff16611dbe57600080600093509350935050611ecb565b600381810154600160c01b900461ffff161015611de657600080600093509350935050611ecb565b611df4600762015180612d11565b6003820154611e139190600160801b90046001600160401b0316612cfe565b421115611e2b57600080600093509350935050611ecb565b80546001600160a01b03808816911603611e5a576001611e4c866001610c31565b600193509350935050611ecb565b60018101546001600160a01b03808816911603611e8c576001611e7e866002610c31565b600293509350935050611ecb565b60028101546001600160a01b03808816911603611ebe576001611eb0866003610c31565b600393509350935050611ecb565b6000806000935093509350505b9250925092565b611eda6129ba565b611ee26129ba565b611eea6129ba565b600084815260076020908152604080832060069092529091206003820154600160901b900460ff1615611f755781546001600160a01b03808216875260018401548082166020808a019190915260028601549283166040808b019190915263ffffffff600160a01b9586900481168a5292859004831691890191909152929091041690850152611f9c565b80546001600160a01b03908116865260018201548116602087015260028201541660408601525b6003810154600160d01b900460ff168015611fc65750600381810154600160c01b900461ffff1610155b15611ff957611fd6866001610c31565b8352611fe3866002610c31565b6020840152611ff3866003610c31565b60408401525b50509193909250565b6040516323b872dd60e01b815233600482015230602482015267016345785d8a0000604482015260009081906001600160a01b037f000000000000000000000000000000000000000000000000000000000000000016906323b872dd906064016020604051808303816000875af1158015612081573d6000803e3d6000fd5b505050506040513d601f19601f820116820180604052508101906120a59190612cc6565b9050806120c5576040516312171d8360e31b815260040160405180910390fd5b60028054600101905560006120dd6201518042612d28565b6040805160c0810182523381526001600160401b0342811660208084019182526000848601818152606086018281526080870183815260a08801848152600254855260018087528a862099518a549851955163ffffffff16600160e01b026001600160e01b0396909a16600160a01b026001600160e01b03199099166001600160a01b03919091161797909717939093169690961787555195909301805494519351151563010000000263ff00000019941515620100000262ffffff1990961661ffff97909716969096179490941792909216939093179091558381526007909152908120600381018054939450909267016345785d8a000092906121ec9084906001600160801b0316612d5d565b92506101000a8154816001600160801b0302191690836001600160801b0316021790555067016345785d8a00006003600082825461222a9190612cfe565b9091555050600254604080519182526020820184905233917f2ebc740a82c0c6454a29c8aa9db57c66257e2f17d38a783c83c83dd49f52e0fb910160405180910390a2600254935050505090565b6005546001600160a01b031633146122a357604051635fc483c560e01b815260040160405180910390fd5b600b5481106122c5576040516302caa05b60e41b815260040160405180910390fd5b818110156122e65760405163561ce9bb60e01b815260040160405180910390fd5b600a6122f28383612d4a565b1115612311576040516318c86b3960e11b815260040160405180910390fd5b815b8181116118b357600081815260076020526040902080546001600160e01b031990811682556001808301805483169055600283018054909216909155600390910180546001600160981b031916905501612313565b6123706129ba565b6123786129ba565b6123806129ba565b600b5460405163c3b07e2160e01b81526004810191909152309063c3b07e219060240161012060405180830381865afa1580156123c1573d6000803e3d6000fd5b505050506040513d601f19601f820116820180604052508101906123e59190612e3b565b925092509250909192565b60008181526007602052604090206003810154600160901b900460ff1661262f5760038181018054600160901b60ff60901b198216178255600085815260066020526040902080840180546001600160801b039093166001600160801b03198416811782558454600160d01b79ffff0000000000000000ffffffffffffffffffffffffffffffff19909516909117600160801b9182900461ffff908116600160c01b02919091176aff0000ffffffffffffffff60801b1916426001600160401b0316830217949094179091559254909392900416106125b157815481546001600160a01b039182166001600160a01b03199182161783556001808501549084018054918416918316919091179055600280850154908401805491909316911617905560038201546001600160801b031660006127106125316105dc84612d11565b61253b9190612d28565b61271061254a6109c485612d11565b6125549190612d28565b612710612563610bb886612d11565b61256d9190612d28565b6125779190612cfe565b6125819190612cfe565b9050600061258f8284612d4a565b905080600460008282546125a39190612cfe565b909155506125da9350505050565b6003820154600480546001600160801b03909216916000906125d4908490612cfe565b90915550505b6003820154604080518581526001600160801b0383166020820152600160801b90920461ffff16908201527fc7f3678d2f7a354fa81d27b85b8700a191613fe6d8cfd7a800b0567cb9996c4f906060016118aa565b5050565b6000601e600b5411612646576000612655565b601e600b546126559190612d4a565b905080600c5410156126f2576000600c5460056126729190612cfe565b821061268b57600c54612686906005612cfe565b61268d565b815b600c549091505b818110156126ea57600081815260076020526040902080546001600160e01b031990811682556001808301805483169055600283018054909216909155600390910180546001600160981b031916905501612694565b5050600c8190555b50565b6000848152600760209081526040808320600a83528184206001600160a01b03881685529092529091205460ff166127af576000858152600a602090815260408083206001600160a01b03881684529091528120805460ff19166001179055600382015461ffff600160801b9091041690036127865760038101805461ffff60801b1916600160801b1790556127af565b600381018054600161ffff600160801b808404821692909201160261ffff60801b199091161790555b604080516060810182526001600160a01b038616815263ffffffff808616602083018190528582169383019390935283549192600160a01b90920416101561289a576001820180546002840180546001600160a01b038084166001600160c01b031992831617600160a01b80860463ffffffff90811682029290921763ffffffff60c01b19908116600160c01b80890485168102919091179096558954808516978616979097178288048416830217811686880484168702179097558751602089015160408a01519190941696909416959095179181169094021790931692909116021782556129b2565b600182015463ffffffff600160a01b9091048116908516111561293e57600182018054600284018054600160c01b80840463ffffffff908116820263ffffffff60c01b19600160a01b808804841681026001600160c01b03199687166001600160a01b03808b169190911791909117831693909317909655885160208a015160408b01518516909502949093169095029390951694169390931717161790556129b2565b600282015463ffffffff600160a01b909104811690851611156129b2578051600283018054602084015160408501516001600160a01b039094166001600160c01b031990921691909117600160a01b63ffffffff928316021763ffffffff60c01b1916600160c01b91909316029190911790555b505050505050565b60405180606001604052806003906020820280368337509192915050565b6000602082840312156129ea57600080fd5b5035919050565b60008060408385031215612a0457600080fd5b82359150602083013560ff81168114612a1c57600080fd5b809150509250929050565b63ffffffff811681146126f257600080fd5b600080600060608486031215612a4e57600080fd5b833592506020840135612a6081612a27565b9150604084013561ffff81168114612a7757600080fd5b809150509250925092565b6001600160a01b03811681146126f257600080fd5b600060208284031215612aa957600080fd5b8135612ab481612a82565b9392505050565b60008060408385031215612ace57600080fd5b823591506020830135612a1c81612a82565b60008060408385031215612af357600080fd5b8235612afe81612a82565b946020939093013593505050565b60008060208385031215612b1f57600080fd5b82356001600160401b03811115612b3557600080fd5b8301601f81018513612b4657600080fd5b80356001600160401b03811115612b5c57600080fd5b8560208260051b8401011115612b7157600080fd5b6020919091019590945092505050565b8060005b6003811015611d31578151845260209384019390910190600101612b85565b6101208101818560005b6003811015612bd65781516001600160a01b0316835260209283019290910190600101612bae565b505050606082018460005b6003811015612c0657815163ffffffff16835260209283019290910190600101612be1565b505050612c1660c0830184612b81565b949350505050565b80516001600160a01b0316825260208082015163ffffffff9081169184019190915260409182015116910152565b6101808101612c5b8289612c1e565b612c686060830188612c1e565b612c7560c0830187612c1e565b6001600160801b03851661012083015261ffff8416610140830152821515610160830152979650505050505050565b60008060408385031215612cb757600080fd5b50508035926020909101359150565b600060208284031215612cd857600080fd5b81518015158114612ab457600080fd5b634e487b7160e01b600052601160045260246000fd5b80820180821115610cf357610cf3612ce8565b8082028115828204841417610cf357610cf3612ce8565b600082612d4557634e487b7160e01b600052601260045260246000fd5b500490565b81810381811115610cf357610cf3612ce8565b6001600160801b038181168382160190811115610cf357610cf3612ce8565b600060208284031215612d8e57600080fd5b5051919050565b634e487b7160e01b600052603260045260246000fd5b604051601f8201601f191681016001600160401b0381118282101715612de157634e487b7160e01b600052604160045260246000fd5b604052919050565b600082601f830112612dfa57600080fd5b612e046060612dab565b806060840185811115612e1657600080fd5b845b81811015612e30578051845260209384019301612e18565b509095945050505050565b60008060006101208486031215612e5157600080fd5b84601f850112612e6057600080fd5b6060612e6b81612dab565b8082870188811115612e7c57600080fd5b875b81811015612e9f578051612e9181612a82565b845260209384019301612e7e565b508196506000925088601f820112612eb5578283fd5b839150612ec182612dab565b9381019391508189851115612ed4578384fd5b84821015612ef9578151612ee781612a27565b83526020928301929190910190612ed4565b9550612f0e9350889250505060c08601612de9565b9050925092509256fea26469706673582212205b47a890e4df4da0be88d231ea8d7f1ba16c5c20f0daaf65b22d79d98c9da4cf64736f6c634300081c0033",
          "opcodes": "PUSH1 0xA0 PUSH1 0x40 MSTORE CALLVALUE DUP1 ISZERO PUSH2 0x10 JUMPI PUSH1 0x0 DUP1 REVERT JUMPDEST POP PUSH1 0x40 MLOAD PUSH2 0x3082 CODESIZE SUB DUP1 PUSH2 0x3082 DUP4 CODECOPY DUP2 ADD PUSH1 0x40 DUP2 SWAP1 MSTORE PUSH2 0x2F SWAP2 PUSH2 0x90 JUMP JUMPDEST PUSH1 0x1 PUSH1 0x1 PUSH1 0xA0 SHL SUB DUP2 AND PUSH2 0x56 JUMPI PUSH1 0x40 MLOAD PUSH4 0xF580583 PUSH1 0xE1 SHL DUP2 MSTORE PUSH1 0x4 ADD PUSH1 0x40 MLOAD DUP1 SWAP2 SUB SWAP1 REVERT JUMPDEST PUSH1 0x5 DUP1 SLOAD PUSH1 0x1 PUSH1 0x1 PUSH1 0xA0 SHL SUB NOT AND CALLER OR SWAP1 SSTORE PUSH1 0x1 PUSH1 0x1 PUSH1 0xA0 SHL SUB DUP2 AND PUSH1 0x80 MSTORE PUSH2 0x82 PUSH3 0x15180 TIMESTAMP PUSH2 0xC0 JUMP JUMPDEST PUSH1 0xB DUP2 SWAP1 SSTORE PUSH1 0xC SSTORE POP PUSH2 0xE2 JUMP JUMPDEST PUSH1 0x0 PUSH1 0x20 DUP3 DUP5 SUB SLT ISZERO PUSH2 0xA2 JUMPI PUSH1 0x0 DUP1 REVERT JUMPDEST DUP2 MLOAD PUSH1 0x1 PUSH1 0x1 PUSH1 0xA0 SHL SUB DUP2 AND DUP2 EQ PUSH2 0xB9 JUMPI PUSH1 0x0 DUP1 REVERT JUMPDEST SWAP4 SWAP3 POP POP POP JUMP JUMPDEST PUSH1 0x0 DUP3 PUSH2 0xDD JUMPI PUSH4 0x4E487B71 PUSH1 0xE0 SHL PUSH1 0x0 MSTORE PUSH1 0x12 PUSH1 0x4 MSTORE PUSH1 0x24 PUSH1 0x0 REVERT JUMPDEST POP DIV SWAP1 JUMP JUMPDEST PUSH1 0x80 MLOAD PUSH2 0x2F4D PUSH2 0x135 PUSH1 0x0 CODECOPY PUSH1 0x0 DUP2 DUP2 PUSH2 0x2D6 ADD MSTORE DUP2 DUP2 PUSH2 0xA4A ADD MSTORE DUP2 DUP2 PUSH2 0xB4A ADD MSTORE DUP2 DUP2 PUSH2 0x1050 ADD MSTORE DUP2 DUP2 PUSH2 0x156D ADD MSTORE DUP2 DUP2 PUSH2 0x18D0 ADD MSTORE DUP2 DUP2 PUSH2 0x1975 ADD MSTORE DUP2 DUP2 PUSH2 0x1C9A ADD MSTORE PUSH2 0x2038 ADD MSTORE PUSH2 0x2F4D PUSH1 0x0 RETURN INVALID PUSH1 0x80 PUSH1 0x40 MSTORE CALLVALUE DUP1 ISZERO PUSH2 0x10 JUMPI PUSH1 0x0 DUP1 REVERT JUMPDEST POP PUSH1 0x4 CALLDATASIZE LT PUSH2 0x27F JUMPI PUSH1 0x0 CALLDATALOAD PUSH1 0xE0 SHR DUP1 PUSH4 0x8DA5CB5B GT PUSH2 0x15C JUMPI DUP1 PUSH4 0xC7F388C1 GT PUSH2 0xCE JUMPI DUP1 PUSH4 0xD65AB5F2 GT PUSH2 0x87 JUMPI DUP1 PUSH4 0xD65AB5F2 EQ PUSH2 0xA6E JUMPI DUP1 PUSH4 0xE2EB41FF EQ PUSH2 0xA76 JUMPI DUP1 PUSH4 0xE9753D5F EQ PUSH2 0xAC8 JUMPI DUP1 PUSH4 0xEAF9A24B EQ PUSH2 0xADB JUMPI DUP1 PUSH4 0xF34426F1 EQ PUSH2 0xAE3 JUMPI DUP1 PUSH4 0xF6D361CC EQ PUSH2 0xAEB JUMPI PUSH1 0x0 DUP1 REVERT JUMPDEST DUP1 PUSH4 0xC7F388C1 EQ PUSH2 0x940 JUMPI DUP1 PUSH4 0xCC64E2AF EQ PUSH2 0x949 JUMPI DUP1 PUSH4 0xCD37E6E8 EQ PUSH2 0x952 JUMPI DUP1 PUSH4 0xCDDACBE7 EQ PUSH2 0x95A JUMPI DUP1 PUSH4 0xCE898EB3 EQ PUSH2 0xA3F JUMPI DUP1 PUSH4 0xD41C3A65 EQ PUSH2 0xA48 JUMPI PUSH1 0x0 DUP1 REVERT JUMPDEST DUP1 PUSH4 0xB1471D06 GT PUSH2 0x120 JUMPI DUP1 PUSH4 0xB1471D06 EQ PUSH2 0x820 JUMPI DUP1 PUSH4 0xB8CDAFF8 EQ PUSH2 0x828 JUMPI DUP1 PUSH4 0xBBC10E4C EQ PUSH2 0x83B JUMPI DUP1 PUSH4 0xBE2A99A1 EQ PUSH2 0x8BD JUMPI DUP1 PUSH4 0xC273C53E EQ PUSH2 0x8EB JUMPI DUP1 PUSH4 0xC3B07E21 EQ PUSH2 0x91E JUMPI PUSH1 0x0 DUP1 REVERT JUMPDEST DUP1 PUSH4 0x8DA5CB5B EQ PUSH2 0x702 JUMPI DUP1 PUSH4 0x97A75CBA EQ PUSH2 0x715 JUMPI DUP1 PUSH4 0x9FB0A4B1 EQ PUSH2 0x71E JUMPI DUP1 PUSH4 0xA43156B6 EQ PUSH2 0x804 JUMPI DUP1 PUSH4 0xA4C3B091 EQ PUSH2 0x80D JUMPI PUSH1 0x0 DUP1 REVERT JUMPDEST DUP1 PUSH4 0x4BA82D64 GT PUSH2 0x1F5 JUMPI DUP1 PUSH4 0x6724E9D8 GT PUSH2 0x1B9 JUMPI DUP1 PUSH4 0x6724E9D8 EQ PUSH2 0x50D JUMPI DUP1 PUSH4 0x68218AEB EQ PUSH2 0x553 JUMPI DUP1 PUSH4 0x68D0D501 EQ PUSH2 0x629 JUMPI DUP1 PUSH4 0x6D009CDD EQ PUSH2 0x667 JUMPI DUP1 PUSH4 0x6F9FB98A EQ PUSH2 0x67A JUMPI DUP1 PUSH4 0x745C0D72 EQ PUSH2 0x682 JUMPI PUSH1 0x0 DUP1 REVERT JUMPDEST DUP1 PUSH4 0x4BA82D64 EQ PUSH2 0x40B JUMPI DUP1 PUSH4 0x4FD66EAE EQ PUSH2 0x413 JUMPI DUP1 PUSH4 0x5966AB32 EQ PUSH2 0x4C7 JUMPI DUP1 PUSH4 0x5C9302C9 EQ PUSH2 0x4F1 JUMPI DUP1 PUSH4 0x5E67FE14 EQ PUSH2 0x4FA JUMPI PUSH1 0x0 DUP1 REVERT JUMPDEST DUP1 PUSH4 0x34A8014B GT PUSH2 0x247 JUMPI DUP1 PUSH4 0x34A8014B EQ PUSH2 0x310 JUMPI DUP1 PUSH4 0x35AF65EB EQ PUSH2 0x3CC JUMPI DUP1 PUSH4 0x398AB9A7 EQ PUSH2 0x3DF JUMPI DUP1 PUSH4 0x3E6968B6 EQ PUSH2 0x3E8 JUMPI DUP1 PUSH4 0x3E696F38 EQ PUSH2 0x3F0 JUMPI DUP1 PUSH4 0x4A48B60E EQ PUSH2 0x403 JUMPI PUSH1 0x0 DUP1 REVERT JUMPDEST DUP1 PUSH4 0x91B8166 EQ PUSH2 0x284 JUMPI DUP1 PUSH4 0x12C7093E EQ PUSH2 0x2A0 JUMPI DUP1 PUSH4 0x186BA253 EQ PUSH2 0x2A9 JUMPI DUP1 PUSH4 0x1B5CD01C EQ PUSH2 0x2BE JUMPI DUP1 PUSH4 0x3013CE29 EQ PUSH2 0x2D1 JUMPI JUMPDEST PUSH1 0x0 DUP1 REVERT JUMPDEST PUSH2 0x28D PUSH2 0x5DC DUP2 JUMP JUMPDEST PUSH1 0x40 MLOAD SWAP1 DUP2 MSTORE PUSH1 0x20 ADD JUMPDEST PUSH1 0x40 MLOAD DUP1 SWAP2 SUB SWAP1 RETURN JUMPDEST PUSH2 0x28D PUSH2 0xBB8 DUP2 JUMP JUMPDEST PUSH2 0x2BC PUSH2 0x2B7 CALLDATASIZE PUSH1 0x4 PUSH2 0x29D8 JUMP JUMPDEST PUSH2 0xAFA JUMP JUMPDEST STOP JUMPDEST PUSH2 0x28D PUSH2 0x2CC CALLDATASIZE PUSH1 0x4 PUSH2 0x29F1 JUMP JUMPDEST PUSH2 0xC31 JUMP JUMPDEST PUSH2 0x2F8 PUSH32 0x0 DUP2 JUMP JUMPDEST PUSH1 0x40 MLOAD PUSH1 0x1 PUSH1 0x1 PUSH1 0xA0 SHL SUB SWAP1 SWAP2 AND DUP2 MSTORE PUSH1 0x20 ADD PUSH2 0x297 JUMP JUMPDEST PUSH2 0x37C PUSH2 0x31E CALLDATASIZE PUSH1 0x4 PUSH2 0x29D8 JUMP JUMPDEST PUSH1 0x1 PUSH1 0x20 DUP2 SWAP1 MSTORE PUSH1 0x0 SWAP2 DUP3 MSTORE PUSH1 0x40 SWAP1 SWAP2 KECCAK256 DUP1 SLOAD SWAP2 ADD SLOAD PUSH1 0x1 PUSH1 0x1 PUSH1 0xA0 SHL SUB DUP3 AND SWAP2 PUSH1 0x1 PUSH1 0xA0 SHL DUP2 DIV PUSH1 0x1 PUSH1 0x1 PUSH1 0x40 SHL SUB AND SWAP2 PUSH1 0x1 PUSH1 0xE0 SHL SWAP1 SWAP2 DIV PUSH4 0xFFFFFFFF AND SWAP1 PUSH2 0xFFFF DUP2 AND SWAP1 PUSH3 0x10000 DUP2 DIV PUSH1 0xFF SWAP1 DUP2 AND SWAP2 PUSH4 0x1000000 SWAP1 DIV AND DUP7 JUMP JUMPDEST PUSH1 0x40 DUP1 MLOAD PUSH1 0x1 PUSH1 0x1 PUSH1 0xA0 SHL SUB SWAP1 SWAP8 AND DUP8 MSTORE PUSH1 0x1 PUSH1 0x1 PUSH1 0x40 SHL SUB SWAP1 SWAP6 AND PUSH1 0x20 DUP8 ADD MSTORE PUSH4 0xFFFFFFFF SWAP1 SWAP4 AND SWAP4 DUP6 ADD SWAP4 SWAP1 SWAP4 MSTORE PUSH2 0xFFFF AND PUSH1 0x60 DUP5 ADD MSTORE SWAP1 ISZERO ISZERO PUSH1 0x80 DUP4 ADD MSTORE ISZERO ISZERO PUSH1 0xA0 DUP3 ADD MSTORE PUSH1 0xC0 ADD PUSH2 0x297 JUMP JUMPDEST PUSH2 0x2BC PUSH2 0x3DA CALLDATASIZE PUSH1 0x4 PUSH2 0x2A39 JUMP JUMPDEST PUSH2 0xCF9 JUMP JUMPDEST PUSH2 0x28D PUSH1 0x3 SLOAD DUP2 JUMP JUMPDEST PUSH1 0xB SLOAD PUSH2 0x28D JUMP JUMPDEST PUSH2 0x2BC PUSH2 0x3FE CALLDATASIZE PUSH1 0x4 PUSH2 0x29D8 JUMP JUMPDEST PUSH2 0xFBF JUMP JUMPDEST PUSH2 0x2BC PUSH2 0x1110 JUMP JUMPDEST PUSH1 0x4 SLOAD PUSH2 0x28D JUMP JUMPDEST PUSH2 0x48E PUSH2 0x421 CALLDATASIZE PUSH1 0x4 PUSH2 0x2A97 JUMP JUMPDEST PUSH1 0x1 PUSH1 0x1 PUSH1 0xA0 SHL SUB AND PUSH1 0x0 SWAP1 DUP2 MSTORE PUSH1 0x20 DUP2 DUP2 MSTORE PUSH1 0x40 SWAP2 DUP3 SWAP1 KECCAK256 DUP3 MLOAD PUSH1 0x80 DUP2 ADD DUP5 MSTORE DUP2 SLOAD PUSH1 0x1 PUSH1 0x1 PUSH1 0x40 SHL SUB DUP1 DUP3 AND DUP1 DUP5 MSTORE PUSH1 0x1 PUSH1 0x40 SHL DUP4 DIV DUP3 AND SWAP6 DUP5 ADD DUP7 SWAP1 MSTORE PUSH1 0x1 PUSH1 0x80 SHL SWAP1 SWAP3 DIV AND SWAP5 DUP3 ADD DUP6 SWAP1 MSTORE PUSH1 0x1 SWAP1 SWAP3 ADD SLOAD PUSH1 0x1 PUSH1 0x1 PUSH1 0x80 SHL SUB AND PUSH1 0x60 SWAP1 SWAP2 ADD DUP2 SWAP1 MSTORE SWAP1 SWAP4 SWAP2 SWAP3 SWAP2 JUMP JUMPDEST PUSH1 0x40 DUP1 MLOAD PUSH1 0x1 PUSH1 0x1 PUSH1 0x40 SHL SUB SWAP6 DUP7 AND DUP2 MSTORE SWAP4 DUP6 AND PUSH1 0x20 DUP6 ADD MSTORE SWAP2 SWAP1 SWAP4 AND SWAP1 DUP3 ADD MSTORE PUSH1 0x1 PUSH1 0x1 PUSH1 0x80 SHL SUB SWAP1 SWAP2 AND PUSH1 0x60 DUP3 ADD MSTORE PUSH1 0x80 ADD PUSH2 0x297 JUMP JUMPDEST PUSH2 0x4DA PUSH2 0x4D5 CALLDATASIZE PUSH1 0x4 PUSH2 0x29D8 JUMP JUMPDEST PUSH2 0x115B JUMP JUMPDEST PUSH1 0x40 DUP1 MLOAD SWAP3 ISZERO ISZERO DUP4 MSTORE PUSH1 0x20 DUP4 ADD SWAP2 SWAP1 SWAP2 MSTORE ADD PUSH2 0x297 JUMP JUMPDEST PUSH2 0x28D PUSH1 0xB SLOAD DUP2 JUMP JUMPDEST PUSH2 0x2BC PUSH2 0x508 CALLDATASIZE PUSH1 0x4 PUSH2 0x29D8 JUMP JUMPDEST PUSH2 0x12E9 JUMP JUMPDEST PUSH2 0x53E PUSH2 0x51B CALLDATASIZE PUSH1 0x4 PUSH2 0x2ABB JUMP JUMPDEST PUSH1 0x9 PUSH1 0x20 SWAP1 DUP2 MSTORE PUSH1 0x0 SWAP3 DUP4 MSTORE PUSH1 0x40 DUP1 DUP5 KECCAK256 SWAP1 SWAP2 MSTORE SWAP1 DUP3 MSTORE SWAP1 KECCAK256 SLOAD PUSH4 0xFFFFFFFF AND DUP2 JUMP JUMPDEST PUSH1 0x40 MLOAD PUSH4 0xFFFFFFFF SWAP1 SWAP2 AND DUP2 MSTORE PUSH1 0x20 ADD PUSH2 0x297 JUMP JUMPDEST PUSH2 0x5EF PUSH2 0x561 CALLDATASIZE PUSH1 0x4 PUSH2 0x29D8 JUMP JUMPDEST PUSH1 0x0 SWAP1 DUP2 MSTORE PUSH1 0x1 PUSH1 0x20 DUP2 DUP2 MSTORE PUSH1 0x40 SWAP3 DUP4 SWAP1 KECCAK256 DUP4 MLOAD PUSH1 0xC0 DUP2 ADD DUP6 MSTORE DUP2 SLOAD PUSH1 0x1 PUSH1 0x1 PUSH1 0xA0 SHL SUB DUP2 AND DUP1 DUP4 MSTORE PUSH1 0x1 PUSH1 0xA0 SHL DUP3 DIV PUSH1 0x1 PUSH1 0x1 PUSH1 0x40 SHL SUB AND SWAP5 DUP4 ADD SWAP5 SWAP1 SWAP5 MSTORE PUSH1 0x1 PUSH1 0xE0 SHL SWAP1 DIV PUSH4 0xFFFFFFFF AND SWAP5 DUP2 ADD DUP6 SWAP1 MSTORE SWAP3 ADD SLOAD PUSH2 0xFFFF DUP2 AND PUSH1 0x60 DUP5 ADD DUP2 SWAP1 MSTORE PUSH3 0x10000 DUP3 DIV PUSH1 0xFF SWAP1 DUP2 AND ISZERO ISZERO PUSH1 0x80 DUP7 ADD DUP2 SWAP1 MSTORE PUSH4 0x1000000 SWAP1 SWAP4 DIV AND ISZERO ISZERO PUSH1 0xA0 SWAP1 SWAP5 ADD SWAP4 SWAP1 SWAP4 MSTORE SWAP1 SWAP4 JUMP JUMPDEST PUSH1 0x40 DUP1 MLOAD PUSH1 0x1 PUSH1 0x1 PUSH1 0xA0 SHL SUB SWAP1 SWAP6 AND DUP6 MSTORE PUSH4 0xFFFFFFFF SWAP1 SWAP4 AND PUSH1 0x20 DUP6 ADD MSTORE PUSH2 0xFFFF SWAP1 SWAP2 AND SWAP2 DUP4 ADD SWAP2 SWAP1 SWAP2 MSTORE ISZERO ISZERO PUSH1 0x60 DUP3 ADD MSTORE PUSH1 0x80 ADD PUSH2 0x297 JUMP JUMPDEST PUSH2 0x657 PUSH2 0x637 CALLDATASIZE PUSH1 0x4 PUSH2 0x2ABB JUMP JUMPDEST PUSH1 0x8 PUSH1 0x20 SWAP1 DUP2 MSTORE PUSH1 0x0 SWAP3 DUP4 MSTORE PUSH1 0x40 DUP1 DUP5 KECCAK256 SWAP1 SWAP2 MSTORE SWAP1 DUP3 MSTORE SWAP1 KECCAK256 SLOAD PUSH1 0xFF AND DUP2 JUMP JUMPDEST PUSH1 0x40 MLOAD SWAP1 ISZERO ISZERO DUP2 MSTORE PUSH1 0x20 ADD PUSH2 0x297 JUMP JUMPDEST PUSH2 0x2BC PUSH2 0x675 CALLDATASIZE PUSH1 0x4 PUSH2 0x29D8 JUMP JUMPDEST PUSH2 0x1650 JUMP JUMPDEST PUSH2 0x28D PUSH2 0x18B8 JUMP JUMPDEST PUSH2 0x6CD PUSH2 0x690 CALLDATASIZE PUSH1 0x4 PUSH2 0x29D8 JUMP JUMPDEST PUSH1 0x0 SWAP1 DUP2 MSTORE PUSH1 0x6 PUSH1 0x20 MSTORE PUSH1 0x40 SWAP1 KECCAK256 PUSH1 0x3 SWAP1 DUP2 ADD SLOAD PUSH1 0x1 PUSH1 0xC0 SHL DUP2 DIV PUSH2 0xFFFF AND SWAP3 PUSH1 0x1 PUSH1 0x1 PUSH1 0x80 SHL SUB DUP3 AND SWAP3 PUSH1 0x1 PUSH1 0xD0 SHL SWAP1 SWAP3 DIV PUSH1 0xFF AND SWAP2 DUP5 LT ISZERO SWAP1 JUMP JUMPDEST PUSH1 0x40 DUP1 MLOAD PUSH2 0xFFFF SWAP1 SWAP6 AND DUP6 MSTORE PUSH1 0x1 PUSH1 0x1 PUSH1 0x80 SHL SUB SWAP1 SWAP4 AND PUSH1 0x20 DUP6 ADD MSTORE SWAP1 ISZERO ISZERO SWAP2 DUP4 ADD SWAP2 SWAP1 SWAP2 MSTORE ISZERO ISZERO PUSH1 0x60 DUP3 ADD MSTORE PUSH1 0x80 ADD PUSH2 0x297 JUMP JUMPDEST PUSH1 0x5 SLOAD PUSH2 0x2F8 SWAP1 PUSH1 0x1 PUSH1 0x1 PUSH1 0xA0 SHL SUB AND DUP2 JUMP JUMPDEST PUSH2 0x28D PUSH2 0x9C4 DUP2 JUMP JUMPDEST PUSH2 0x7A0 PUSH2 0x72C CALLDATASIZE PUSH1 0x4 PUSH2 0x29D8 JUMP JUMPDEST PUSH1 0x0 SWAP1 DUP2 MSTORE PUSH1 0x6 PUSH1 0x20 MSTORE PUSH1 0x40 SWAP1 KECCAK256 DUP1 SLOAD PUSH1 0x1 DUP3 ADD SLOAD PUSH1 0x2 DUP4 ADD SLOAD PUSH1 0x3 SWAP1 SWAP4 ADD SLOAD PUSH1 0x1 PUSH1 0x1 PUSH1 0xA0 SHL SUB SWAP3 DUP4 AND SWAP5 SWAP2 DUP4 AND SWAP4 SWAP3 SWAP1 SWAP3 AND SWAP2 PUSH1 0x1 PUSH1 0x1 PUSH1 0x80 SHL SUB DUP2 AND SWAP2 PUSH1 0x1 PUSH1 0x1 PUSH1 0x40 SHL SUB PUSH1 0x1 PUSH1 0x80 SHL DUP4 DIV AND SWAP2 PUSH2 0xFFFF PUSH1 0x1 PUSH1 0xC0 SHL DUP3 DIV AND SWAP2 PUSH1 0xFF PUSH1 0x1 PUSH1 0xD0 SHL DUP4 DIV DUP2 AND SWAP3 PUSH1 0x1 PUSH1 0xD8 SHL SWAP1 DIV AND SWAP1 JUMP JUMPDEST PUSH1 0x40 DUP1 MLOAD PUSH1 0x1 PUSH1 0x1 PUSH1 0xA0 SHL SUB SWAP10 DUP11 AND DUP2 MSTORE SWAP8 DUP10 AND PUSH1 0x20 DUP10 ADD MSTORE SWAP8 SWAP1 SWAP6 AND SWAP7 DUP7 ADD SWAP7 SWAP1 SWAP7 MSTORE PUSH1 0x1 PUSH1 0x1 PUSH1 0x80 SHL SUB SWAP1 SWAP3 AND PUSH1 0x60 DUP6 ADD MSTORE PUSH1 0x1 PUSH1 0x1 PUSH1 0x40 SHL SUB AND PUSH1 0x80 DUP5 ADD MSTORE PUSH2 0xFFFF AND PUSH1 0xA0 DUP4 ADD MSTORE SWAP2 ISZERO ISZERO PUSH1 0xC0 DUP3 ADD MSTORE SWAP1 ISZERO ISZERO PUSH1 0xE0 DUP3 ADD MSTORE PUSH2 0x100 ADD PUSH2 0x297 JUMP JUMPDEST PUSH2 0x28D PUSH1 0xC SLOAD DUP2 JUMP JUMPDEST PUSH2 0x2BC PUSH2 0x81B CALLDATASIZE PUSH1 0x4 PUSH2 0x2AE0 JUMP JUMPDEST PUSH2 0x1948 JUMP JUMPDEST PUSH2 0x28D PUSH1 0x1E DUP2 JUMP JUMPDEST PUSH2 0x2BC PUSH2 0x836 CALLDATASIZE PUSH1 0x4 PUSH2 0x2B0C JUMP JUMPDEST PUSH2 0x1A3C JUMP JUMPDEST PUSH2 0x7A0 PUSH2 0x849 CALLDATASIZE PUSH1 0x4 PUSH2 0x29D8 JUMP JUMPDEST PUSH1 0x6 PUSH1 0x20 MSTORE PUSH1 0x0 SWAP1 DUP2 MSTORE PUSH1 0x40 SWAP1 KECCAK256 DUP1 SLOAD PUSH1 0x1 DUP3 ADD SLOAD PUSH1 0x2 DUP4 ADD SLOAD PUSH1 0x3 SWAP1 SWAP4 ADD SLOAD PUSH1 0x1 PUSH1 0x1 PUSH1 0xA0 SHL SUB SWAP3 DUP4 AND SWAP4 SWAP2 DUP4 AND SWAP3 SWAP2 SWAP1 SWAP2 AND SWAP1 PUSH1 0x1 PUSH1 0x1 PUSH1 0x80 SHL SUB DUP2 AND SWAP1 PUSH1 0x1 PUSH1 0x1 PUSH1 0x40 SHL SUB PUSH1 0x1 PUSH1 0x80 SHL DUP3 DIV AND SWAP1 PUSH2 0xFFFF PUSH1 0x1 PUSH1 0xC0 SHL DUP3 DIV AND SWAP1 PUSH1 0xFF PUSH1 0x1 PUSH1 0xD0 SHL DUP3 DIV DUP2 AND SWAP2 PUSH1 0x1 PUSH1 0xD8 SHL SWAP1 DIV AND DUP9 JUMP JUMPDEST PUSH2 0x657 PUSH2 0x8CB CALLDATASIZE PUSH1 0x4 PUSH2 0x2ABB JUMP JUMPDEST PUSH1 0xA PUSH1 0x20 SWAP1 DUP2 MSTORE PUSH1 0x0 SWAP3 DUP4 MSTORE PUSH1 0x40 DUP1 DUP5 KECCAK256 SWAP1 SWAP2 MSTORE SWAP1 DUP3 MSTORE SWAP1 KECCAK256 SLOAD PUSH1 0xFF AND DUP2 JUMP JUMPDEST PUSH2 0x8FE PUSH2 0x8F9 CALLDATASIZE PUSH1 0x4 PUSH2 0x2AE0 JUMP JUMPDEST PUSH2 0x1D37 JUMP JUMPDEST PUSH1 0x40 DUP1 MLOAD SWAP4 ISZERO ISZERO DUP5 MSTORE PUSH1 0x20 DUP5 ADD SWAP3 SWAP1 SWAP3 MSTORE PUSH1 0xFF AND SWAP1 DUP3 ADD MSTORE PUSH1 0x60 ADD PUSH2 0x297 JUMP JUMPDEST PUSH2 0x931 PUSH2 0x92C CALLDATASIZE PUSH1 0x4 PUSH2 0x29D8 JUMP JUMPDEST PUSH2 0x1ED2 JUMP JUMPDEST PUSH1 0x40 MLOAD PUSH2 0x297 SWAP4 SWAP3 SWAP2 SWAP1 PUSH2 0x2BA4 JUMP JUMPDEST PUSH2 0x28D PUSH2 0xE10 DUP2 JUMP JUMPDEST PUSH2 0x28D PUSH1 0x2 SLOAD DUP2 JUMP JUMPDEST PUSH2 0x28D PUSH1 0x7 DUP2 JUMP JUMPDEST PUSH2 0xA2D PUSH2 0x968 CALLDATASIZE PUSH1 0x4 PUSH2 0x29D8 JUMP JUMPDEST PUSH1 0x7 PUSH1 0x20 SWAP1 DUP2 MSTORE PUSH1 0x0 SWAP2 DUP3 MSTORE PUSH1 0x40 SWAP2 DUP3 SWAP1 KECCAK256 DUP3 MLOAD PUSH1 0x60 DUP1 DUP3 ADD DUP6 MSTORE DUP3 SLOAD PUSH1 0x1 PUSH1 0x1 PUSH1 0xA0 SHL SUB DUP1 DUP3 AND DUP5 MSTORE PUSH4 0xFFFFFFFF PUSH1 0x1 PUSH1 0xA0 SHL DUP1 DUP5 DIV DUP3 AND DUP7 DUP10 ADD MSTORE PUSH1 0x1 PUSH1 0xC0 SHL SWAP4 DUP5 SWAP1 DIV DUP3 AND DUP7 DUP11 ADD MSTORE DUP9 MLOAD DUP1 DUP7 ADD DUP11 MSTORE PUSH1 0x1 DUP9 ADD SLOAD DUP1 DUP6 AND DUP3 MSTORE DUP3 DUP2 DIV DUP5 AND DUP3 DUP12 ADD MSTORE DUP6 SWAP1 DIV DUP4 AND DUP2 DUP12 ADD MSTORE DUP10 MLOAD SWAP6 DUP7 ADD DUP11 MSTORE PUSH1 0x2 DUP9 ADD SLOAD SWAP4 DUP5 AND DUP7 MSTORE SWAP1 DUP4 DIV DUP3 AND SWAP8 DUP6 ADD SWAP8 SWAP1 SWAP8 MSTORE SWAP2 SWAP1 DIV AND SWAP5 DUP2 ADD SWAP5 SWAP1 SWAP5 MSTORE PUSH1 0x3 SWAP1 SWAP2 ADD SLOAD SWAP1 SWAP3 SWAP1 PUSH1 0x1 PUSH1 0x1 PUSH1 0x80 SHL SUB DUP2 AND SWAP1 PUSH2 0xFFFF PUSH1 0x1 PUSH1 0x80 SHL DUP3 DIV AND SWAP1 PUSH1 0xFF PUSH1 0x1 PUSH1 0x90 SHL SWAP1 SWAP2 DIV AND DUP7 JUMP JUMPDEST PUSH1 0x40 MLOAD PUSH2 0x297 SWAP7 SWAP6 SWAP5 SWAP4 SWAP3 SWAP2 SWAP1 PUSH2 0x2C4C JUMP JUMPDEST PUSH2 0x28D PUSH1 0x4 SLOAD DUP2 JUMP JUMPDEST PUSH32 0x0 PUSH2 0x2F8 JUMP JUMPDEST PUSH2 0x28D PUSH2 0x2002 JUMP JUMPDEST PUSH2 0x48E PUSH2 0xA84 CALLDATASIZE PUSH1 0x4 PUSH2 0x2A97 JUMP JUMPDEST PUSH1 0x0 PUSH1 0x20 DUP2 SWAP1 MSTORE SWAP1 DUP2 MSTORE PUSH1 0x40 SWAP1 KECCAK256 DUP1 SLOAD PUSH1 0x1 SWAP1 SWAP2 ADD SLOAD PUSH1 0x1 PUSH1 0x1 PUSH1 0x40 SHL SUB DUP1 DUP4 AND SWAP3 PUSH1 0x1 PUSH1 0x40 SHL DUP2 DIV DUP3 AND SWAP3 PUSH1 0x1 PUSH1 0x80 SHL SWAP1 SWAP2 DIV SWAP1 SWAP2 AND SWAP1 PUSH1 0x1 PUSH1 0x1 PUSH1 0x80 SHL SUB AND DUP5 JUMP JUMPDEST PUSH2 0x2BC PUSH2 0xAD6 CALLDATASIZE PUSH1 0x4 PUSH2 0x2CA4 JUMP JUMPDEST PUSH2 0x2278 JUMP JUMPDEST PUSH2 0x931 PUSH2 0x2368 JUMP JUMPDEST PUSH2 0x28D PUSH1 0x3 DUP2 JUMP JUMPDEST PUSH2 0x28D PUSH8 0x16345785D8A0000 DUP2 JUMP JUMPDEST PUSH1 0x5 SLOAD PUSH1 0x1 PUSH1 0x1 PUSH1 0xA0 SHL SUB AND CALLER EQ PUSH2 0xB25 JUMPI PUSH1 0x40 MLOAD PUSH4 0x5FC483C5 PUSH1 0xE0 SHL DUP2 MSTORE PUSH1 0x4 ADD PUSH1 0x40 MLOAD DUP1 SWAP2 SUB SWAP1 REVERT JUMPDEST PUSH1 0x40 MLOAD PUSH4 0x23B872DD PUSH1 0xE0 SHL DUP2 MSTORE CALLER PUSH1 0x4 DUP3 ADD MSTORE ADDRESS PUSH1 0x24 DUP3 ADD MSTORE PUSH1 0x44 DUP2 ADD DUP3 SWAP1 MSTORE PUSH1 0x0 SWAP1 PUSH32 0x0 PUSH1 0x1 PUSH1 0x1 PUSH1 0xA0 SHL SUB AND SWAP1 PUSH4 0x23B872DD SWAP1 PUSH1 0x64 ADD PUSH1 0x20 PUSH1 0x40 MLOAD DUP1 DUP4 SUB DUP2 PUSH1 0x0 DUP8 GAS CALL ISZERO DUP1 ISZERO PUSH2 0xB9B JUMPI RETURNDATASIZE PUSH1 0x0 DUP1 RETURNDATACOPY RETURNDATASIZE PUSH1 0x0 REVERT JUMPDEST POP POP POP POP PUSH1 0x40 MLOAD RETURNDATASIZE PUSH1 0x1F NOT PUSH1 0x1F DUP3 ADD AND DUP3 ADD DUP1 PUSH1 0x40 MSTORE POP DUP2 ADD SWAP1 PUSH2 0xBBF SWAP2 SWAP1 PUSH2 0x2CC6 JUMP JUMPDEST SWAP1 POP DUP1 PUSH2 0xBDF JUMPI PUSH1 0x40 MLOAD PUSH4 0x12171D83 PUSH1 0xE3 SHL DUP2 MSTORE PUSH1 0x4 ADD PUSH1 0x40 MLOAD DUP1 SWAP2 SUB SWAP1 REVERT JUMPDEST DUP2 PUSH1 0x4 PUSH1 0x0 DUP3 DUP3 SLOAD PUSH2 0xBF1 SWAP2 SWAP1 PUSH2 0x2CFE JUMP JUMPDEST SWAP1 SWAP2 SSTORE POP POP PUSH1 0x4 SLOAD PUSH1 0x40 MLOAD SWAP1 DUP2 MSTORE PUSH32 0x85E15AEE91823036F338B40B55F10EEA0356CFB9DA506963651AC73E503F47DB SWAP1 PUSH1 0x20 ADD JUMPDEST PUSH1 0x40 MLOAD DUP1 SWAP2 SUB SWAP1 LOG1 POP POP JUMP JUMPDEST PUSH1 0x0 DUP3 DUP2 MSTORE PUSH1 0x6 PUSH1 0x20 MSTORE PUSH1 0x40 DUP2 KECCAK256 PUSH1 0x3 DUP2 ADD SLOAD PUSH1 0x1 PUSH1 0xD0 SHL SWAP1 DIV PUSH1 0xFF AND PUSH2 0xC5C JUMPI PUSH1 0x0 SWAP2 POP POP PUSH2 0xCF3 JUMP JUMPDEST PUSH1 0x3 DUP2 DUP2 ADD SLOAD PUSH1 0x1 PUSH1 0xC0 SHL SWAP1 DIV PUSH2 0xFFFF AND LT ISZERO PUSH2 0xC7D JUMPI PUSH1 0x0 SWAP2 POP POP PUSH2 0xCF3 JUMP JUMPDEST PUSH1 0x3 DUP2 ADD SLOAD PUSH1 0x1 PUSH1 0x1 PUSH1 0x80 SHL SUB AND PUSH1 0xFF DUP5 AND PUSH1 0x1 SUB PUSH2 0xCB8 JUMPI PUSH2 0x2710 PUSH2 0xCA5 PUSH2 0xBB8 DUP4 PUSH2 0x2D11 JUMP JUMPDEST PUSH2 0xCAF SWAP2 SWAP1 PUSH2 0x2D28 JUMP JUMPDEST SWAP3 POP POP POP PUSH2 0xCF3 JUMP JUMPDEST DUP4 PUSH1 0xFF AND PUSH1 0x2 SUB PUSH2 0xCD2 JUMPI PUSH2 0x2710 PUSH2 0xCA5 PUSH2 0x9C4 DUP4 PUSH2 0x2D11 JUMP JUMPDEST DUP4 PUSH1 0xFF AND PUSH1 0x3 SUB PUSH2 0xCEC JUMPI PUSH2 0x2710 PUSH2 0xCA5 PUSH2 0x5DC DUP4 PUSH2 0x2D11 JUMP JUMPDEST PUSH1 0x0 SWAP3 POP POP POP JUMPDEST SWAP3 SWAP2 POP POP JUMP JUMPDEST PUSH1 0x0 DUP4 DUP2 MSTORE PUSH1 0x1 PUSH1 0x20 MSTORE PUSH1 0x40 SWAP1 KECCAK256 DUP1 SLOAD PUSH1 0x1 PUSH1 0x1 PUSH1 0xA0 SHL SUB AND CALLER EQ PUSH2 0xD31 JUMPI PUSH1 0x40 MLOAD PUSH4 0x8C33F383 PUSH1 0xE0 SHL DUP2 MSTORE PUSH1 0x4 ADD PUSH1 0x40 MLOAD DUP1 SWAP2 SUB SWAP1 REVERT JUMPDEST PUSH1 0x1 DUP2 ADD SLOAD PUSH3 0x10000 SWAP1 DIV PUSH1 0xFF AND ISZERO PUSH2 0xD5D JUMPI PUSH1 0x40 MLOAD PUSH4 0x9FBFC589 PUSH1 0xE0 SHL DUP2 MSTORE PUSH1 0x4 ADD PUSH1 0x40 MLOAD DUP1 SWAP2 SUB SWAP1 REVERT JUMPDEST DUP1 SLOAD PUSH1 0x1 PUSH1 0xA0 SHL SWAP1 DIV PUSH1 0x1 PUSH1 0x1 PUSH1 0x40 SHL SUB AND PUSH1 0x0 SUB PUSH2 0xD8F JUMPI PUSH1 0x40 MLOAD PUSH4 0x16F78D3B PUSH1 0xE1 SHL DUP2 MSTORE PUSH1 0x4 ADD PUSH1 0x40 MLOAD DUP1 SWAP2 SUB SWAP1 REVERT JUMPDEST DUP1 SLOAD PUSH2 0xDAE SWAP1 PUSH2 0xE10 SWAP1 PUSH1 0x1 PUSH1 0xA0 SHL SWAP1 DIV PUSH1 0x1 PUSH1 0x1 PUSH1 0x40 SHL SUB AND PUSH2 0x2CFE JUMP JUMPDEST TIMESTAMP GT ISZERO PUSH2 0xDCE JUMPI PUSH1 0x40 MLOAD PUSH4 0xFE82D25 PUSH1 0xE1 SHL DUP2 MSTORE PUSH1 0x4 ADD PUSH1 0x40 MLOAD DUP1 SWAP2 SUB SWAP1 REVERT JUMPDEST PUSH3 0x989680 DUP4 PUSH4 0xFFFFFFFF AND GT ISZERO PUSH2 0xDF8 JUMPI PUSH1 0x40 MLOAD PUSH4 0x15561365 PUSH1 0xE0 SHL DUP2 MSTORE PUSH1 0x4 ADD PUSH1 0x40 MLOAD DUP1 SWAP2 SUB SWAP1 REVERT JUMPDEST DUP1 SLOAD PUSH4 0xFFFFFFFF DUP5 AND PUSH1 0x1 PUSH1 0xE0 SHL MUL PUSH1 0x1 PUSH1 0x1 PUSH1 0xE0 SHL SUB SWAP1 SWAP2 AND OR DUP2 SSTORE PUSH1 0x1 DUP2 ADD DUP1 SLOAD PUSH3 0xFFFFFF NOT AND PUSH2 0xFFFF DUP5 AND OR PUSH3 0x10000 OR SWAP1 SSTORE PUSH1 0x0 PUSH2 0xE3D PUSH3 0x15180 TIMESTAMP PUSH2 0x2D28 JUMP JUMPDEST SWAP1 POP PUSH1 0xB SLOAD DUP2 EQ PUSH2 0xE60 JUMPI PUSH2 0xE53 PUSH1 0xB SLOAD PUSH2 0x23F0 JUMP JUMPDEST PUSH1 0xB DUP2 SWAP1 SSTORE PUSH2 0xE60 PUSH2 0x2633 JUMP JUMPDEST CALLER PUSH1 0x0 SWAP1 DUP2 MSTORE PUSH1 0x20 DUP2 SWAP1 MSTORE PUSH1 0x40 SWAP1 KECCAK256 DUP1 SLOAD TIMESTAMP PUSH1 0x1 PUSH1 0x1 PUSH1 0x40 SHL SUB SWAP1 DUP2 AND PUSH1 0x1 PUSH1 0x40 SHL MUL PUSH1 0x1 PUSH1 0x1 PUSH1 0x80 SHL SUB NOT DUP4 AND SWAP3 DUP3 AND PUSH1 0x1 ADD DUP3 AND SWAP3 SWAP1 SWAP3 OR SWAP2 SWAP1 SWAP2 OR DUP1 DUP4 SSTORE PUSH1 0x1 PUSH1 0x80 SHL SWAP1 DIV AND PUSH4 0xFFFFFFFF DUP7 AND GT ISZERO PUSH2 0xF10 JUMPI DUP1 SLOAD PUSH8 0xFFFFFFFFFFFFFFFF PUSH1 0x80 SHL NOT AND PUSH4 0xFFFFFFFF DUP7 AND PUSH1 0x1 PUSH1 0x80 SHL DUP2 MUL SWAP2 SWAP1 SWAP2 OR DUP3 SSTORE PUSH1 0x40 MLOAD SWAP1 DUP2 MSTORE CALLER SWAP1 PUSH32 0x22905902CC8C9719B33F7D75DB0DF77D6A28A6821E0C6645A0DE271335D318BD SWAP1 PUSH1 0x20 ADD PUSH1 0x40 MLOAD DUP1 SWAP2 SUB SWAP1 LOG2 JUMPDEST PUSH1 0x0 DUP3 DUP2 MSTORE PUSH1 0x9 PUSH1 0x20 SWAP1 DUP2 MSTORE PUSH1 0x40 DUP1 DUP4 KECCAK256 CALLER DUP5 MSTORE SWAP1 SWAP2 MSTORE SWAP1 KECCAK256 SLOAD PUSH4 0xFFFFFFFF SWAP1 DUP2 AND SWAP1 DUP7 AND DUP2 LT ISZERO PUSH2 0xF76 JUMPI PUSH1 0x0 DUP4 DUP2 MSTORE PUSH1 0x9 PUSH1 0x20 SWAP1 DUP2 MSTORE PUSH1 0x40 DUP1 DUP4 KECCAK256 CALLER DUP1 DUP6 MSTORE SWAP3 MSTORE SWAP1 SWAP2 KECCAK256 DUP1 SLOAD PUSH4 0xFFFFFFFF NOT AND PUSH4 0xFFFFFFFF DUP10 AND OR SWAP1 SSTORE PUSH2 0xF76 SWAP1 DUP5 SWAP1 DUP9 DUP11 PUSH2 0x26F5 JUMP JUMPDEST PUSH1 0x40 DUP1 MLOAD DUP9 DUP2 MSTORE PUSH4 0xFFFFFFFF DUP9 AND PUSH1 0x20 DUP3 ADD MSTORE CALLER SWAP2 PUSH32 0xDB93F11FE0756B029244A28F83AAB90E847B5C26D8659BA05CFB74AAB73EA6B0 SWAP2 ADD PUSH1 0x40 MLOAD DUP1 SWAP2 SUB SWAP1 LOG2 POP POP POP POP POP POP POP JUMP JUMPDEST PUSH1 0x5 SLOAD PUSH1 0x1 PUSH1 0x1 PUSH1 0xA0 SHL SUB AND CALLER EQ PUSH2 0xFEA JUMPI PUSH1 0x40 MLOAD PUSH4 0x5FC483C5 PUSH1 0xE0 SHL DUP2 MSTORE PUSH1 0x4 ADD PUSH1 0x40 MLOAD DUP1 SWAP2 SUB SWAP1 REVERT JUMPDEST PUSH1 0x4 SLOAD DUP2 GT ISZERO PUSH2 0x100D JUMPI PUSH1 0x40 MLOAD PUSH4 0x4B63E0E1 PUSH1 0xE1 SHL DUP2 MSTORE PUSH1 0x4 ADD PUSH1 0x40 MLOAD DUP1 SWAP2 SUB SWAP1 REVERT JUMPDEST DUP1 PUSH1 0x4 PUSH1 0x0 DUP3 DUP3 SLOAD PUSH2 0x101F SWAP2 SWAP1 PUSH2 0x2D4A JUMP JUMPDEST SWAP1 SWAP2 SSTORE POP POP PUSH1 0x5 SLOAD PUSH1 0x40 MLOAD PUSH4 0xA9059CBB PUSH1 0xE0 SHL DUP2 MSTORE PUSH1 0x1 PUSH1 0x1 PUSH1 0xA0 SHL SUB SWAP2 DUP3 AND PUSH1 0x4 DUP3 ADD MSTORE PUSH1 0x24 DUP2 ADD DUP4 SWAP1 MSTORE PUSH1 0x0 SWAP2 PUSH32 0x0 AND SWAP1 PUSH4 0xA9059CBB SWAP1 PUSH1 0x44 ADD PUSH1 0x20 PUSH1 0x40 MLOAD DUP1 DUP4 SUB DUP2 PUSH1 0x0 DUP8 GAS CALL ISZERO DUP1 ISZERO PUSH2 0x1099 JUMPI RETURNDATASIZE PUSH1 0x0 DUP1 RETURNDATACOPY RETURNDATASIZE PUSH1 0x0 REVERT JUMPDEST POP POP POP POP PUSH1 0x40 MLOAD RETURNDATASIZE PUSH1 0x1F NOT PUSH1 0x1F DUP3 ADD AND DUP3 ADD DUP1 PUSH1 0x40 MSTORE POP DUP2 ADD SWAP1 PUSH2 0x10BD SWAP2 SWAP1 PUSH2 0x2CC6 JUMP JUMPDEST SWAP1 POP DUP1 PUSH2 0x10DD JUMPI PUSH1 0x40 MLOAD PUSH4 0x12171D83 PUSH1 0xE3 SHL DUP2 MSTORE PUSH1 0x4 ADD PUSH1 0x40 MLOAD DUP1 SWAP2 SUB SWAP1 REVERT JUMPDEST PUSH32 0x85E15AEE91823036F338B40B55F10EEA0356CFB9DA506963651AC73E503F47DB PUSH1 0x4 SLOAD PUSH1 0x40 MLOAD PUSH2 0xC25 SWAP2 DUP2 MSTORE PUSH1 0x20 ADD SWAP1 JUMP JUMPDEST PUSH1 0xB SLOAD PUSH2 0x1120 PUSH3 0x15180 TIMESTAMP PUSH2 0x2D28 JUMP JUMPDEST GT PUSH2 0x113E JUMPI PUSH1 0x40 MLOAD PUSH4 0x7485C29D PUSH1 0xE0 SHL DUP2 MSTORE PUSH1 0x4 ADD PUSH1 0x40 MLOAD DUP1 SWAP2 SUB SWAP1 REVERT JUMPDEST PUSH2 0x1149 PUSH1 0xB SLOAD PUSH2 0x23F0 JUMP JUMPDEST PUSH2 0x1156 PUSH3 0x15180 TIMESTAMP PUSH2 0x2D28 JUMP JUMPDEST PUSH1 0xB SSTORE JUMP JUMPDEST PUSH1 0x0 DUP2 DUP2 MSTORE PUSH1 0x6 PUSH1 0x20 MSTORE PUSH1 0x40 DUP2 KECCAK256 PUSH1 0x3 DUP2 ADD SLOAD DUP3 SWAP2 SWAP1 PUSH1 0x1 PUSH1 0xD0 SHL SWAP1 DIV PUSH1 0xFF AND PUSH2 0x118B JUMPI POP PUSH1 0x0 SWAP4 DUP5 SWAP4 POP SWAP2 POP POP JUMP JUMPDEST PUSH1 0x3 DUP2 DUP2 ADD SLOAD PUSH1 0x1 PUSH1 0xC0 SHL SWAP1 DIV PUSH2 0xFFFF AND LT ISZERO PUSH2 0x11AE JUMPI POP PUSH1 0x0 SWAP4 DUP5 SWAP4 POP SWAP2 POP POP JUMP JUMPDEST PUSH1 0x3 DUP2 ADD SLOAD PUSH1 0x1 PUSH1 0xD8 SHL SWAP1 DIV PUSH1 0xFF AND ISZERO PUSH2 0x11CE JUMPI POP PUSH1 0x0 SWAP4 DUP5 SWAP4 POP SWAP2 POP POP JUMP JUMPDEST PUSH2 0x11DC PUSH1 0x7 PUSH3 0x15180 PUSH2 0x2D11 JUMP JUMPDEST PUSH1 0x3 DUP3 ADD SLOAD PUSH2 0x11FB SWAP2 SWAP1 PUSH1 0x1 PUSH1 0x80 SHL SWAP1 DIV PUSH1 0x1 PUSH1 0x1 PUSH1 0x40 SHL SUB AND PUSH2 0x2CFE JUMP JUMPDEST TIMESTAMP GT PUSH2 0x120D JUMPI POP PUSH1 0x0 SWAP4 DUP5 SWAP4 POP SWAP2 POP POP JUMP JUMPDEST PUSH1 0x0 DUP5 DUP2 MSTORE PUSH1 0x8 PUSH1 0x20 SWAP1 DUP2 MSTORE PUSH1 0x40 DUP1 DUP4 KECCAK256 DUP5 SLOAD PUSH1 0x1 PUSH1 0x1 PUSH1 0xA0 SHL SUB AND DUP5 MSTORE SWAP1 SWAP2 MSTORE DUP2 KECCAK256 SLOAD PUSH1 0xFF AND PUSH2 0x1250 JUMPI PUSH2 0x1243 DUP6 PUSH1 0x1 PUSH2 0xC31 JUMP JUMPDEST PUSH2 0x124D SWAP1 DUP3 PUSH2 0x2CFE JUMP JUMPDEST SWAP1 POP JUMPDEST PUSH1 0x0 DUP6 DUP2 MSTORE PUSH1 0x8 PUSH1 0x20 SWAP1 DUP2 MSTORE PUSH1 0x40 DUP1 DUP4 KECCAK256 PUSH1 0x1 DUP7 ADD SLOAD PUSH1 0x1 PUSH1 0x1 PUSH1 0xA0 SHL SUB AND DUP5 MSTORE SWAP1 SWAP2 MSTORE SWAP1 KECCAK256 SLOAD PUSH1 0xFF AND PUSH2 0x1296 JUMPI PUSH2 0x1289 DUP6 PUSH1 0x2 PUSH2 0xC31 JUMP JUMPDEST PUSH2 0x1293 SWAP1 DUP3 PUSH2 0x2CFE JUMP JUMPDEST SWAP1 POP JUMPDEST PUSH1 0x0 DUP6 DUP2 MSTORE PUSH1 0x8 PUSH1 0x20 SWAP1 DUP2 MSTORE PUSH1 0x40 DUP1 DUP4 KECCAK256 PUSH1 0x2 DUP7 ADD SLOAD PUSH1 0x1 PUSH1 0x1 PUSH1 0xA0 SHL SUB AND DUP5 MSTORE SWAP1 SWAP2 MSTORE SWAP1 KECCAK256 SLOAD PUSH1 0xFF AND PUSH2 0x12DC JUMPI PUSH2 0x12CF DUP6 PUSH1 0x3 PUSH2 0xC31 JUMP JUMPDEST PUSH2 0x12D9 SWAP1 DUP3 PUSH2 0x2CFE JUMP JUMPDEST SWAP1 POP JUMPDEST DUP1 ISZERO ISZERO SWAP6 SWAP1 SWAP5 POP SWAP3 POP POP POP JUMP JUMPDEST PUSH1 0xB SLOAD DUP2 LT PUSH2 0x130B JUMPI PUSH1 0x40 MLOAD PUSH4 0xC092543 PUSH1 0xE0 SHL DUP2 MSTORE PUSH1 0x4 ADD PUSH1 0x40 MLOAD DUP1 SWAP2 SUB SWAP1 REVERT JUMPDEST PUSH1 0x0 DUP2 DUP2 MSTORE PUSH1 0x8 PUSH1 0x20 SWAP1 DUP2 MSTORE PUSH1 0x40 DUP1 DUP4 KECCAK256 CALLER DUP5 MSTORE SWAP1 SWAP2 MSTORE SWAP1 KECCAK256 SLOAD PUSH1 0xFF AND ISZERO PUSH2 0x1346 JUMPI PUSH1 0x40 MLOAD PUSH4 0xC8D9EAB PUSH1 0xE3 SHL DUP2 MSTORE PUSH1 0x4 ADD PUSH1 0x40 MLOAD DUP1 SWAP2 SUB SWAP1 REVERT JUMPDEST PUSH1 0x0 DUP2 DUP2 MSTORE PUSH1 0x6 PUSH1 0x20 MSTORE PUSH1 0x40 SWAP1 KECCAK256 PUSH1 0x3 DUP2 ADD SLOAD PUSH1 0x1 PUSH1 0xD0 SHL SWAP1 DIV PUSH1 0xFF AND PUSH2 0x1380 JUMPI PUSH1 0x40 MLOAD PUSH4 0x9128297 PUSH1 0xE3 SHL DUP2 MSTORE PUSH1 0x4 ADD PUSH1 0x40 MLOAD DUP1 SWAP2 SUB SWAP1 REVERT JUMPDEST PUSH1 0x3 DUP2 DUP2 ADD SLOAD PUSH1 0x1 PUSH1 0xC0 SHL SWAP1 DIV PUSH2 0xFFFF AND LT ISZERO PUSH2 0x13B0 JUMPI PUSH1 0x40 MLOAD PUSH4 0xF7700743 PUSH1 0xE0 SHL DUP2 MSTORE PUSH1 0x4 ADD PUSH1 0x40 MLOAD DUP1 SWAP2 SUB SWAP1 REVERT JUMPDEST PUSH2 0x13BE PUSH1 0x7 PUSH3 0x15180 PUSH2 0x2D11 JUMP JUMPDEST PUSH1 0x3 DUP3 ADD SLOAD PUSH2 0x13DD SWAP2 SWAP1 PUSH1 0x1 PUSH1 0x80 SHL SWAP1 DIV PUSH1 0x1 PUSH1 0x1 PUSH1 0x40 SHL SUB AND PUSH2 0x2CFE JUMP JUMPDEST TIMESTAMP GT ISZERO PUSH2 0x13FD JUMPI PUSH1 0x40 MLOAD PUSH4 0x1B8709B7 PUSH1 0xE0 SHL DUP2 MSTORE PUSH1 0x4 ADD PUSH1 0x40 MLOAD DUP1 SWAP2 SUB SWAP1 REVERT JUMPDEST DUP1 SLOAD PUSH1 0x0 SWAP1 CALLER PUSH1 0x1 PUSH1 0x1 PUSH1 0xA0 SHL SUB SWAP1 SWAP2 AND SUB PUSH2 0x141B JUMPI POP PUSH1 0x1 PUSH2 0x1453 JUMP JUMPDEST PUSH1 0x1 DUP3 ADD SLOAD CALLER PUSH1 0x1 PUSH1 0x1 PUSH1 0xA0 SHL SUB SWAP1 SWAP2 AND SUB PUSH2 0x1439 JUMPI POP PUSH1 0x2 PUSH2 0x1453 JUMP JUMPDEST PUSH1 0x2 DUP3 ADD SLOAD CALLER PUSH1 0x1 PUSH1 0x1 PUSH1 0xA0 SHL SUB SWAP1 SWAP2 AND SUB PUSH2 0x1453 JUMPI POP PUSH1 0x3 JUMPDEST DUP1 PUSH1 0xFF AND PUSH1 0x0 SUB PUSH2 0x1477 JUMPI PUSH1 0x40 MLOAD PUSH4 0x9C56052B PUSH1 0xE0 SHL DUP2 MSTORE PUSH1 0x4 ADD PUSH1 0x40 MLOAD DUP1 SWAP2 SUB SWAP1 REVERT JUMPDEST PUSH1 0x0 PUSH2 0x1483 DUP5 DUP4 PUSH2 0xC31 JUMP JUMPDEST SWAP1 POP DUP1 PUSH1 0x0 SUB PUSH2 0x14A6 JUMPI PUSH1 0x40 MLOAD PUSH4 0x785EAB37 PUSH1 0xE0 SHL DUP2 MSTORE PUSH1 0x4 ADD PUSH1 0x40 MLOAD DUP1 SWAP2 SUB SWAP1 REVERT JUMPDEST DUP1 PUSH1 0x3 SLOAD LT ISZERO PUSH2 0x14C9 JUMPI PUSH1 0x40 MLOAD PUSH4 0x785EAB37 PUSH1 0xE0 SHL DUP2 MSTORE PUSH1 0x4 ADD PUSH1 0x40 MLOAD DUP1 SWAP2 SUB SWAP1 REVERT JUMPDEST PUSH1 0x0 DUP5 DUP2 MSTORE PUSH1 0x8 PUSH1 0x20 SWAP1 DUP2 MSTORE PUSH1 0x40 DUP1 DUP4 KECCAK256 CALLER DUP5 MSTORE DUP3 MSTORE DUP1 DUP4 KECCAK256 DUP1 SLOAD PUSH1 0xFF NOT AND PUSH1 0x1 SWAP1 DUP2 OR SWAP1 SWAP2 SSTORE SWAP2 DUP4 SWAP1 MSTORE DUP3 KECCAK256 SWAP1 DUP2 ADD DUP1 SLOAD SWAP2 SWAP3 DUP5 SWAP3 PUSH2 0x1513 SWAP1 DUP5 SWAP1 PUSH1 0x1 PUSH1 0x1 PUSH1 0x80 SHL SUB AND PUSH2 0x2D5D JUMP JUMPDEST SWAP3 POP PUSH2 0x100 EXP DUP2 SLOAD DUP2 PUSH1 0x1 PUSH1 0x1 PUSH1 0x80 SHL SUB MUL NOT AND SWAP1 DUP4 PUSH1 0x1 PUSH1 0x1 PUSH1 0x80 SHL SUB AND MUL OR SWAP1 SSTORE POP DUP2 PUSH1 0x3 PUSH1 0x0 DUP3 DUP3 SLOAD PUSH2 0x1549 SWAP2 SWAP1 PUSH2 0x2D4A JUMP JUMPDEST SWAP1 SWAP2 SSTORE POP POP PUSH1 0x40 MLOAD PUSH4 0xA9059CBB PUSH1 0xE0 SHL DUP2 MSTORE CALLER PUSH1 0x4 DUP3 ADD MSTORE PUSH1 0x24 DUP2 ADD DUP4 SWAP1 MSTORE PUSH1 0x0 SWAP1 PUSH32 0x0 PUSH1 0x1 PUSH1 0x1 PUSH1 0xA0 SHL SUB AND SWAP1 PUSH4 0xA9059CBB SWAP1 PUSH1 0x44 ADD PUSH1 0x20 PUSH1 0x40 MLOAD DUP1 DUP4 SUB DUP2 PUSH1 0x0 DUP8 GAS CALL ISZERO DUP1 ISZERO PUSH2 0x15BE JUMPI RETURNDATASIZE PUSH1 0x0 DUP1 RETURNDATACOPY RETURNDATASIZE PUSH1 0x0 REVERT JUMPDEST POP POP POP POP PUSH1 0x40 MLOAD RETURNDATASIZE PUSH1 0x1F NOT PUSH1 0x1F DUP3 ADD AND DUP3 ADD DUP1 PUSH1 0x40 MSTORE POP DUP2 ADD SWAP1 PUSH2 0x15E2 SWAP2 SWAP1 PUSH2 0x2CC6 JUMP JUMPDEST SWAP1 POP DUP1 PUSH2 0x1602 JUMPI PUSH1 0x40 MLOAD PUSH4 0x12171D83 PUSH1 0xE3 SHL DUP2 MSTORE PUSH1 0x4 ADD PUSH1 0x40 MLOAD DUP1 SWAP2 SUB SWAP1 REVERT JUMPDEST PUSH1 0x40 DUP1 MLOAD PUSH1 0xFF DUP7 AND DUP2 MSTORE PUSH1 0x20 DUP2 ADD DUP6 SWAP1 MSTORE SWAP1 DUP2 ADD DUP8 SWAP1 MSTORE CALLER SWAP1 PUSH32 0x338D011A22421A3389379C72DB1F2FC001C6E60C197DF7AD91CA88BB05177F58 SWAP1 PUSH1 0x60 ADD PUSH1 0x40 MLOAD DUP1 SWAP2 SUB SWAP1 LOG2 POP POP POP POP POP POP JUMP JUMPDEST PUSH1 0x5 SLOAD PUSH1 0x1 PUSH1 0x1 PUSH1 0xA0 SHL SUB AND CALLER EQ PUSH2 0x167B JUMPI PUSH1 0x40 MLOAD PUSH4 0x5FC483C5 PUSH1 0xE0 SHL DUP2 MSTORE PUSH1 0x4 ADD PUSH1 0x40 MLOAD DUP1 SWAP2 SUB SWAP1 REVERT JUMPDEST PUSH1 0x0 DUP2 DUP2 MSTORE PUSH1 0x6 PUSH1 0x20 MSTORE PUSH1 0x40 SWAP1 KECCAK256 PUSH1 0x3 DUP2 ADD SLOAD PUSH1 0x1 PUSH1 0xD0 SHL SWAP1 DIV PUSH1 0xFF AND PUSH2 0x16B5 JUMPI PUSH1 0x40 MLOAD PUSH4 0x9128297 PUSH1 0xE3 SHL DUP2 MSTORE PUSH1 0x4 ADD PUSH1 0x40 MLOAD DUP1 SWAP2 SUB SWAP1 REVERT JUMPDEST PUSH1 0x3 DUP2 DUP2 ADD SLOAD PUSH1 0x1 PUSH1 0xC0 SHL SWAP1 DIV PUSH2 0xFFFF AND LT ISZERO PUSH2 0x16E5 JUMPI PUSH1 0x40 MLOAD PUSH4 0xF7700743 PUSH1 0xE0 SHL DUP2 MSTORE PUSH1 0x4 ADD PUSH1 0x40 MLOAD DUP1 SWAP2 SUB SWAP1 REVERT JUMPDEST PUSH1 0x3 DUP2 ADD SLOAD PUSH1 0x1 PUSH1 0xD8 SHL SWAP1 DIV PUSH1 0xFF AND ISZERO PUSH2 0x1712 JUMPI PUSH1 0x40 MLOAD PUSH4 0xC8D9EAB PUSH1 0xE3 SHL DUP2 MSTORE PUSH1 0x4 ADD PUSH1 0x40 MLOAD DUP1 SWAP2 SUB SWAP1 REVERT JUMPDEST PUSH2 0x1720 PUSH1 0x7 PUSH3 0x15180 PUSH2 0x2D11 JUMP JUMPDEST PUSH1 0x3 DUP3 ADD SLOAD PUSH2 0x173F SWAP2 SWAP1 PUSH1 0x1 PUSH1 0x80 SHL SWAP1 DIV PUSH1 0x1 PUSH1 0x1 PUSH1 0x40 SHL SUB AND PUSH2 0x2CFE JUMP JUMPDEST TIMESTAMP GT PUSH2 0x175E JUMPI PUSH1 0x40 MLOAD PUSH4 0x2AFB7D3B PUSH1 0xE1 SHL DUP2 MSTORE PUSH1 0x4 ADD PUSH1 0x40 MLOAD DUP1 SWAP2 SUB SWAP1 REVERT JUMPDEST PUSH1 0x3 DUP2 ADD DUP1 SLOAD PUSH1 0xFF PUSH1 0xD8 SHL NOT AND PUSH1 0x1 PUSH1 0xD8 SHL OR SWAP1 SSTORE PUSH1 0x0 DUP3 DUP2 MSTORE PUSH1 0x8 PUSH1 0x20 SWAP1 DUP2 MSTORE PUSH1 0x40 DUP1 DUP4 KECCAK256 DUP5 SLOAD PUSH1 0x1 PUSH1 0x1 PUSH1 0xA0 SHL SUB AND DUP5 MSTORE SWAP1 SWAP2 MSTORE DUP2 KECCAK256 SLOAD PUSH1 0xFF AND PUSH2 0x17B6 JUMPI PUSH2 0x17A9 DUP4 PUSH1 0x1 PUSH2 0xC31 JUMP JUMPDEST PUSH2 0x17B3 SWAP1 DUP3 PUSH2 0x2CFE JUMP JUMPDEST SWAP1 POP JUMPDEST PUSH1 0x0 DUP4 DUP2 MSTORE PUSH1 0x8 PUSH1 0x20 SWAP1 DUP2 MSTORE PUSH1 0x40 DUP1 DUP4 KECCAK256 PUSH1 0x1 DUP7 ADD SLOAD PUSH1 0x1 PUSH1 0x1 PUSH1 0xA0 SHL SUB AND DUP5 MSTORE SWAP1 SWAP2 MSTORE SWAP1 KECCAK256 SLOAD PUSH1 0xFF AND PUSH2 0x17FC JUMPI PUSH2 0x17EF DUP4 PUSH1 0x2 PUSH2 0xC31 JUMP JUMPDEST PUSH2 0x17F9 SWAP1 DUP3 PUSH2 0x2CFE JUMP JUMPDEST SWAP1 POP JUMPDEST PUSH1 0x0 DUP4 DUP2 MSTORE PUSH1 0x8 PUSH1 0x20 SWAP1 DUP2 MSTORE PUSH1 0x40 DUP1 DUP4 KECCAK256 PUSH1 0x2 DUP7 ADD SLOAD PUSH1 0x1 PUSH1 0x1 PUSH1 0xA0 SHL SUB AND DUP5 MSTORE SWAP1 SWAP2 MSTORE SWAP1 KECCAK256 SLOAD PUSH1 0xFF AND PUSH2 0x1842 JUMPI PUSH2 0x1835 DUP4 PUSH1 0x3 PUSH2 0xC31 JUMP JUMPDEST PUSH2 0x183F SWAP1 DUP3 PUSH2 0x2CFE JUMP JUMPDEST SWAP1 POP JUMPDEST DUP1 ISZERO PUSH2 0x18B3 JUMPI DUP1 PUSH1 0x3 PUSH1 0x0 DUP3 DUP3 SLOAD PUSH2 0x185A SWAP2 SWAP1 PUSH2 0x2D4A JUMP JUMPDEST SWAP3 POP POP DUP2 SWAP1 SSTORE POP DUP1 PUSH1 0x4 PUSH1 0x0 DUP3 DUP3 SLOAD PUSH2 0x1873 SWAP2 SWAP1 PUSH2 0x2CFE JUMP JUMPDEST SWAP1 SWAP2 SSTORE POP POP PUSH1 0x40 DUP1 MLOAD DUP5 DUP2 MSTORE PUSH1 0x20 DUP2 ADD DUP4 SWAP1 MSTORE PUSH32 0x52F0789D8217D58AE6C5A915AA0D2867B067F58E8137BC30D341428AD071E28 SWAP2 ADD JUMPDEST PUSH1 0x40 MLOAD DUP1 SWAP2 SUB SWAP1 LOG1 JUMPDEST POP POP POP JUMP JUMPDEST PUSH1 0x40 MLOAD PUSH4 0x70A08231 PUSH1 0xE0 SHL DUP2 MSTORE ADDRESS PUSH1 0x4 DUP3 ADD MSTORE PUSH1 0x0 SWAP1 PUSH32 0x0 PUSH1 0x1 PUSH1 0x1 PUSH1 0xA0 SHL SUB AND SWAP1 PUSH4 0x70A08231 SWAP1 PUSH1 0x24 ADD PUSH1 0x20 PUSH1 0x40 MLOAD DUP1 DUP4 SUB DUP2 DUP7 GAS STATICCALL ISZERO DUP1 ISZERO PUSH2 0x191F JUMPI RETURNDATASIZE PUSH1 0x0 DUP1 RETURNDATACOPY RETURNDATASIZE PUSH1 0x0 REVERT JUMPDEST POP POP POP POP PUSH1 0x40 MLOAD RETURNDATASIZE PUSH1 0x1F NOT PUSH1 0x1F DUP3 ADD AND DUP3 ADD DUP1 PUSH1 0x40 MSTORE POP DUP2 ADD SWAP1 PUSH2 0x1943 SWAP2 SWAP1 PUSH2 0x2D7C JUMP JUMPDEST SWAP1 POP SWAP1 JUMP JUMPDEST PUSH1 0x5 SLOAD PUSH1 0x1 PUSH1 0x1 PUSH1 0xA0 SHL SUB AND CALLER EQ PUSH2 0x1973 JUMPI PUSH1 0x40 MLOAD PUSH4 0x5FC483C5 PUSH1 0xE0 SHL DUP2 MSTORE PUSH1 0x4 ADD PUSH1 0x40 MLOAD DUP1 SWAP2 SUB SWAP1 REVERT JUMPDEST PUSH32 0x0 PUSH1 0x1 PUSH1 0x1 PUSH1 0xA0 SHL SUB AND DUP3 PUSH1 0x1 PUSH1 0x1 PUSH1 0xA0 SHL SUB AND SUB PUSH2 0x19C5 JUMPI PUSH1 0x40 MLOAD PUSH4 0x66B83BAD PUSH1 0xE1 SHL DUP2 MSTORE PUSH1 0x4 ADD PUSH1 0x40 MLOAD DUP1 SWAP2 SUB SWAP1 REVERT JUMPDEST PUSH1 0x5 SLOAD PUSH1 0x40 MLOAD PUSH4 0xA9059CBB PUSH1 0xE0 SHL DUP2 MSTORE PUSH1 0x1 PUSH1 0x1 PUSH1 0xA0 SHL SUB SWAP2 DUP3 AND PUSH1 0x4 DUP3 ADD MSTORE PUSH1 0x24 DUP2 ADD DUP4 SWAP1 MSTORE SWAP1 DUP4 AND SWAP1 PUSH4 0xA9059CBB SWAP1 PUSH1 0x44 ADD PUSH1 0x20 PUSH1 0x40 MLOAD DUP1 DUP4 SUB DUP2 PUSH1 0x0 DUP8 GAS CALL ISZERO DUP1 ISZERO PUSH2 0x1A18 JUMPI RETURNDATASIZE PUSH1 0x0 DUP1 RETURNDATACOPY RETURNDATASIZE PUSH1 0x0 REVERT JUMPDEST POP POP POP POP PUSH1 0x40 MLOAD RETURNDATASIZE PUSH1 0x1F NOT PUSH1 0x1F DUP3 ADD AND DUP3 ADD DUP1 PUSH1 0x40 MSTORE POP DUP2 ADD SWAP1 PUSH2 0x18B3 SWAP2 SWAP1 PUSH2 0x2CC6 JUMP JUMPDEST DUP1 PUSH1 0x0 DUP1 JUMPDEST DUP3 DUP2 LT ISZERO PUSH2 0x1C74 JUMPI PUSH1 0x0 DUP6 DUP6 DUP4 DUP2 DUP2 LT PUSH2 0x1A5D JUMPI PUSH2 0x1A5D PUSH2 0x2D95 JUMP JUMPDEST SWAP1 POP PUSH1 0x20 MUL ADD CALLDATALOAD SWAP1 POP PUSH1 0xB SLOAD DUP2 LT DUP1 ISZERO PUSH2 0x1A91 JUMPI POP PUSH1 0x0 DUP2 DUP2 MSTORE PUSH1 0x8 PUSH1 0x20 SWAP1 DUP2 MSTORE PUSH1 0x40 DUP1 DUP4 KECCAK256 CALLER DUP5 MSTORE SWAP1 SWAP2 MSTORE SWAP1 KECCAK256 SLOAD PUSH1 0xFF AND ISZERO JUMPDEST ISZERO PUSH2 0x1C6B JUMPI PUSH1 0x0 DUP2 DUP2 MSTORE PUSH1 0x6 PUSH1 0x20 MSTORE PUSH1 0x40 SWAP1 KECCAK256 PUSH1 0x3 DUP2 ADD SLOAD PUSH1 0x1 PUSH1 0xD0 SHL SWAP1 DIV PUSH1 0xFF AND DUP1 ISZERO PUSH2 0x1ACE JUMPI POP PUSH1 0x3 DUP2 DUP2 ADD SLOAD PUSH1 0x1 PUSH1 0xC0 SHL SWAP1 DIV PUSH2 0xFFFF AND LT ISZERO JUMPDEST ISZERO PUSH2 0x1C69 JUMPI PUSH2 0x1AE1 PUSH1 0x7 PUSH3 0x15180 PUSH2 0x2D11 JUMP JUMPDEST PUSH1 0x3 DUP3 ADD SLOAD PUSH2 0x1B00 SWAP2 SWAP1 PUSH1 0x1 PUSH1 0x80 SHL SWAP1 DIV PUSH1 0x1 PUSH1 0x1 PUSH1 0x40 SHL SUB AND PUSH2 0x2CFE JUMP JUMPDEST TIMESTAMP GT PUSH2 0x1C69 JUMPI DUP1 SLOAD PUSH1 0x0 SWAP1 CALLER PUSH1 0x1 PUSH1 0x1 PUSH1 0xA0 SHL SUB SWAP1 SWAP2 AND SUB PUSH2 0x1B24 JUMPI POP PUSH1 0x1 PUSH2 0x1B5C JUMP JUMPDEST PUSH1 0x1 DUP3 ADD SLOAD CALLER PUSH1 0x1 PUSH1 0x1 PUSH1 0xA0 SHL SUB SWAP1 SWAP2 AND SUB PUSH2 0x1B42 JUMPI POP PUSH1 0x2 PUSH2 0x1B5C JUMP JUMPDEST PUSH1 0x2 DUP3 ADD SLOAD CALLER PUSH1 0x1 PUSH1 0x1 PUSH1 0xA0 SHL SUB SWAP1 SWAP2 AND SUB PUSH2 0x1B5C JUMPI POP PUSH1 0x3 JUMPDEST PUSH1 0xFF DUP2 AND ISZERO PUSH2 0x1C67 JUMPI PUSH1 0x0 PUSH2 0x1B71 DUP5 DUP4 PUSH2 0xC31 JUMP JUMPDEST SWAP1 POP PUSH1 0x0 DUP2 GT DUP1 ISZERO PUSH2 0x1B85 JUMPI POP DUP1 PUSH1 0x3 SLOAD LT ISZERO JUMPDEST ISZERO PUSH2 0x1C65 JUMPI PUSH1 0x0 DUP5 DUP2 MSTORE PUSH1 0x8 PUSH1 0x20 SWAP1 DUP2 MSTORE PUSH1 0x40 DUP1 DUP4 KECCAK256 CALLER DUP5 MSTORE DUP3 MSTORE DUP1 DUP4 KECCAK256 DUP1 SLOAD PUSH1 0xFF NOT AND PUSH1 0x1 SWAP1 DUP2 OR SWAP1 SWAP2 SSTORE SWAP2 DUP4 SWAP1 MSTORE DUP3 KECCAK256 SWAP1 DUP2 ADD DUP1 SLOAD SWAP2 SWAP3 DUP5 SWAP3 PUSH2 0x1BD4 SWAP1 DUP5 SWAP1 PUSH1 0x1 PUSH1 0x1 PUSH1 0x80 SHL SUB AND PUSH2 0x2D5D JUMP JUMPDEST SWAP3 POP PUSH2 0x100 EXP DUP2 SLOAD DUP2 PUSH1 0x1 PUSH1 0x1 PUSH1 0x80 SHL SUB MUL NOT AND SWAP1 DUP4 PUSH1 0x1 PUSH1 0x1 PUSH1 0x80 SHL SUB AND MUL OR SWAP1 SSTORE POP DUP2 PUSH1 0x3 PUSH1 0x0 DUP3 DUP3 SLOAD PUSH2 0x1C0A SWAP2 SWAP1 PUSH2 0x2D4A JUMP JUMPDEST SWAP1 SWAP2 SSTORE POP PUSH2 0x1C1A SWAP1 POP DUP3 DUP9 PUSH2 0x2CFE JUMP JUMPDEST PUSH1 0x40 DUP1 MLOAD PUSH1 0xFF DUP7 AND DUP2 MSTORE PUSH1 0x20 DUP2 ADD DUP6 SWAP1 MSTORE SWAP1 DUP2 ADD DUP8 SWAP1 MSTORE SWAP1 SWAP8 POP CALLER SWAP1 PUSH32 0x338D011A22421A3389379C72DB1F2FC001C6E60C197DF7AD91CA88BB05177F58 SWAP1 PUSH1 0x60 ADD PUSH1 0x40 MLOAD DUP1 SWAP2 SUB SWAP1 LOG2 POP JUMPDEST POP JUMPDEST POP JUMPDEST POP JUMPDEST POP PUSH1 0x1 ADD PUSH2 0x1A41 JUMP JUMPDEST POP DUP1 ISZERO PUSH2 0x1D31 JUMPI PUSH1 0x40 MLOAD PUSH4 0xA9059CBB PUSH1 0xE0 SHL DUP2 MSTORE CALLER PUSH1 0x4 DUP3 ADD MSTORE PUSH1 0x24 DUP2 ADD DUP3 SWAP1 MSTORE PUSH1 0x0 SWAP1 PUSH32 0x0 PUSH1 0x1 PUSH1 0x1 PUSH1 0xA0 SHL SUB AND SWAP1 PUSH4 0xA9059CBB SWAP1 PUSH1 0x44 ADD PUSH1 0x20 PUSH1 0x40 MLOAD DUP1 DUP4 SUB DUP2 PUSH1 0x0 DUP8 GAS CALL ISZERO DUP1 ISZERO PUSH2 0x1CEB JUMPI RETURNDATASIZE PUSH1 0x0 DUP1 RETURNDATACOPY RETURNDATASIZE PUSH1 0x0 REVERT JUMPDEST POP POP POP POP PUSH1 0x40 MLOAD RETURNDATASIZE PUSH1 0x1F NOT PUSH1 0x1F DUP3 ADD AND DUP3 ADD DUP1 PUSH1 0x40 MSTORE POP DUP2 ADD SWAP1 PUSH2 0x1D0F SWAP2 SWAP1 PUSH2 0x2CC6 JUMP JUMPDEST SWAP1 POP DUP1 PUSH2 0x1D2F JUMPI PUSH1 0x40 MLOAD PUSH4 0x12171D83 PUSH1 0xE3 SHL DUP2 MSTORE PUSH1 0x4 ADD PUSH1 0x40 MLOAD DUP1 SWAP2 SUB SWAP1 REVERT JUMPDEST POP JUMPDEST POP POP POP POP JUMP JUMPDEST PUSH1 0x0 DUP1 PUSH1 0x0 PUSH1 0xB SLOAD DUP5 LT PUSH2 0x1D53 JUMPI POP PUSH1 0x0 SWAP2 POP DUP2 SWAP1 POP DUP1 PUSH2 0x1ECB JUMP JUMPDEST PUSH1 0x0 DUP5 DUP2 MSTORE PUSH1 0x8 PUSH1 0x20 SWAP1 DUP2 MSTORE PUSH1 0x40 DUP1 DUP4 KECCAK256 PUSH1 0x1 PUSH1 0x1 PUSH1 0xA0 SHL SUB DUP10 AND DUP5 MSTORE SWAP1 SWAP2 MSTORE SWAP1 KECCAK256 SLOAD PUSH1 0xFF AND ISZERO PUSH2 0x1D8C JUMPI POP PUSH1 0x0 SWAP2 POP DUP2 SWAP1 POP DUP1 PUSH2 0x1ECB JUMP JUMPDEST PUSH1 0x0 DUP5 DUP2 MSTORE PUSH1 0x6 PUSH1 0x20 MSTORE PUSH1 0x40 SWAP1 KECCAK256 PUSH1 0x3 DUP2 ADD SLOAD PUSH1 0x1 PUSH1 0xD0 SHL SWAP1 DIV PUSH1 0xFF AND PUSH2 0x1DBE JUMPI PUSH1 0x0 DUP1 PUSH1 0x0 SWAP4 POP SWAP4 POP SWAP4 POP POP PUSH2 0x1ECB JUMP JUMPDEST PUSH1 0x3 DUP2 DUP2 ADD SLOAD PUSH1 0x1 PUSH1 0xC0 SHL SWAP1 DIV PUSH2 0xFFFF AND LT ISZERO PUSH2 0x1DE6 JUMPI PUSH1 0x0 DUP1 PUSH1 0x0 SWAP4 POP SWAP4 POP SWAP4 POP POP PUSH2 0x1ECB JUMP JUMPDEST PUSH2 0x1DF4 PUSH1 0x7 PUSH3 0x15180 PUSH2 0x2D11 JUMP JUMPDEST PUSH1 0x3 DUP3 ADD SLOAD PUSH2 0x1E13 SWAP2 SWAP1 PUSH1 0x1 PUSH1 0x80 SHL SWAP1 DIV PUSH1 0x1 PUSH1 0x1 PUSH1 0x40 SHL SUB AND PUSH2 0x2CFE JUMP JUMPDEST TIMESTAMP GT ISZERO PUSH2 0x1E2B JUMPI PUSH1 0x0 DUP1 PUSH1 0x0 SWAP4 POP SWAP4 POP SWAP4 POP POP PUSH2 0x1ECB JUMP JUMPDEST DUP1 SLOAD PUSH1 0x1 PUSH1 0x1 PUSH1 0xA0 SHL SUB DUP1 DUP9 AND SWAP2 AND SUB PUSH2 0x1E5A JUMPI PUSH1 0x1 PUSH2 0x1E4C DUP7 PUSH1 0x1 PUSH2 0xC31 JUMP JUMPDEST PUSH1 0x1 SWAP4 POP SWAP4 POP SWAP4 POP POP PUSH2 0x1ECB JUMP JUMPDEST PUSH1 0x1 DUP2 ADD SLOAD PUSH1 0x1 PUSH1 0x1 PUSH1 0xA0 SHL SUB DUP1 DUP9 AND SWAP2 AND SUB PUSH2 0x1E8C JUMPI PUSH1 0x1 PUSH2 0x1E7E DUP7 PUSH1 0x2 PUSH2 0xC31 JUMP JUMPDEST PUSH1 0x2 SWAP4 POP SWAP4 POP SWAP4 POP POP PUSH2 0x1ECB JUMP JUMPDEST PUSH1 0x2 DUP2 ADD SLOAD PUSH1 0x1 PUSH1 0x1 PUSH1 0xA0 SHL SUB DUP1 DUP9 AND SWAP2 AND SUB PUSH2 0x1EBE JUMPI PUSH1 0x1 PUSH2 0x1EB0 DUP7 PUSH1 0x3 PUSH2 0xC31 JUMP JUMPDEST PUSH1 0x3 SWAP4 POP SWAP4 POP SWAP4 POP POP PUSH2 0x1ECB JUMP JUMPDEST PUSH1 0x0 DUP1 PUSH1 0x0 SWAP4 POP SWAP4 POP SWAP4 POP POP JUMPDEST SWAP3 POP SWAP3 POP SWAP3 JUMP JUMPDEST PUSH2 0x1EDA PUSH2 0x29BA JUMP JUMPDEST PUSH2 0x1EE2 PUSH2 0x29BA JUMP JUMPDEST PUSH2 0x1EEA PUSH2 0x29BA JUMP JUMPDEST PUSH1 0x0 DUP5 DUP2 MSTORE PUSH1 0x7 PUSH1 0x20 SWAP1 DUP2 MSTORE PUSH1 0x40 DUP1 DUP4 KECCAK256 PUSH1 0x6 SWAP1 SWAP3 MSTORE SWAP1 SWAP2 KECCAK256 PUSH1 0x3 DUP3 ADD SLOAD PUSH1 0x1 PUSH1 0x90 SHL SWAP1 DIV PUSH1 0xFF AND ISZERO PUSH2 0x1F75 JUMPI DUP2 SLOAD PUSH1 0x1 PUSH1 0x1 PUSH1 0xA0 SHL SUB DUP1 DUP3 AND DUP8 MSTORE PUSH1 0x1 DUP5 ADD SLOAD DUP1 DUP3 AND PUSH1 0x20 DUP1 DUP11 ADD SWAP2 SWAP1 SWAP2 MSTORE PUSH1 0x2 DUP7 ADD SLOAD SWAP3 DUP4 AND PUSH1 0x40 DUP1 DUP12 ADD SWAP2 SWAP1 SWAP2 MSTORE PUSH4 0xFFFFFFFF PUSH1 0x1 PUSH1 0xA0 SHL SWAP6 DUP7 SWAP1 DIV DUP2 AND DUP11 MSTORE SWAP3 DUP6 SWAP1 DIV DUP4 AND SWAP2 DUP10 ADD SWAP2 SWAP1 SWAP2 MSTORE SWAP3 SWAP1 SWAP2 DIV AND SWAP1 DUP6 ADD MSTORE PUSH2 0x1F9C JUMP JUMPDEST DUP1 SLOAD PUSH1 0x1 PUSH1 0x1 PUSH1 0xA0 SHL SUB SWAP1 DUP2 AND DUP7 MSTORE PUSH1 0x1 DUP3 ADD SLOAD DUP2 AND PUSH1 0x20 DUP8 ADD MSTORE PUSH1 0x2 DUP3 ADD SLOAD AND PUSH1 0x40 DUP7 ADD MSTORE JUMPDEST PUSH1 0x3 DUP2 ADD SLOAD PUSH1 0x1 PUSH1 0xD0 SHL SWAP1 DIV PUSH1 0xFF AND DUP1 ISZERO PUSH2 0x1FC6 JUMPI POP PUSH1 0x3 DUP2 DUP2 ADD SLOAD PUSH1 0x1 PUSH1 0xC0 SHL SWAP1 DIV PUSH2 0xFFFF AND LT ISZERO JUMPDEST ISZERO PUSH2 0x1FF9 JUMPI PUSH2 0x1FD6 DUP7 PUSH1 0x1 PUSH2 0xC31 JUMP JUMPDEST DUP4 MSTORE PUSH2 0x1FE3 DUP7 PUSH1 0x2 PUSH2 0xC31 JUMP JUMPDEST PUSH1 0x20 DUP5 ADD MSTORE PUSH2 0x1FF3 DUP7 PUSH1 0x3 PUSH2 0xC31 JUMP JUMPDEST PUSH1 0x40 DUP5 ADD MSTORE JUMPDEST POP POP SWAP2 SWAP4 SWAP1 SWAP3 POP JUMP JUMPDEST PUSH1 0x40 MLOAD PUSH4 0x23B872DD PUSH1 0xE0 SHL DUP2 MSTORE CALLER PUSH1 0x4 DUP3 ADD MSTORE ADDRESS PUSH1 0x24 DUP3 ADD MSTORE PUSH8 0x16345785D8A0000 PUSH1 0x44 DUP3 ADD MSTORE PUSH1 0x0 SWAP1 DUP2 SWAP1 PUSH1 0x1 PUSH1 0x1 PUSH1 0xA0 SHL SUB PUSH32 0x0 AND SWAP1 PUSH4 0x23B872DD SWAP1 PUSH1 0x64 ADD PUSH1 0x20 PUSH1 0x40 MLOAD DUP1 DUP4 SUB DUP2 PUSH1 0x0 DUP8 GAS CALL ISZERO DUP1 ISZERO PUSH2 0x2081 JUMPI RETURNDATASIZE PUSH1 0x0 DUP1 RETURNDATACOPY RETURNDATASIZE PUSH1 0x0 REVERT JUMPDEST POP POP POP POP PUSH1 0x40 MLOAD RETURNDATASIZE PUSH1 0x1F NOT PUSH1 0x1F DUP3 ADD AND DUP3 ADD DUP1 PUSH1 0x40 MSTORE POP DUP2 ADD SWAP1 PUSH2 0x20A5 SWAP2 SWAP1 PUSH2 0x2CC6 JUMP JUMPDEST SWAP1 POP DUP1 PUSH2 0x20C5 JUMPI PUSH1 0x40 MLOAD PUSH4 0x12171D83 PUSH1 0xE3 SHL DUP2 MSTORE PUSH1 0x4 ADD PUSH1 0x40 MLOAD DUP1 SWAP2 SUB SWAP1 REVERT JUMPDEST PUSH1 0x2 DUP1 SLOAD PUSH1 0x1 ADD SWAP1 SSTORE PUSH1 0x0 PUSH2 0x20DD PUSH3 0x15180 TIMESTAMP PUSH2 0x2D28 JUMP JUMPDEST PUSH1 0x40 DUP1 MLOAD PUSH1 0xC0 DUP2 ADD DUP3 MSTORE CALLER DUP2 MSTORE PUSH1 0x1 PUSH1 0x1 PUSH1 0x40 SHL SUB TIMESTAMP DUP2 AND PUSH1 0x20 DUP1 DUP5 ADD SWAP2 DUP3 MSTORE PUSH1 0x0 DUP5 DUP7 ADD DUP2 DUP2 MSTORE PUSH1 0x60 DUP7 ADD DUP3 DUP2 MSTORE PUSH1 0x80 DUP8 ADD DUP4 DUP2 MSTORE PUSH1 0xA0 DUP9 ADD DUP5 DUP2 MSTORE PUSH1 0x2 SLOAD DUP6 MSTORE PUSH1 0x1 DUP1 DUP8 MSTORE DUP11 DUP7 KECCAK256 SWAP10 MLOAD DUP11 SLOAD SWAP9 MLOAD SWAP6 MLOAD PUSH4 0xFFFFFFFF AND PUSH1 0x1 PUSH1 0xE0 SHL MUL PUSH1 0x1 PUSH1 0x1 PUSH1 0xE0 SHL SUB SWAP7 SWAP1 SWAP11 AND PUSH1 0x1 PUSH1 0xA0 SHL MUL PUSH1 0x1 PUSH1 0x1 PUSH1 0xE0 SHL SUB NOT SWAP1 SWAP10 AND PUSH1 0x1 PUSH1 0x1 PUSH1 0xA0 SHL SUB SWAP2 SWAP1 SWAP2 AND OR SWAP8 SWAP1 SWAP8 OR SWAP4 SWAP1 SWAP4 AND SWAP7 SWAP1 SWAP7 OR DUP8 SSTORE MLOAD SWAP6 SWAP1 SWAP4 ADD DUP1 SLOAD SWAP5 MLOAD SWAP4 MLOAD ISZERO ISZERO PUSH4 0x1000000 MUL PUSH4 0xFF000000 NOT SWAP5 ISZERO ISZERO PUSH3 0x10000 MUL PUSH3 0xFFFFFF NOT SWAP1 SWAP7 AND PUSH2 0xFFFF SWAP8 SWAP1 SWAP8 AND SWAP7 SWAP1 SWAP7 OR SWAP5 SWAP1 SWAP5 OR SWAP3 SWAP1 SWAP3 AND SWAP4 SWAP1 SWAP4 OR SWAP1 SWAP2 SSTORE DUP4 DUP2 MSTORE PUSH1 0x7 SWAP1 SWAP2 MSTORE SWAP1 DUP2 KECCAK256 PUSH1 0x3 DUP2 ADD DUP1 SLOAD SWAP4 SWAP5 POP SWAP1 SWAP3 PUSH8 0x16345785D8A0000 SWAP3 SWAP1 PUSH2 0x21EC SWAP1 DUP5 SWAP1 PUSH1 0x1 PUSH1 0x1 PUSH1 0x80 SHL SUB AND PUSH2 0x2D5D JUMP JUMPDEST SWAP3 POP PUSH2 0x100 EXP DUP2 SLOAD DUP2 PUSH1 0x1 PUSH1 0x1 PUSH1 0x80 SHL SUB MUL NOT AND SWAP1 DUP4 PUSH1 0x1 PUSH1 0x1 PUSH1 0x80 SHL SUB AND MUL OR SWAP1 SSTORE POP PUSH8 0x16345785D8A0000 PUSH1 0x3 PUSH1 0x0 DUP3 DUP3 SLOAD PUSH2 0x222A SWAP2 SWAP1 PUSH2 0x2CFE JUMP JUMPDEST SWAP1 SWAP2 SSTORE POP POP PUSH1 0x2 SLOAD PUSH1 0x40 DUP1 MLOAD SWAP2 DUP3 MSTORE PUSH1 0x20 DUP3 ADD DUP5 SWAP1 MSTORE CALLER SWAP2 PUSH32 0x2EBC740A82C0C6454A29C8AA9DB57C66257E2F17D38A783C83C83DD49F52E0FB SWAP2 ADD PUSH1 0x40 MLOAD DUP1 SWAP2 SUB SWAP1 LOG2 PUSH1 0x2 SLOAD SWAP4 POP POP POP POP SWAP1 JUMP JUMPDEST PUSH1 0x5 SLOAD PUSH1 0x1 PUSH1 0x1 PUSH1 0xA0 SHL SUB AND CALLER EQ PUSH2 0x22A3 JUMPI PUSH1 0x40 MLOAD PUSH4 0x5FC483C5 PUSH1 0xE0 SHL DUP2 MSTORE PUSH1 0x4 ADD PUSH1 0x40 MLOAD DUP1 SWAP2 SUB SWAP1 REVERT JUMPDEST PUSH1 0xB SLOAD DUP2 LT PUSH2 0x22C5 JUMPI PUSH1 0x40 MLOAD PUSH4 0x2CAA05B PUSH1 0xE4 SHL DUP2 MSTORE PUSH1 0x4 ADD PUSH1 0x40 MLOAD DUP1 SWAP2 SUB SWAP1 REVERT JUMPDEST DUP2 DUP2 LT ISZERO PUSH2 0x22E6 JUMPI PUSH1 0x40 MLOAD PUSH4 0x561CE9BB PUSH1 0xE0 SHL DUP2 MSTORE PUSH1 0x4 ADD PUSH1 0x40 MLOAD DUP1 SWAP2 SUB SWAP1 REVERT JUMPDEST PUSH1 0xA PUSH2 0x22F2 DUP4 DUP4 PUSH2 0x2D4A JUMP JUMPDEST GT ISZERO PUSH2 0x2311 JUMPI PUSH1 0x40 MLOAD PUSH4 0x18C86B39 PUSH1 0xE1 SHL DUP2 MSTORE PUSH1 0x4 ADD PUSH1 0x40 MLOAD DUP1 SWAP2 SUB SWAP1 REVERT JUMPDEST DUP2 JUMPDEST DUP2 DUP2 GT PUSH2 0x18B3 JUMPI PUSH1 0x0 DUP2 DUP2 MSTORE PUSH1 0x7 PUSH1 0x20 MSTORE PUSH1 0x40 SWAP1 KECCAK256 DUP1 SLOAD PUSH1 0x1 PUSH1 0x1 PUSH1 0xE0 SHL SUB NOT SWAP1 DUP2 AND DUP3 SSTORE PUSH1 0x1 DUP1 DUP4 ADD DUP1 SLOAD DUP4 AND SWAP1 SSTORE PUSH1 0x2 DUP4 ADD DUP1 SLOAD SWAP1 SWAP3 AND SWAP1 SWAP2 SSTORE PUSH1 0x3 SWAP1 SWAP2 ADD DUP1 SLOAD PUSH1 0x1 PUSH1 0x1 PUSH1 0x98 SHL SUB NOT AND SWAP1 SSTORE ADD PUSH2 0x2313 JUMP JUMPDEST PUSH2 0x2370 PUSH2 0x29BA JUMP JUMPDEST PUSH2 0x2378 PUSH2 0x29BA JUMP JUMPDEST PUSH2 0x2380 PUSH2 0x29BA JUMP JUMPDEST PUSH1 0xB SLOAD PUSH1 0x40 MLOAD PUSH4 0xC3B07E21 PUSH1 0xE0 SHL DUP2 MSTORE PUSH1 0x4 DUP2 ADD SWAP2 SWAP1 SWAP2 MSTORE ADDRESS SWAP1 PUSH4 0xC3B07E21 SWAP1 PUSH1 0x24 ADD PUSH2 0x120 PUSH1 0x40 MLOAD DUP1 DUP4 SUB DUP2 DUP7 GAS STATICCALL ISZERO DUP1 ISZERO PUSH2 0x23C1 JUMPI RETURNDATASIZE PUSH1 0x0 DUP1 RETURNDATACOPY RETURNDATASIZE PUSH1 0x0 REVERT JUMPDEST POP POP POP POP PUSH1 0x40 MLOAD RETURNDATASIZE PUSH1 0x1F NOT PUSH1 0x1F DUP3 ADD AND DUP3 ADD DUP1 PUSH1 0x40 MSTORE POP DUP2 ADD SWAP1 PUSH2 0x23E5 SWAP2 SWAP1 PUSH2 0x2E3B JUMP JUMPDEST SWAP3 POP SWAP3 POP SWAP3 POP SWAP1 SWAP2 SWAP3 JUMP JUMPDEST PUSH1 0x0 DUP2 DUP2 MSTORE PUSH1 0x7 PUSH1 0x20 MSTORE PUSH1 0x40 SWAP1 KECCAK256 PUSH1 0x3 DUP2 ADD SLOAD PUSH1 0x1 PUSH1 0x90 SHL SWAP1 DIV PUSH1 0xFF AND PUSH2 0x262F JUMPI PUSH1 0x3 DUP2 DUP2 ADD DUP1 SLOAD PUSH1 0x1 PUSH1 0x90 SHL PUSH1 0xFF PUSH1 0x90 SHL NOT DUP3 AND OR DUP3 SSTORE PUSH1 0x0 DUP6 DUP2 MSTORE PUSH1 0x6 PUSH1 0x20 MSTORE PUSH1 0x40 SWAP1 KECCAK256 DUP1 DUP5 ADD DUP1 SLOAD PUSH1 0x1 PUSH1 0x1 PUSH1 0x80 SHL SUB SWAP1 SWAP4 AND PUSH1 0x1 PUSH1 0x1 PUSH1 0x80 SHL SUB NOT DUP5 AND DUP2 OR DUP3 SSTORE DUP5 SLOAD PUSH1 0x1 PUSH1 0xD0 SHL PUSH26 0xFFFF0000000000000000FFFFFFFFFFFFFFFFFFFFFFFFFFFFFFFF NOT SWAP1 SWAP6 AND SWAP1 SWAP2 OR PUSH1 0x1 PUSH1 0x80 SHL SWAP2 DUP3 SWAP1 DIV PUSH2 0xFFFF SWAP1 DUP2 AND PUSH1 0x1 PUSH1 0xC0 SHL MUL SWAP2 SWAP1 SWAP2 OR PUSH11 0xFF0000FFFFFFFFFFFFFFFF PUSH1 0x80 SHL NOT AND TIMESTAMP PUSH1 0x1 PUSH1 0x1 PUSH1 0x40 SHL SUB AND DUP4 MUL OR SWAP5 SWAP1 SWAP5 OR SWAP1 SWAP2 SSTORE SWAP3 SLOAD SWAP1 SWAP4 SWAP3 SWAP1 DIV AND LT PUSH2 0x25B1 JUMPI DUP2 SLOAD DUP2 SLOAD PUSH1 0x1 PUSH1 0x1 PUSH1 0xA0 SHL SUB SWAP2 DUP3 AND PUSH1 0x1 PUSH1 0x1 PUSH1 0xA0 SHL SUB NOT SWAP2 DUP3 AND OR DUP4 SSTORE PUSH1 0x1 DUP1 DUP6 ADD SLOAD SWAP1 DUP5 ADD DUP1 SLOAD SWAP2 DUP5 AND SWAP2 DUP4 AND SWAP2 SWAP1 SWAP2 OR SWAP1 SSTORE PUSH1 0x2 DUP1 DUP6 ADD SLOAD SWAP1 DUP5 ADD DUP1 SLOAD SWAP2 SWAP1 SWAP4 AND SWAP2 AND OR SWAP1 SSTORE PUSH1 0x3 DUP3 ADD SLOAD PUSH1 0x1 PUSH1 0x1 PUSH1 0x80 SHL SUB AND PUSH1 0x0 PUSH2 0x2710 PUSH2 0x2531 PUSH2 0x5DC DUP5 PUSH2 0x2D11 JUMP JUMPDEST PUSH2 0x253B SWAP2 SWAP1 PUSH2 0x2D28 JUMP JUMPDEST PUSH2 0x2710 PUSH2 0x254A PUSH2 0x9C4 DUP6 PUSH2 0x2D11 JUMP JUMPDEST PUSH2 0x2554 SWAP2 SWAP1 PUSH2 0x2D28 JUMP JUMPDEST PUSH2 0x2710 PUSH2 0x2563 PUSH2 0xBB8 DUP7 PUSH2 0x2D11 JUMP JUMPDEST PUSH2 0x256D SWAP2 SWAP1 PUSH2 0x2D28 JUMP JUMPDEST PUSH2 0x2577 SWAP2 SWAP1 PUSH2 0x2CFE JUMP JUMPDEST PUSH2 0x2581 SWAP2 SWAP1 PUSH2 0x2CFE JUMP JUMPDEST SWAP1 POP PUSH1 0x0 PUSH2 0x258F DUP3 DUP5 PUSH2 0x2D4A JUMP JUMPDEST SWAP1 POP DUP1 PUSH1 0x4 PUSH1 0x0 DUP3 DUP3 SLOAD PUSH2 0x25A3 SWAP2 SWAP1 PUSH2 0x2CFE JUMP JUMPDEST SWAP1 SWAP2 SSTORE POP PUSH2 0x25DA SWAP4 POP POP POP POP JUMP JUMPDEST PUSH1 0x3 DUP3 ADD SLOAD PUSH1 0x4 DUP1 SLOAD PUSH1 0x1 PUSH1 0x1 PUSH1 0x80 SHL SUB SWAP1 SWAP3 AND SWAP2 PUSH1 0x0 SWAP1 PUSH2 0x25D4 SWAP1 DUP5 SWAP1 PUSH2 0x2CFE JUMP JUMPDEST SWAP1 SWAP2 SSTORE POP POP JUMPDEST PUSH1 0x3 DUP3 ADD SLOAD PUSH1 0x40 DUP1 MLOAD DUP6 DUP2 MSTORE PUSH1 0x1 PUSH1 0x1 PUSH1 0x80 SHL SUB DUP4 AND PUSH1 0x20 DUP3 ADD MSTORE PUSH1 0x1 PUSH1 0x80 SHL SWAP1 SWAP3 DIV PUSH2 0xFFFF AND SWAP1 DUP3 ADD MSTORE PUSH32 0xC7F3678D2F7A354FA81D27B85B8700A191613FE6D8CFD7A800B0567CB9996C4F SWAP1 PUSH1 0x60 ADD PUSH2 0x18AA JUMP JUMPDEST POP POP JUMP JUMPDEST PUSH1 0x0 PUSH1 0x1E PUSH1 0xB SLOAD GT PUSH2 0x2646 JUMPI PUSH1 0x0 PUSH2 0x2655 JUMP JUMPDEST PUSH1 0x1E PUSH1 0xB SLOAD PUSH2 0x2655 SWAP2 SWAP1 PUSH2 0x2D4A JUMP JUMPDEST SWAP1 POP DUP1 PUSH1 0xC SLOAD LT ISZERO PUSH2 0x26F2 JUMPI PUSH1 0x0 PUSH1 0xC SLOAD PUSH1 0x5 PUSH2 0x2672 SWAP2 SWAP1 PUSH2 0x2CFE JUMP JUMPDEST DUP3 LT PUSH2 0x268B JUMPI PUSH1 0xC SLOAD PUSH2 0x2686 SWAP1 PUSH1 0x5 PUSH2 0x2CFE JUMP JUMPDEST PUSH2 0x268D JUMP JUMPDEST DUP2 JUMPDEST PUSH1 0xC SLOAD SWAP1 SWAP2 POP JUMPDEST DUP2 DUP2 LT ISZERO PUSH2 0x26EA JUMPI PUSH1 0x0 DUP2 DUP2 MSTORE PUSH1 0x7 PUSH1 0x20 MSTORE PUSH1 0x40 SWAP1 KECCAK256 DUP1 SLOAD PUSH1 0x1 PUSH1 0x1 PUSH1 0xE0 SHL SUB NOT SWAP1 DUP2 AND DUP3 SSTORE PUSH1 0x1 DUP1 DUP4 ADD DUP1 SLOAD DUP4 AND SWAP1 SSTORE PUSH1 0x2 DUP4 ADD DUP1 SLOAD SWAP1 SWAP3 AND SWAP1 SWAP2 SSTORE PUSH1 0x3 SWAP1 SWAP2 ADD DUP1 SLOAD PUSH1 0x1 PUSH1 0x1 PUSH1 0x98 SHL SUB NOT AND SWAP1 SSTORE ADD PUSH2 0x2694 JUMP JUMPDEST POP POP PUSH1 0xC DUP2 SWAP1 SSTORE JUMPDEST POP JUMP JUMPDEST PUSH1 0x0 DUP5 DUP2 MSTORE PUSH1 0x7 PUSH1 0x20 SWAP1 DUP2 MSTORE PUSH1 0x40 DUP1 DUP4 KECCAK256 PUSH1 0xA DUP4 MSTORE DUP2 DUP5 KECCAK256 PUSH1 0x1 PUSH1 0x1 PUSH1 0xA0 SHL SUB DUP9 AND DUP6 MSTORE SWAP1 SWAP3 MSTORE SWAP1 SWAP2 KECCAK256 SLOAD PUSH1 0xFF AND PUSH2 0x27AF JUMPI PUSH1 0x0 DUP6 DUP2 MSTORE PUSH1 0xA PUSH1 0x20 SWAP1 DUP2 MSTORE PUSH1 0x40 DUP1 DUP4 KECCAK256 PUSH1 0x1 PUSH1 0x1 PUSH1 0xA0 SHL SUB DUP9 AND DUP5 MSTORE SWAP1 SWAP2 MSTORE DUP2 KECCAK256 DUP1 SLOAD PUSH1 0xFF NOT AND PUSH1 0x1 OR SWAP1 SSTORE PUSH1 0x3 DUP3 ADD SLOAD PUSH2 0xFFFF PUSH1 0x1 PUSH1 0x80 SHL SWAP1 SWAP2 DIV AND SWAP1 SUB PUSH2 0x2786 JUMPI PUSH1 0x3 DUP2 ADD DUP1 SLOAD PUSH2 0xFFFF PUSH1 0x80 SHL NOT AND PUSH1 0x1 PUSH1 0x80 SHL OR SWAP1 SSTORE PUSH2 0x27AF JUMP JUMPDEST PUSH1 0x3 DUP2 ADD DUP1 SLOAD PUSH1 0x1 PUSH2 0xFFFF PUSH1 0x1 PUSH1 0x80 SHL DUP1 DUP5 DIV DUP3 AND SWAP3 SWAP1 SWAP3 ADD AND MUL PUSH2 0xFFFF PUSH1 0x80 SHL NOT SWAP1 SWAP2 AND OR SWAP1 SSTORE JUMPDEST PUSH1 0x40 DUP1 MLOAD PUSH1 0x60 DUP2 ADD DUP3 MSTORE PUSH1 0x1 PUSH1 0x1 PUSH1 0xA0 SHL SUB DUP7 AND DUP2 MSTORE PUSH4 0xFFFFFFFF DUP1 DUP7 AND PUSH1 0x20 DUP4 ADD DUP2 SWAP1 MSTORE DUP6 DUP3 AND SWAP4 DUP4 ADD SWAP4 SWAP1 SWAP4 MSTORE DUP4 SLOAD SWAP2 SWAP3 PUSH1 0x1 PUSH1 0xA0 SHL SWAP1 SWAP3 DIV AND LT ISZERO PUSH2 0x289A JUMPI PUSH1 0x1 DUP3 ADD DUP1 SLOAD PUSH1 0x2 DUP5 ADD DUP1 SLOAD PUSH1 0x1 PUSH1 0x1 PUSH1 0xA0 SHL SUB DUP1 DUP5 AND PUSH1 0x1 PUSH1 0x1 PUSH1 0xC0 SHL SUB NOT SWAP3 DUP4 AND OR PUSH1 0x1 PUSH1 0xA0 SHL DUP1 DUP7 DIV PUSH4 0xFFFFFFFF SWAP1 DUP2 AND DUP3 MUL SWAP3 SWAP1 SWAP3 OR PUSH4 0xFFFFFFFF PUSH1 0xC0 SHL NOT SWAP1 DUP2 AND PUSH1 0x1 PUSH1 0xC0 SHL DUP1 DUP10 DIV DUP6 AND DUP2 MUL SWAP2 SWAP1 SWAP2 OR SWAP1 SWAP7 SSTORE DUP10 SLOAD DUP1 DUP6 AND SWAP8 DUP7 AND SWAP8 SWAP1 SWAP8 OR DUP3 DUP9 DIV DUP5 AND DUP4 MUL OR DUP2 AND DUP7 DUP9 DIV DUP5 AND DUP8 MUL OR SWAP1 SWAP8 SSTORE DUP8 MLOAD PUSH1 0x20 DUP10 ADD MLOAD PUSH1 0x40 DUP11 ADD MLOAD SWAP2 SWAP1 SWAP5 AND SWAP7 SWAP1 SWAP5 AND SWAP6 SWAP1 SWAP6 OR SWAP2 DUP2 AND SWAP1 SWAP5 MUL OR SWAP1 SWAP4 AND SWAP3 SWAP1 SWAP2 AND MUL OR DUP3 SSTORE PUSH2 0x29B2 JUMP JUMPDEST PUSH1 0x1 DUP3 ADD SLOAD PUSH4 0xFFFFFFFF PUSH1 0x1 PUSH1 0xA0 SHL SWAP1 SWAP2 DIV DUP2 AND SWAP1 DUP6 AND GT ISZERO PUSH2 0x293E JUMPI PUSH1 0x1 DUP3 ADD DUP1 SLOAD PUSH1 0x2 DUP5 ADD DUP1 SLOAD PUSH1 0x1 PUSH1 0xC0 SHL DUP1 DUP5 DIV PUSH4 0xFFFFFFFF SWAP1 DUP2 AND DUP3 MUL PUSH4 0xFFFFFFFF PUSH1 0xC0 SHL NOT PUSH1 0x1 PUSH1 0xA0 SHL DUP1 DUP9 DIV DUP5 AND DUP2 MUL PUSH1 0x1 PUSH1 0x1 PUSH1 0xC0 SHL SUB NOT SWAP7 DUP8 AND PUSH1 0x1 PUSH1 0x1 PUSH1 0xA0 SHL SUB DUP1 DUP12 AND SWAP2 SWAP1 SWAP2 OR SWAP2 SWAP1 SWAP2 OR DUP4 AND SWAP4 SWAP1 SWAP4 OR SWAP1 SWAP7 SSTORE DUP9 MLOAD PUSH1 0x20 DUP11 ADD MLOAD PUSH1 0x40 DUP12 ADD MLOAD DUP6 AND SWAP1 SWAP6 MUL SWAP5 SWAP1 SWAP4 AND SWAP1 SWAP6 MUL SWAP4 SWAP1 SWAP6 AND SWAP5 AND SWAP4 SWAP1 SWAP4 OR OR AND OR SWAP1 SSTORE PUSH2 0x29B2 JUMP JUMPDEST PUSH1 0x2 DUP3 ADD SLOAD PUSH4 0xFFFFFFFF PUSH1 0x1 PUSH1 0xA0 SHL SWAP1 SWAP2 DIV DUP2 AND SWAP1 DUP6 AND GT ISZERO PUSH2 0x29B2 JUMPI DUP1 MLOAD PUSH1 0x2 DUP4 ADD DUP1 SLOAD PUSH1 0x20 DUP5 ADD MLOAD PUSH1 0x40 DUP6 ADD MLOAD PUSH1 0x1 PUSH1 0x1 PUSH1 0xA0 SHL SUB SWAP1 SWAP5 AND PUSH1 0x1 PUSH1 0x1 PUSH1 0xC0 SHL SUB NOT SWAP1 SWAP3 AND SWAP2 SWAP1 SWAP2 OR PUSH1 0x1 PUSH1 0xA0 SHL PUSH4 0xFFFFFFFF SWAP3 DUP4 AND MUL OR PUSH4 0xFFFFFFFF PUSH1 0xC0 SHL NOT AND PUSH1 0x1 PUSH1 0xC0 SHL SWAP2 SWAP1 SWAP4 AND MUL SWAP2 SWAP1 SWAP2 OR SWAP1 SSTORE JUMPDEST POP POP POP POP POP POP JUMP JUMPDEST PUSH1 0x40 MLOAD DUP1 PUSH1 0x60 ADD PUSH1 0x40 MSTORE DUP1 PUSH1 0x3 SWAP1 PUSH1 0x20 DUP3 MUL DUP1 CALLDATASIZE DUP4 CALLDATACOPY POP SWAP2 SWAP3 SWAP2 POP POP JUMP JUMPDEST PUSH1 0x0 PUSH1 0x20 DUP3 DUP5 SUB SLT ISZERO PUSH2 0x29EA JUMPI PUSH1 0x0 DUP1 REVERT JUMPDEST POP CALLDATALOAD SWAP2 SWAP1 POP JUMP JUMPDEST PUSH1 0x0 DUP1 PUSH1 0x40 DUP4 DUP6 SUB SLT ISZERO PUSH2 0x2A04 JUMPI PUSH1 0x0 DUP1 REVERT JUMPDEST DUP3 CALLDATALOAD SWAP2 POP PUSH1 0x20 DUP4 ADD CALLDATALOAD PUSH1 0xFF DUP2 AND DUP2 EQ PUSH2 0x2A1C JUMPI PUSH1 0x0 DUP1 REVERT JUMPDEST DUP1 SWAP2 POP POP SWAP3 POP SWAP3 SWAP1 POP JUMP JUMPDEST PUSH4 0xFFFFFFFF DUP2 AND DUP2 EQ PUSH2 0x26F2 JUMPI PUSH1 0x0 DUP1 REVERT JUMPDEST PUSH1 0x0 DUP1 PUSH1 0x0 PUSH1 0x60 DUP5 DUP7 SUB SLT ISZERO PUSH2 0x2A4E JUMPI PUSH1 0x0 DUP1 REVERT JUMPDEST DUP4 CALLDATALOAD SWAP3 POP PUSH1 0x20 DUP5 ADD CALLDATALOAD PUSH2 0x2A60 DUP2 PUSH2 0x2A27 JUMP JUMPDEST SWAP2 POP PUSH1 0x40 DUP5 ADD CALLDATALOAD PUSH2 0xFFFF DUP2 AND DUP2 EQ PUSH2 0x2A77 JUMPI PUSH1 0x0 DUP1 REVERT JUMPDEST DUP1 SWAP2 POP POP SWAP3 POP SWAP3 POP SWAP3 JUMP JUMPDEST PUSH1 0x1 PUSH1 0x1 PUSH1 0xA0 SHL SUB DUP2 AND DUP2 EQ PUSH2 0x26F2 JUMPI PUSH1 0x0 DUP1 REVERT JUMPDEST PUSH1 0x0 PUSH1 0x20 DUP3 DUP5 SUB SLT ISZERO PUSH2 0x2AA9 JUMPI PUSH1 0x0 DUP1 REVERT JUMPDEST DUP2 CALLDATALOAD PUSH2 0x2AB4 DUP2 PUSH2 0x2A82 JUMP JUMPDEST SWAP4 SWAP3 POP POP POP JUMP JUMPDEST PUSH1 0x0 DUP1 PUSH1 0x40 DUP4 DUP6 SUB SLT ISZERO PUSH2 0x2ACE JUMPI PUSH1 0x0 DUP1 REVERT JUMPDEST DUP3 CALLDATALOAD SWAP2 POP PUSH1 0x20 DUP4 ADD CALLDATALOAD PUSH2 0x2A1C DUP2 PUSH2 0x2A82 JUMP JUMPDEST PUSH1 0x0 DUP1 PUSH1 0x40 DUP4 DUP6 SUB SLT ISZERO PUSH2 0x2AF3 JUMPI PUSH1 0x0 DUP1 REVERT JUMPDEST DUP3 CALLDATALOAD PUSH2 0x2AFE DUP2 PUSH2 0x2A82 JUMP JUMPDEST SWAP5 PUSH1 0x20 SWAP4 SWAP1 SWAP4 ADD CALLDATALOAD SWAP4 POP POP POP JUMP JUMPDEST PUSH1 0x0 DUP1 PUSH1 0x20 DUP4 DUP6 SUB SLT ISZERO PUSH2 0x2B1F JUMPI PUSH1 0x0 DUP1 REVERT JUMPDEST DUP3 CALLDATALOAD PUSH1 0x1 PUSH1 0x1 PUSH1 0x40 SHL SUB DUP2 GT ISZERO PUSH2 0x2B35 JUMPI PUSH1 0x0 DUP1 REVERT JUMPDEST DUP4 ADD PUSH1 0x1F DUP2 ADD DUP6 SGT PUSH2 0x2B46 JUMPI PUSH1 0x0 DUP1 REVERT JUMPDEST DUP1 CALLDATALOAD PUSH1 0x1 PUSH1 0x1 PUSH1 0x40 SHL SUB DUP2 GT ISZERO PUSH2 0x2B5C JUMPI PUSH1 0x0 DUP1 REVERT JUMPDEST DUP6 PUSH1 0x20 DUP3 PUSH1 0x5 SHL DUP5 ADD ADD GT ISZERO PUSH2 0x2B71 JUMPI PUSH1 0x0 DUP1 REVERT JUMPDEST PUSH1 0x20 SWAP2 SWAP1 SWAP2 ADD SWAP6 SWAP1 SWAP5 POP SWAP3 POP POP POP JUMP JUMPDEST DUP1 PUSH1 0x0 JUMPDEST PUSH1 0x3 DUP2 LT ISZERO PUSH2 0x1D31 JUMPI DUP2 MLOAD DUP5 MSTORE PUSH1 0x20 SWAP4 DUP5 ADD SWAP4 SWAP1 SWAP2 ADD SWAP1 PUSH1 0x1 ADD PUSH2 0x2B85 JUMP JUMPDEST PUSH2 0x120 DUP2 ADD DUP2 DUP6 PUSH1 0x0 JUMPDEST PUSH1 0x3 DUP2 LT ISZERO PUSH2 0x2BD6 JUMPI DUP2 MLOAD PUSH1 0x1 PUSH1 0x1 PUSH1 0xA0 SHL SUB AND DUP4 MSTORE PUSH1 0x20 SWAP3 DUP4 ADD SWAP3 SWAP1 SWAP2 ADD SWAP1 PUSH1 0x1 ADD PUSH2 0x2BAE JUMP JUMPDEST POP POP POP PUSH1 0x60 DUP3 ADD DUP5 PUSH1 0x0 JUMPDEST PUSH1 0x3 DUP2 LT ISZERO PUSH2 0x2C06 JUMPI DUP2 MLOAD PUSH4 0xFFFFFFFF AND DUP4 MSTORE PUSH1 0x20 SWAP3 DUP4 ADD SWAP3 SWAP1 SWAP2 ADD SWAP1 PUSH1 0x1 ADD PUSH2 0x2BE1 JUMP JUMPDEST POP POP POP PUSH2 0x2C16 PUSH1 0xC0 DUP4 ADD DUP5 PUSH2 0x2B81 JUMP JUMPDEST SWAP5 SWAP4 POP POP POP POP JUMP JUMPDEST DUP1 MLOAD PUSH1 0x1 PUSH1 0x1 PUSH1 0xA0 SHL SUB AND DUP3 MSTORE PUSH1 0x20 DUP1 DUP3 ADD MLOAD PUSH4 0xFFFFFFFF SWAP1 DUP2 AND SWAP2 DUP5 ADD SWAP2 SWAP1 SWAP2 MSTORE PUSH1 0x40 SWAP2 DUP3 ADD MLOAD AND SWAP2 ADD MSTORE JUMP JUMPDEST PUSH2 0x180 DUP2 ADD PUSH2 0x2C5B DUP3 DUP10 PUSH2 0x2C1E JUMP JUMPDEST PUSH2 0x2C68 PUSH1 0x60 DUP4 ADD DUP9 PUSH2 0x2C1E JUMP JUMPDEST PUSH2 0x2C75 PUSH1 0xC0 DUP4 ADD DUP8 PUSH2 0x2C1E JUMP JUMPDEST PUSH1 0x1 PUSH1 0x1 PUSH1 0x80 SHL SUB DUP6 AND PUSH2 0x120 DUP4 ADD MSTORE PUSH2 0xFFFF DUP5 AND PUSH2 0x140 DUP4 ADD MSTORE DUP3 ISZERO ISZERO PUSH2 0x160 DUP4 ADD MSTORE SWAP8 SWAP7 POP POP POP POP POP POP POP JUMP JUMPDEST PUSH1 0x0 DUP1 PUSH1 0x40 DUP4 DUP6 SUB SLT ISZERO PUSH2 0x2CB7 JUMPI PUSH1 0x0 DUP1 REVERT JUMPDEST POP POP DUP1 CALLDATALOAD SWAP3 PUSH1 0x20 SWAP1 SWAP2 ADD CALLDATALOAD SWAP2 POP JUMP JUMPDEST PUSH1 0x0 PUSH1 0x20 DUP3 DUP5 SUB SLT ISZERO PUSH2 0x2CD8 JUMPI PUSH1 0x0 DUP1 REVERT JUMPDEST DUP2 MLOAD DUP1 ISZERO ISZERO DUP2 EQ PUSH2 0x2AB4 JUMPI PUSH1 0x0 DUP1 REVERT JUMPDEST PUSH4 0x4E487B71 PUSH1 0xE0 SHL PUSH1 0x0 MSTORE PUSH1 0x11 PUSH1 0x4 MSTORE PUSH1 0x24 PUSH1 0x0 REVERT JUMPDEST DUP1 DUP3 ADD DUP1 DUP3 GT ISZERO PUSH2 0xCF3 JUMPI PUSH2 0xCF3 PUSH2 0x2CE8 JUMP JUMPDEST DUP1 DUP3 MUL DUP2 ISZERO DUP3 DUP3 DIV DUP5 EQ OR PUSH2 0xCF3 JUMPI PUSH2 0xCF3 PUSH2 0x2CE8 JUMP JUMPDEST PUSH1 0x0 DUP3 PUSH2 0x2D45 JUMPI PUSH4 0x4E487B71 PUSH1 0xE0 SHL PUSH1 0x0 MSTORE PUSH1 0x12 PUSH1 0x4 MSTORE PUSH1 0x24 PUSH1 0x0 REVERT JUMPDEST POP DIV SWAP1 JUMP JUMPDEST DUP2 DUP2 SUB DUP2 DUP2 GT ISZERO PUSH2 0xCF3 JUMPI PUSH2 0xCF3 PUSH2 0x2CE8 JUMP JUMPDEST PUSH1 0x1 PUSH1 0x1 PUSH1 0x80 SHL SUB DUP2 DUP2 AND DUP4 DUP3 AND ADD SWAP1 DUP2 GT ISZERO PUSH2 0xCF3 JUMPI PUSH2 0xCF3 PUSH2 0x2CE8 JUMP JUMPDEST PUSH1 0x0 PUSH1 0x20 DUP3 DUP5 SUB SLT ISZERO PUSH2 0x2D8E JUMPI PUSH1 0x0 DUP1 REVERT JUMPDEST POP MLOAD SWAP2 SWAP1 POP JUMP JUMPDEST PUSH4 0x4E487B71 PUSH1 0xE0 SHL PUSH1 0x0 MSTORE PUSH1 0x32 PUSH1 0x4 MSTORE PUSH1 0x24 PUSH1 0x0 REVERT JUMPDEST PUSH1 0x40 MLOAD PUSH1 0x1F DUP3 ADD PUSH1 0x1F NOT AND DUP2 ADD PUSH1 0x1 PUSH1 0x1 PUSH1 0x40 SHL SUB DUP2 GT DUP3 DUP3 LT OR ISZERO PUSH2 0x2DE1 JUMPI PUSH4 0x4E487B71 PUSH1 0xE0 SHL PUSH1 0x0 MSTORE PUSH1 0x41 PUSH1 0x4 MSTORE PUSH1 0x24 PUSH1 0x0 REVERT JUMPDEST PUSH1 0x40 MSTORE SWAP2 SWAP1 POP JUMP JUMPDEST PUSH1 0x0 DUP3 PUSH1 0x1F DUP4 ADD SLT PUSH2 0x2DFA JUMPI PUSH1 0x0 DUP1 REVERT JUMPDEST PUSH2 0x2E04 PUSH1 0x60 PUSH2 0x2DAB JUMP JUMPDEST DUP1 PUSH1 0x60 DUP5 ADD DUP6 DUP2 GT ISZERO PUSH2 0x2E16 JUMPI PUSH1 0x0 DUP1 REVERT JUMPDEST DUP5 JUMPDEST DUP2 DUP2 LT ISZERO PUSH2 0x2E30 JUMPI DUP1 MLOAD DUP5 MSTORE PUSH1 0x20 SWAP4 DUP5 ADD SWAP4 ADD PUSH2 0x2E18 JUMP JUMPDEST POP SWAP1 SWAP6 SWAP5 POP POP POP POP POP JUMP JUMPDEST PUSH1 0x0 DUP1 PUSH1 0x0 PUSH2 0x120 DUP5 DUP7 SUB SLT ISZERO PUSH2 0x2E51 JUMPI PUSH1 0x0 DUP1 REVERT JUMPDEST DUP5 PUSH1 0x1F DUP6 ADD SLT PUSH2 0x2E60 JUMPI PUSH1 0x0 DUP1 REVERT JUMPDEST PUSH1 0x60 PUSH2 0x2E6B DUP2 PUSH2 0x2DAB JUMP JUMPDEST DUP1 DUP3 DUP8 ADD DUP9 DUP2 GT ISZERO PUSH2 0x2E7C JUMPI PUSH1 0x0 DUP1 REVERT JUMPDEST DUP8 JUMPDEST DUP2 DUP2 LT ISZERO PUSH2 0x2E9F JUMPI DUP1 MLOAD PUSH2 0x2E91 DUP2 PUSH2 0x2A82 JUMP JUMPDEST DUP5 MSTORE PUSH1 0x20 SWAP4 DUP5 ADD SWAP4 ADD PUSH2 0x2E7E JUMP JUMPDEST POP DUP2 SWAP7 POP PUSH1 0x0 SWAP3 POP DUP9 PUSH1 0x1F DUP3 ADD SLT PUSH2 0x2EB5 JUMPI DUP3 DUP4 REVERT JUMPDEST DUP4 SWAP2 POP PUSH2 0x2EC1 DUP3 PUSH2 0x2DAB JUMP JUMPDEST SWAP4 DUP2 ADD SWAP4 SWAP2 POP DUP2 DUP10 DUP6 GT ISZERO PUSH2 0x2ED4 JUMPI DUP4 DUP5 REVERT JUMPDEST DUP5 DUP3 LT ISZERO PUSH2 0x2EF9 JUMPI DUP2 MLOAD PUSH2 0x2EE7 DUP2 PUSH2 0x2A27 JUMP JUMPDEST DUP4 MSTORE PUSH1 0x20 SWAP3 DUP4 ADD SWAP3 SWAP2 SWAP1 SWAP2 ADD SWAP1 PUSH2 0x2ED4 JUMP JUMPDEST SWAP6 POP PUSH2 0x2F0E SWAP4 POP DUP9 SWAP3 POP POP POP PUSH1 0xC0 DUP7 ADD PUSH2 0x2DE9 JUMP JUMPDEST SWAP1 POP SWAP3 POP SWAP3 POP SWAP3 JUMP INVALID LOG2 PUSH5 0x6970667358 0x22 SLT KECCAK256 JUMPDEST SELFBALANCE 0xA8 SWAP1 0xE4 0xDF 0x4D LOG0 0xBE DUP9 0xD2 BALANCE 0xEA DUP14 PUSH32 0x1BA16C5C20F0DAAF65B22D79D98C9DA4CF64736F6C634300081C003300000000 "
        },
        "methodIdentifiers": {
          "CLAIM_WINDOW_DAYS()": "cd37e6e8",
          "ENTRY_FEE()": "f6d361cc",
          "FIRST_PLACE_PERCENTAGE()": "12c7093e",
          "LEADERBOARD_RETENTION_DAYS()": "b1471d06",
          "MAX_SESSION_AGE()": "c7f388c1",
          "MIN_PLAYERS_FOR_REWARDS()": "f34426f1",
          "SECOND_PLACE_PERCENTAGE()": "97a75cba",
          "THIRD_PLACE_PERCENTAGE()": "091b8166",
          "addToPrizePool(uint256)": "186ba253",
          "calculateReward(uint256,uint8)": "1b5cd01c",
          "canClaimReward(address,uint256)": "c273c53e",
          "canReclaimExpiredRewards(uint256)": "5966ab32",
          "claimDailyReward(uint256)": "5e67fe14",
          "claimMultipleDays(uint256[])": "b8cdaff8",
          "cleanupOldDays(uint256,uint256)": "e9753d5f",
          "currentDay()": "5c9302c9",
          "dailyBestScores(uint256,address)": "6724e9d8",
          "dailyPlayerParticipated(uint256,address)": "be2a99a1",
          "dailyRewardsClaimed(uint256,address)": "68d0d501",
          "dailySummaries(uint256)": "cddacbe7",
          "dailyWinners(uint256)": "bbc10e4c",
          "emergencyWithdrawToken(address,uint256)": "a4c3b091",
          "finalizeCurrentDay()": "4a48b60e",
          "gameSessions(uint256)": "34a8014b",
          "getContractBalance()": "6f9fb98a",
          "getCurrentDay()": "3e6968b6",
          "getCurrentTop3()": "eaf9a24b",
          "getDailySummary(uint256)": "745c0d72",
          "getDailyTop3(uint256)": "c3b07e21",
          "getDailyWinners(uint256)": "9fb0a4b1",
          "getHouseReserve()": "4ba82d64",
          "getPaymentToken()": "d41c3a65",
          "getPlayerStats(address)": "4fd66eae",
          "getSessionScore(uint256)": "68218aeb",
          "houseReserve()": "ce898eb3",
          "oldestTrackedDay()": "a43156b6",
          "owner()": "8da5cb5b",
          "paymentToken()": "3013ce29",
          "players(address)": "e2eb41ff",
          "reclaimExpiredRewards(uint256)": "6d009cdd",
          "sessionCounter()": "cc64e2af",
          "startGame()": "d65ab5f2",
          "submitScore(uint256,uint32,uint16)": "35af65eb",
          "totalPrizePool()": "398ab9a7",
          "withdrawReserve(uint256)": "3e696f38"
        }
      }
    }
  }
}