{
  "_format": "hh-sol-artifact-1",
  "contractName": "ColorMatchGame",
  "sourceName": "contracts/ColourMatchCUSD.sol",
  "abi": [
    {
      "inputs": [
        {
          "internalType": "address",
          "name": "_paymentToken",
          "type": "address"
        }
      ],
      "stateMutability": "nonpayable",
      "type": "constructor"
    },
    {
      "inputs": [],
      "name": "AlreadyClaimed",
      "type": "error"
    },
    {
      "inputs": [],
      "name": "AlreadySubmitted",
      "type": "error"
    },
    {
      "inputs": [],
      "name": "CantCleanupCurrentDay",
      "type": "error"
    },
    {
      "inputs": [],
      "name": "ClaimWindowExpired",
      "type": "error"
    },
    {
      "inputs": [],
      "name": "ClaimWindowNotExpired",
      "type": "error"
    },
    {
      "inputs": [],
      "name": "DayNotFinalized",
      "type": "error"
    },
    {
      "inputs": [],
      "name": "DayNotFinished",
      "type": "error"
    },
    {
      "inputs": [],
      "name": "DayNotOver",
      "type": "error"
    },
    {
      "inputs": [],
      "name": "ExceedsReserve",
      "type": "error"
    },
    {
      "inputs": [],
      "name": "InsufficientPool",
      "type": "error"
    },
    {
      "inputs": [],
      "name": "InvalidRange",
      "type": "error"
    },
    {
      "inputs": [],
      "name": "InvalidScore",
      "type": "error"
    },
    {
      "inputs": [],
      "name": "InvalidSession",
      "type": "error"
    },
    {
      "inputs": [],
      "name": "InvalidTokenAddress",
      "type": "error"
    },
    {
      "inputs": [],
      "name": "MaxTenDaysPerCall",
      "type": "error"
    },
    {
      "inputs": [],
      "name": "NotEnoughPlayers",
      "type": "error"
    },
    {
      "inputs": [],
      "name": "NotInTop3",
      "type": "error"
    },
    {
      "inputs": [],
      "name": "NotYourSession",
      "type": "error"
    },
    {
      "inputs": [],
      "name": "OnlyOwner",
      "type": "error"
    },
    {
      "inputs": [],
      "name": "SessionExpired",
      "type": "error"
    },
    {
      "inputs": [],
      "name": "TransferFailed",
      "type": "error"
    },
    {
      "inputs": [],
      "name": "UseWithdrawReserve",
      "type": "error"
    },
    {
      "inputs": [],
      "name": "WrongFee",
      "type": "error"
    },
    {
      "anonymous": false,
      "inputs": [
        {
          "indexed": true,
          "internalType": "address",
          "name": "player",
          "type": "address"
        },
        {
          "indexed": false,
          "internalType": "uint8",
          "name": "rank",
          "type": "uint8"
        },
        {
          "indexed": false,
          "internalType": "uint256",
          "name": "reward",
          "type": "uint256"
        },
        {
          "indexed": false,
          "internalType": "uint256",
          "name": "day",
          "type": "uint256"
        }
      ],
      "name": "DailyRewardPaid",
      "type": "event"
    },
    {
      "anonymous": false,
      "inputs": [
        {
          "indexed": false,
          "internalType": "uint256",
          "name": "day",
          "type": "uint256"
        },
        {
          "indexed": false,
          "internalType": "uint256",
          "name": "totalCollected",
          "type": "uint256"
        },
        {
          "indexed": false,
          "internalType": "uint16",
          "name": "totalPlayers",
          "type": "uint16"
        }
      ],
      "name": "DayFinalized",
      "type": "event"
    },
    {
      "anonymous": false,
      "inputs": [
        {
          "indexed": false,
          "internalType": "uint256",
          "name": "day",
          "type": "uint256"
        },
        {
          "indexed": false,
          "internalType": "uint256",
          "name": "amount",
          "type": "uint256"
        }
      ],
      "name": "ExpiredFundsReclaimed",
      "type": "event"
    },
    {
      "anonymous": false,
      "inputs": [
        {
          "indexed": true,
          "internalType": "address",
          "name": "player",
          "type": "address"
        },
        {
          "indexed": false,
          "internalType": "uint256",
          "name": "sessionId",
          "type": "uint256"
        },
        {
          "indexed": false,
          "internalType": "uint32",
          "name": "score",
          "type": "uint32"
        }
      ],
      "name": "GameCompleted",
      "type": "event"
    },
    {
      "anonymous": false,
      "inputs": [
        {
          "indexed": true,
          "internalType": "address",
          "name": "player",
          "type": "address"
        },
        {
          "indexed": false,
          "internalType": "uint256",
          "name": "sessionId",
          "type": "uint256"
        },
        {
          "indexed": false,
          "internalType": "uint256",
          "name": "day",
          "type": "uint256"
        }
      ],
      "name": "GameStarted",
      "type": "event"
    },
    {
      "anonymous": false,
      "inputs": [
        {
          "indexed": true,
          "internalType": "address",
          "name": "player",
          "type": "address"
        },
        {
          "indexed": false,
          "internalType": "uint32",
          "name": "score",
          "type": "uint32"
        }
      ],
      "name": "HighScoreSet",
      "type": "event"
    },
    {
      "anonymous": false,
      "inputs": [
        {
          "indexed": false,
          "internalType": "uint256",
          "name": "newReserve",
          "type": "uint256"
        }
      ],
      "name": "ReserveUpdated",
      "type": "event"
    },
    {
      "inputs": [],
      "name": "CLAIM_WINDOW_DAYS",
      "outputs": [
        {
          "internalType": "uint256",
          "name": "",
          "type": "uint256"
        }
      ],
      "stateMutability": "view",
      "type": "function"
    },
    {
      "inputs": [],
      "name": "ENTRY_FEE",
      "outputs": [
        {
          "internalType": "uint256",
          "name": "",
          "type": "uint256"
        }
      ],
      "stateMutability": "view",
      "type": "function"
    },
    {
      "inputs": [],
      "name": "FIRST_PLACE_PERCENTAGE",
      "outputs": [
        {
          "internalType": "uint256",
          "name": "",
          "type": "uint256"
        }
      ],
      "stateMutability": "view",
      "type": "function"
    },
    {
      "inputs": [],
      "name": "LEADERBOARD_RETENTION_DAYS",
      "outputs": [
        {
          "internalType": "uint256",
          "name": "",
          "type": "uint256"
        }
      ],
      "stateMutability": "view",
      "type": "function"
    },
    {
      "inputs": [],
      "name": "MAX_SESSION_AGE",
      "outputs": [
        {
          "internalType": "uint256",
          "name": "",
          "type": "uint256"
        }
      ],
      "stateMutability": "view",
      "type": "function"
    },
    {
      "inputs": [],
      "name": "MIN_PLAYERS_FOR_REWARDS",
      "outputs": [
        {
          "internalType": "uint256",
          "name": "",
          "type": "uint256"
        }
      ],
      "stateMutability": "view",
      "type": "function"
    },
    {
      "inputs": [],
      "name": "SECOND_PLACE_PERCENTAGE",
      "outputs": [
        {
          "internalType": "uint256",
          "name": "",
          "type": "uint256"
        }
      ],
      "stateMutability": "view",
      "type": "function"
    },
    {
      "inputs": [],
      "name": "THIRD_PLACE_PERCENTAGE",
      "outputs": [
        {
          "internalType": "uint256",
          "name": "",
          "type": "uint256"
        }
      ],
      "stateMutability": "view",
      "type": "function"
    },
    {
      "inputs": [
        {
          "internalType": "uint256",
          "name": "amount",
          "type": "uint256"
        }
      ],
      "name": "addToPrizePool",
      "outputs": [],
      "stateMutability": "nonpayable",
      "type": "function"
    },
    {
      "inputs": [
        {
          "internalType": "uint256",
          "name": "day",
          "type": "uint256"
        },
        {
          "internalType": "uint8",
          "name": "rank",
          "type": "uint8"
        }
      ],
      "name": "calculateReward",
      "outputs": [
        {
          "internalType": "uint256",
          "name": "",
          "type": "uint256"
        }
      ],
      "stateMutability": "view",
      "type": "function"
    },
    {
      "inputs": [
        {
          "internalType": "address",
          "name": "player",
          "type": "address"
        },
        {
          "internalType": "uint256",
          "name": "day",
          "type": "uint256"
        }
      ],
      "name": "canClaimReward",
      "outputs": [
        {
          "internalType": "bool",
          "name": "canClaim",
          "type": "bool"
        },
        {
          "internalType": "uint256",
          "name": "reward",
          "type": "uint256"
        },
        {
          "internalType": "uint8",
          "name": "rank",
          "type": "uint8"
        }
      ],
      "stateMutability": "view",
      "type": "function"
    },
    {
      "inputs": [
        {
          "internalType": "uint256",
          "name": "day",
          "type": "uint256"
        }
      ],
      "name": "canReclaimExpiredRewards",
      "outputs": [
        {
          "internalType": "bool",
          "name": "canReclaim",
          "type": "bool"
        },
        {
          "internalType": "uint256",
          "name": "unclaimedAmount",
          "type": "uint256"
        }
      ],
      "stateMutability": "view",
      "type": "function"
    },
    {
      "inputs": [
        {
          "internalType": "uint256",
          "name": "day",
          "type": "uint256"
        }
      ],
      "name": "claimDailyReward",
      "outputs": [],
      "stateMutability": "nonpayable",
      "type": "function"
    },
    {
      "inputs": [
        {
          "internalType": "uint256[]",
          "name": "dayIds",
          "type": "uint256[]"
        }
      ],
      "name": "claimMultipleDays",
      "outputs": [],
      "stateMutability": "nonpayable",
      "type": "function"
    },
    {
      "inputs": [
        {
          "internalType": "uint256",
          "name": "startDay",
          "type": "uint256"
        },
        {
          "internalType": "uint256",
          "name": "endDay",
          "type": "uint256"
        }
      ],
      "name": "cleanupOldDays",
      "outputs": [],
      "stateMutability": "nonpayable",
      "type": "function"
    },
    {
      "inputs": [],
      "name": "currentDay",
      "outputs": [
        {
          "internalType": "uint256",
          "name": "",
          "type": "uint256"
        }
      ],
      "stateMutability": "view",
      "type": "function"
    },
    {
      "inputs": [
        {
          "internalType": "uint256",
          "name": "",
          "type": "uint256"
        },
        {
          "internalType": "address",
          "name": "",
          "type": "address"
        }
      ],
      "name": "dailyBestScores",
      "outputs": [
        {
          "internalType": "uint32",
          "name": "",
          "type": "uint32"
        }
      ],
      "stateMutability": "view",
      "type": "function"
    },
    {
      "inputs": [
        {
          "internalType": "uint256",
          "name": "",
          "type": "uint256"
        },
        {
          "internalType": "address",
          "name": "",
          "type": "address"
        }
      ],
      "name": "dailyPlayerParticipated",
      "outputs": [
        {
          "internalType": "bool",
          "name": "",
          "type": "bool"
        }
      ],
      "stateMutability": "view",
      "type": "function"
    },
    {
      "inputs": [
        {
          "internalType": "uint256",
          "name": "",
          "type": "uint256"
        },
        {
          "internalType": "address",
          "name": "",
          "type": "address"
        }
      ],
      "name": "dailyRewardsClaimed",
      "outputs": [
        {
          "internalType": "bool",
          "name": "",
          "type": "bool"
        }
      ],
      "stateMutability": "view",
      "type": "function"
    },
    {
      "inputs": [
        {
          "internalType": "uint256",
          "name": "",
          "type": "uint256"
        }
      ],
      "name": "dailySummaries",
      "outputs": [
        {
          "components": [
            {
              "internalType": "address",
              "name": "player",
              "type": "address"
            },
            {
              "internalType": "uint32",
              "name": "score",
              "type": "uint32"
            },
            {
              "internalType": "uint32",
              "name": "sessionId",
              "type": "uint32"
            }
          ],
          "internalType": "struct ColorMatchGame.LeaderboardEntry",
          "name": "first",
          "type": "tuple"
        },
        {
          "components": [
            {
              "internalType": "address",
              "name": "player",
              "type": "address"
            },
            {
              "internalType": "uint32",
              "name": "score",
              "type": "uint32"
            },
            {
              "internalType": "uint32",
              "name": "sessionId",
              "type": "uint32"
            }
          ],
          "internalType": "struct ColorMatchGame.LeaderboardEntry",
          "name": "second",
          "type": "tuple"
        },
        {
          "components": [
            {
              "internalType": "address",
              "name": "player",
              "type": "address"
            },
            {
              "internalType": "uint32",
              "name": "score",
              "type": "uint32"
            },
            {
              "internalType": "uint32",
              "name": "sessionId",
              "type": "uint32"
            }
          ],
          "internalType": "struct ColorMatchGame.LeaderboardEntry",
          "name": "third",
          "type": "tuple"
        },
        {
          "internalType": "uint128",
          "name": "totalCollected",
          "type": "uint128"
        },
        {
          "internalType": "uint16",
          "name": "totalPlayers",
          "type": "uint16"
        },
        {
          "internalType": "bool",
          "name": "finalized",
          "type": "bool"
        }
      ],
      "stateMutability": "view",
      "type": "function"
    },
    {
      "inputs": [
        {
          "internalType": "uint256",
          "name": "",
          "type": "uint256"
        }
      ],
      "name": "dailyWinners",
      "outputs": [
        {
          "internalType": "address",
          "name": "first",
          "type": "address"
        },
        {
          "internalType": "address",
          "name": "second",
          "type": "address"
        },
        {
          "internalType": "address",
          "name": "third",
          "type": "address"
        },
        {
          "internalType": "uint128",
          "name": "dailyPool",
          "type": "uint128"
        },
        {
          "internalType": "uint64",
          "name": "finalizedAt",
          "type": "uint64"
        },
        {
          "internalType": "uint16",
          "name": "totalPlayers",
          "type": "uint16"
        },
        {
          "internalType": "bool",
          "name": "finalized",
          "type": "bool"
        },
        {
          "internalType": "bool",
          "name": "expiredFundsClaimed",
          "type": "bool"
        }
      ],
      "stateMutability": "view",
      "type": "function"
    },
    {
      "inputs": [
        {
          "internalType": "address",
          "name": "token",
          "type": "address"
        },
        {
          "internalType": "uint256",
          "name": "amount",
          "type": "uint256"
        }
      ],
      "name": "emergencyWithdrawToken",
      "outputs": [],
      "stateMutability": "nonpayable",
      "type": "function"
    },
    {
      "inputs": [],
      "name": "finalizeCurrentDay",
      "outputs": [],
      "stateMutability": "nonpayable",
      "type": "function"
    },
    {
      "inputs": [
        {
          "internalType": "uint256",
          "name": "",
          "type": "uint256"
        }
      ],
      "name": "gameSessions",
      "outputs": [
        {
          "internalType": "address",
          "name": "player",
          "type": "address"
        },
        {
          "internalType": "uint64",
          "name": "timestamp",
          "type": "uint64"
        },
        {
          "internalType": "uint32",
          "name": "score",
          "type": "uint32"
        },
        {
          "internalType": "uint16",
          "name": "level",
          "type": "uint16"
        },
        {
          "internalType": "bool",
          "name": "completed",
          "type": "bool"
        },
        {
          "internalType": "bool",
          "name": "rewarded",
          "type": "bool"
        }
      ],
      "stateMutability": "view",
      "type": "function"
    },
    {
      "inputs": [],
      "name": "getContractBalance",
      "outputs": [
        {
          "internalType": "uint256",
          "name": "",
          "type": "uint256"
        }
      ],
      "stateMutability": "view",
      "type": "function"
    },
    {
      "inputs": [],
      "name": "getCurrentDay",
      "outputs": [
        {
          "internalType": "uint256",
          "name": "",
          "type": "uint256"
        }
      ],
      "stateMutability": "view",
      "type": "function"
    },
    {
      "inputs": [],
      "name": "getCurrentTop3",
      "outputs": [
        {
          "internalType": "address[3]",
          "name": "topPlayers",
          "type": "address[3]"
        },
        {
          "internalType": "uint32[3]",
          "name": "topScores",
          "type": "uint32[3]"
        },
        {
          "internalType": "uint256[3]",
          "name": "potentialRewards",
          "type": "uint256[3]"
        }
      ],
      "stateMutability": "view",
      "type": "function"
    },
    {
      "inputs": [
        {
          "internalType": "uint256",
          "name": "day",
          "type": "uint256"
        }
      ],
      "name": "getDailySummary",
      "outputs": [
        {
          "internalType": "uint16",
          "name": "totalPlayers",
          "type": "uint16"
        },
        {
          "internalType": "uint128",
          "name": "totalCollected",
          "type": "uint128"
        },
        {
          "internalType": "bool",
          "name": "finalized",
          "type": "bool"
        },
        {
          "internalType": "bool",
          "name": "rewardsAvailable",
          "type": "bool"
        }
      ],
      "stateMutability": "view",
      "type": "function"
    },
    {
      "inputs": [
        {
          "internalType": "uint256",
          "name": "day",
          "type": "uint256"
        }
      ],
      "name": "getDailyTop3",
      "outputs": [
        {
          "internalType": "address[3]",
          "name": "topPlayers",
          "type": "address[3]"
        },
        {
          "internalType": "uint32[3]",
          "name": "topScores",
          "type": "uint32[3]"
        },
        {
          "internalType": "uint256[3]",
          "name": "rewards",
          "type": "uint256[3]"
        }
      ],
      "stateMutability": "view",
      "type": "function"
    },
    {
      "inputs": [
        {
          "internalType": "uint256",
          "name": "day",
          "type": "uint256"
        }
      ],
      "name": "getDailyWinners",
      "outputs": [
        {
          "internalType": "address",
          "name": "first",
          "type": "address"
        },
        {
          "internalType": "address",
          "name": "second",
          "type": "address"
        },
        {
          "internalType": "address",
          "name": "third",
          "type": "address"
        },
        {
          "internalType": "uint128",
          "name": "dailyPool",
          "type": "uint128"
        },
        {
          "internalType": "uint64",
          "name": "finalizedAt",
          "type": "uint64"
        },
        {
          "internalType": "uint16",
          "name": "totalPlayers",
          "type": "uint16"
        },
        {
          "internalType": "bool",
          "name": "finalized",
          "type": "bool"
        },
        {
          "internalType": "bool",
          "name": "expiredFundsClaimed",
          "type": "bool"
        }
      ],
      "stateMutability": "view",
      "type": "function"
    },
    {
      "inputs": [],
      "name": "getHouseReserve",
      "outputs": [
        {
          "internalType": "uint256",
          "name": "",
          "type": "uint256"
        }
      ],
      "stateMutability": "view",
      "type": "function"
    },
    {
      "inputs": [],
      "name": "getPaymentToken",
      "outputs": [
        {
          "internalType": "address",
          "name": "",
          "type": "address"
        }
      ],
      "stateMutability": "view",
      "type": "function"
    },
    {
      "inputs": [
        {
          "internalType": "address",
          "name": "playerAddr",
          "type": "address"
        }
      ],
      "name": "getPlayerStats",
      "outputs": [
        {
          "internalType": "uint64",
          "name": "gamesPlayed",
          "type": "uint64"
        },
        {
          "internalType": "uint64",
          "name": "lastPlayTime",
          "type": "uint64"
        },
        {
          "internalType": "uint64",
          "name": "highScore",
          "type": "uint64"
        },
        {
          "internalType": "uint128",
          "name": "totalEarnings",
          "type": "uint128"
        }
      ],
      "stateMutability": "view",
      "type": "function"
    },
    {
      "inputs": [
        {
          "internalType": "uint256",
          "name": "sessionId",
          "type": "uint256"
        }
      ],
      "name": "getSessionScore",
      "outputs": [
        {
          "internalType": "address",
          "name": "player",
          "type": "address"
        },
        {
          "internalType": "uint32",
          "name": "score",
          "type": "uint32"
        },
        {
          "internalType": "uint16",
          "name": "level",
          "type": "uint16"
        },
        {
          "internalType": "bool",
          "name": "completed",
          "type": "bool"
        }
      ],
      "stateMutability": "view",
      "type": "function"
    },
    {
      "inputs": [],
      "name": "houseReserve",
      "outputs": [
        {
          "internalType": "uint256",
          "name": "",
          "type": "uint256"
        }
      ],
      "stateMutability": "view",
      "type": "function"
    },
    {
      "inputs": [],
      "name": "oldestTrackedDay",
      "outputs": [
        {
          "internalType": "uint256",
          "name": "",
          "type": "uint256"
        }
      ],
      "stateMutability": "view",
      "type": "function"
    },
    {
      "inputs": [],
      "name": "owner",
      "outputs": [
        {
          "internalType": "address",
          "name": "",
          "type": "address"
        }
      ],
      "stateMutability": "view",
      "type": "function"
    },
    {
      "inputs": [],
      "name": "paymentToken",
      "outputs": [
        {
          "internalType": "contract IERC20",
          "name": "",
          "type": "address"
        }
      ],
      "stateMutability": "view",
      "type": "function"
    },
    {
      "inputs": [
        {
          "internalType": "address",
          "name": "",
          "type": "address"
        }
      ],
      "name": "players",
      "outputs": [
        {
          "internalType": "uint64",
          "name": "gamesPlayed",
          "type": "uint64"
        },
        {
          "internalType": "uint64",
          "name": "lastPlayTime",
          "type": "uint64"
        },
        {
          "internalType": "uint64",
          "name": "highScore",
          "type": "uint64"
        },
        {
          "internalType": "uint128",
          "name": "totalEarnings",
          "type": "uint128"
        }
      ],
      "stateMutability": "view",
      "type": "function"
    },
    {
      "inputs": [
        {
          "internalType": "uint256",
          "name": "day",
          "type": "uint256"
        }
      ],
      "name": "reclaimExpiredRewards",
      "outputs": [],
      "stateMutability": "nonpayable",
      "type": "function"
    },
    {
      "inputs": [],
      "name": "sessionCounter",
      "outputs": [
        {
          "internalType": "uint256",
          "name": "",
          "type": "uint256"
        }
      ],
      "stateMutability": "view",
      "type": "function"
    },
    {
      "inputs": [],
      "name": "startGame",
      "outputs": [
        {
          "internalType": "uint256",
          "name": "",
          "type": "uint256"
        }
      ],
      "stateMutability": "nonpayable",
      "type": "function"
    },
    {
      "inputs": [
        {
          "internalType": "uint256",
          "name": "sessionId",
          "type": "uint256"
        },
        {
          "internalType": "uint32",
          "name": "score",
          "type": "uint32"
        },
        {
          "internalType": "uint16",
          "name": "level",
          "type": "uint16"
        }
      ],
      "name": "submitScore",
      "outputs": [],
      "stateMutability": "nonpayable",
      "type": "function"
    },
    {
      "inputs": [],
      "name": "totalPrizePool",
      "outputs": [
        {
          "internalType": "uint256",
          "name": "",
          "type": "uint256"
        }
      ],
      "stateMutability": "view",
      "type": "function"
    },
    {
      "inputs": [
        {
          "internalType": "uint256",
          "name": "amount",
          "type": "uint256"
        }
      ],
      "name": "withdrawReserve",
      "outputs": [],
      "stateMutability": "nonpayable",
      "type": "function"
    }
  ],
  "bytecode": "0x60a060405234801561001057600080fd5b5060405161308238038061308283398101604081905261002f91610090565b6001600160a01b03811661005657604051630f58058360e11b815260040160405180910390fd5b600580546001600160a01b031916331790556001600160a01b03811660805261008262015180426100c0565b600b819055600c55506100e2565b6000602082840312156100a257600080fd5b81516001600160a01b03811681146100b957600080fd5b9392505050565b6000826100dd57634e487b7160e01b600052601260045260246000fd5b500490565b608051612f4d610135600039600081816102d601528181610a4a01528181610b4a015281816110500152818161156d015281816118d00152818161197501528181611c9a01526120380152612f4d6000f3fe608060405234801561001057600080fd5b506004361061027f5760003560e01c80638da5cb5b1161015c578063c7f388c1116100ce578063d65ab5f211610087578063d65ab5f214610a6e578063e2eb41ff14610a76578063e9753d5f14610ac8578063eaf9a24b14610adb578063f34426f114610ae3578063f6d361cc14610aeb57600080fd5b8063c7f388c114610940578063cc64e2af14610949578063cd37e6e814610952578063cddacbe71461095a578063ce898eb314610a3f578063d41c3a6514610a4857600080fd5b8063b1471d0611610120578063b1471d0614610820578063b8cdaff814610828578063bbc10e4c1461083b578063be2a99a1146108bd578063c273c53e146108eb578063c3b07e211461091e57600080fd5b80638da5cb5b1461070257806397a75cba146107155780639fb0a4b11461071e578063a43156b614610804578063a4c3b0911461080d57600080fd5b80634ba82d64116101f55780636724e9d8116101b95780636724e9d81461050d57806368218aeb1461055357806368d0d501146106295780636d009cdd146106675780636f9fb98a1461067a578063745c0d721461068257600080fd5b80634ba82d641461040b5780634fd66eae146104135780635966ab32146104c75780635c9302c9146104f15780635e67fe14146104fa57600080fd5b806334a8014b1161024757806334a8014b1461031057806335af65eb146103cc578063398ab9a7146103df5780633e6968b6146103e85780633e696f38146103f05780634a48b60e1461040357600080fd5b8063091b81661461028457806312c7093e146102a0578063186ba253146102a95780631b5cd01c146102be5780633013ce29146102d1575b600080fd5b61028d6105dc81565b6040519081526020015b60405180910390f35b61028d610bb881565b6102bc6102b73660046129d8565b610afa565b005b61028d6102cc3660046129f1565b610c31565b6102f87f000000000000000000000000000000000000000000000000000000000000000081565b6040516001600160a01b039091168152602001610297565b61037c61031e3660046129d8565b600160208190526000918252604090912080549101546001600160a01b03821691600160a01b81046001600160401b031691600160e01b90910463ffffffff169061ffff81169062010000810460ff90811691630100000090041686565b604080516001600160a01b0390971687526001600160401b03909516602087015263ffffffff9093169385019390935261ffff1660608401529015156080830152151560a082015260c001610297565b6102bc6103da366004612a39565b610cf9565b61028d60035481565b600b5461028d565b6102bc6103fe3660046129d8565b610fbf565b6102bc611110565b60045461028d565b61048e610421366004612a97565b6001600160a01b031660009081526020818152604091829020825160808101845281546001600160401b03808216808452600160401b83048216958401869052600160801b909204169482018590526001909201546001600160801b031660609091018190529093919291565b604080516001600160401b039586168152938516602085015291909316908201526001600160801b039091166060820152608001610297565b6104da6104d53660046129d8565b61115b565b604080519215158352602083019190915201610297565b61028d600b5481565b6102bc6105083660046129d8565b6112e9565b61053e61051b366004612abb565b600960209081526000928352604080842090915290825290205463ffffffff1681565b60405163ffffffff9091168152602001610297565b6105ef6105613660046129d8565b600090815260016020818152604092839020835160c08101855281546001600160a01b038116808352600160a01b82046001600160401b031694830194909452600160e01b900463ffffffff1694810185905292015461ffff81166060840181905262010000820460ff908116151560808601819052630100000090930416151560a0909401939093529093565b604080516001600160a01b03909516855263ffffffff909316602085015261ffff9091169183019190915215156060820152608001610297565b610657610637366004612abb565b600860209081526000928352604080842090915290825290205460ff1681565b6040519015158152602001610297565b6102bc6106753660046129d8565b611650565b61028d6118b8565b6106cd6106903660046129d8565b6000908152600660205260409020600390810154600160c01b810461ffff16926001600160801b03821692600160d01b90920460ff169184101590565b6040805161ffff90951685526001600160801b0390931660208501529015159183019190915215156060820152608001610297565b6005546102f8906001600160a01b031681565b61028d6109c481565b6107a061072c3660046129d8565b60009081526006602052604090208054600182015460028301546003909301546001600160a01b03928316949183169392909216916001600160801b038116916001600160401b03600160801b8304169161ffff600160c01b8204169160ff600160d01b8304811692600160d81b90041690565b604080516001600160a01b03998a168152978916602089015297909516968601969096526001600160801b0390921660608501526001600160401b0316608084015261ffff1660a083015291151560c082015290151560e082015261010001610297565b61028d600c5481565b6102bc61081b366004612ae0565b611948565b61028d601e81565b6102bc610836366004612b0c565b611a3c565b6107a06108493660046129d8565b60066020526000908152604090208054600182015460028301546003909301546001600160a01b03928316939183169291909116906001600160801b038116906001600160401b03600160801b8204169061ffff600160c01b8204169060ff600160d01b8204811691600160d81b90041688565b6106576108cb366004612abb565b600a60209081526000928352604080842090915290825290205460ff1681565b6108fe6108f9366004612ae0565b611d37565b604080519315158452602084019290925260ff1690820152606001610297565b61093161092c3660046129d8565b611ed2565b60405161029793929190612ba4565b61028d610e1081565b61028d60025481565b61028d600781565b610a2d6109683660046129d8565b60076020908152600091825260409182902082516060808201855282546001600160a01b03808216845263ffffffff600160a01b808404821686890152600160c01b938490048216868a015288518086018a52600188015480851682528281048416828b01528590048316818b015289519586018a526002880154938416865290830482169785019790975291900416948101949094526003909101549092906001600160801b0381169061ffff600160801b8204169060ff600160901b9091041686565b60405161029796959493929190612c4c565b61028d60045481565b7f00000000000000000000000000000000000000000000000000000000000000006102f8565b61028d612002565b61048e610a84366004612a97565b600060208190529081526040902080546001909101546001600160401b0380831692600160401b8104821692600160801b909104909116906001600160801b031684565b6102bc610ad6366004612ca4565b612278565b610931612368565b61028d600381565b61028d67016345785d8a000081565b6005546001600160a01b03163314610b2557604051635fc483c560e01b815260040160405180910390fd5b6040516323b872dd60e01b8152336004820152306024820152604481018290526000907f00000000000000000000000000000000000000000000000000000000000000006001600160a01b0316906323b872dd906064016020604051808303816000875af1158015610b9b573d6000803e3d6000fd5b505050506040513d601f19601f82011682018060405250810190610bbf9190612cc6565b905080610bdf576040516312171d8360e31b815260040160405180910390fd5b8160046000828254610bf19190612cfe565b90915550506004546040519081527f85e15aee91823036f338b40b55f10eea0356cfb9da506963651ac73e503f47db906020015b60405180910390a15050565b60008281526006602052604081206003810154600160d01b900460ff16610c5c576000915050610cf3565b600381810154600160c01b900461ffff161015610c7d576000915050610cf3565b60038101546001600160801b031660ff8416600103610cb857612710610ca5610bb883612d11565b610caf9190612d28565b92505050610cf3565b8360ff16600203610cd257612710610ca56109c483612d11565b8360ff16600303610cec57612710610ca56105dc83612d11565b6000925050505b92915050565b600083815260016020526040902080546001600160a01b03163314610d3157604051638c33f38360e01b815260040160405180910390fd5b600181015462010000900460ff1615610d5d57604051639fbfc58960e01b815260040160405180910390fd5b8054600160a01b90046001600160401b0316600003610d8f576040516316f78d3b60e11b815260040160405180910390fd5b8054610dae90610e1090600160a01b90046001600160401b0316612cfe565b421115610dce57604051630fe82d2560e11b815260040160405180910390fd5b629896808363ffffffff161115610df857604051631556136560e01b815260040160405180910390fd5b805463ffffffff8416600160e01b026001600160e01b0390911617815560018101805462ffffff191661ffff841617620100001790556000610e3d6201518042612d28565b9050600b548114610e6057610e53600b546123f0565b600b819055610e60612633565b3360009081526020819052604090208054426001600160401b03908116600160401b026001600160801b0319831692821660010182169290921791909117808355600160801b90041663ffffffff86161115610f1057805467ffffffffffffffff60801b191663ffffffff8616600160801b810291909117825560405190815233907f22905902cc8c9719b33f7d75db0df77d6a28a6821e0c6645a0de271335d318bd9060200160405180910390a25b600082815260096020908152604080832033845290915290205463ffffffff908116908616811015610f76576000838152600960209081526040808320338085529252909120805463ffffffff191663ffffffff8916179055610f76908490888a6126f5565b6040805188815263ffffffff8816602082015233917fdb93f11fe0756b029244a28f83aab90e847b5c26d8659ba05cfb74aab73ea6b0910160405180910390a250505050505050565b6005546001600160a01b03163314610fea57604051635fc483c560e01b815260040160405180910390fd5b60045481111561100d57604051634b63e0e160e11b815260040160405180910390fd5b806004600082825461101f9190612d4a565b909155505060055460405163a9059cbb60e01b81526001600160a01b039182166004820152602481018390526000917f0000000000000000000000000000000000000000000000000000000000000000169063a9059cbb906044016020604051808303816000875af1158015611099573d6000803e3d6000fd5b505050506040513d601f19601f820116820180604052508101906110bd9190612cc6565b9050806110dd576040516312171d8360e31b815260040160405180910390fd5b7f85e15aee91823036f338b40b55f10eea0356cfb9da506963651ac73e503f47db600454604051610c2591815260200190565b600b546111206201518042612d28565b1161113e57604051637485c29d60e01b815260040160405180910390fd5b611149600b546123f0565b6111566201518042612d28565b600b55565b60008181526006602052604081206003810154829190600160d01b900460ff1661118b5750600093849350915050565b600381810154600160c01b900461ffff1610156111ae5750600093849350915050565b6003810154600160d81b900460ff16156111ce5750600093849350915050565b6111dc600762015180612d11565b60038201546111fb9190600160801b90046001600160401b0316612cfe565b421161120d5750600093849350915050565b600084815260086020908152604080832084546001600160a01b0316845290915281205460ff1661125057611243856001610c31565b61124d9082612cfe565b90505b600085815260086020908152604080832060018601546001600160a01b0316845290915290205460ff1661129657611289856002610c31565b6112939082612cfe565b90505b600085815260086020908152604080832060028601546001600160a01b0316845290915290205460ff166112dc576112cf856003610c31565b6112d99082612cfe565b90505b8015159590945092505050565b600b54811061130b57604051630c09254360e01b815260040160405180910390fd5b600081815260086020908152604080832033845290915290205460ff161561134657604051630c8d9eab60e31b815260040160405180910390fd5b60008181526006602052604090206003810154600160d01b900460ff1661138057604051630912829760e31b815260040160405180910390fd5b600381810154600160c01b900461ffff1610156113b05760405163f770074360e01b815260040160405180910390fd5b6113be600762015180612d11565b60038201546113dd9190600160801b90046001600160401b0316612cfe565b4211156113fd57604051631b8709b760e01b815260040160405180910390fd5b8054600090336001600160a01b039091160361141b57506001611453565b6001820154336001600160a01b039091160361143957506002611453565b6002820154336001600160a01b0390911603611453575060035b8060ff1660000361147757604051639c56052b60e01b815260040160405180910390fd5b60006114838483610c31565b9050806000036114a65760405163785eab3760e01b815260040160405180910390fd5b8060035410156114c95760405163785eab3760e01b815260040160405180910390fd5b60008481526008602090815260408083203384528252808320805460ff191660019081179091559183905282209081018054919284926115139084906001600160801b0316612d5d565b92506101000a8154816001600160801b0302191690836001600160801b0316021790555081600360008282546115499190612d4a565b909155505060405163a9059cbb60e01b8152336004820152602481018390526000907f00000000000000000000000000000000000000000000000000000000000000006001600160a01b03169063a9059cbb906044016020604051808303816000875af11580156115be573d6000803e3d6000fd5b505050506040513d601f19601f820116820180604052508101906115e29190612cc6565b905080611602576040516312171d8360e31b815260040160405180910390fd5b6040805160ff861681526020810185905290810187905233907f338d011a22421a3389379c72db1f2fc001c6e60c197df7ad91ca88bb05177f589060600160405180910390a2505050505050565b6005546001600160a01b0316331461167b57604051635fc483c560e01b815260040160405180910390fd5b60008181526006602052604090206003810154600160d01b900460ff166116b557604051630912829760e31b815260040160405180910390fd5b600381810154600160c01b900461ffff1610156116e55760405163f770074360e01b815260040160405180910390fd5b6003810154600160d81b900460ff161561171257604051630c8d9eab60e31b815260040160405180910390fd5b611720600762015180612d11565b600382015461173f9190600160801b90046001600160401b0316612cfe565b421161175e57604051632afb7d3b60e11b815260040160405180910390fd5b60038101805460ff60d81b1916600160d81b179055600082815260086020908152604080832084546001600160a01b0316845290915281205460ff166117b6576117a9836001610c31565b6117b39082612cfe565b90505b600083815260086020908152604080832060018601546001600160a01b0316845290915290205460ff166117fc576117ef836002610c31565b6117f99082612cfe565b90505b600083815260086020908152604080832060028601546001600160a01b0316845290915290205460ff1661184257611835836003610c31565b61183f9082612cfe565b90505b80156118b357806003600082825461185a9190612d4a565b9250508190555080600460008282546118739190612cfe565b909155505060408051848152602081018390527f052f0789d8217d58ae6c5a915aa0d2867b067f58e8137bc30d341428ad071e2891015b60405180910390a15b505050565b6040516370a0823160e01b81523060048201526000907f00000000000000000000000000000000000000000000000000000000000000006001600160a01b0316906370a0823190602401602060405180830381865afa15801561191f573d6000803e3d6000fd5b505050506040513d601f19601f820116820180604052508101906119439190612d7c565b905090565b6005546001600160a01b0316331461197357604051635fc483c560e01b815260040160405180910390fd5b7f00000000000000000000000000000000000000000000000000000000000000006001600160a01b0316826001600160a01b0316036119c5576040516366b83bad60e11b815260040160405180910390fd5b60055460405163a9059cbb60e01b81526001600160a01b039182166004820152602481018390529083169063a9059cbb906044016020604051808303816000875af1158015611a18573d6000803e3d6000fd5b505050506040513d601f19601f820116820180604052508101906118b39190612cc6565b806000805b82811015611c74576000858583818110611a5d57611a5d612d95565b905060200201359050600b5481108015611a915750600081815260086020908152604080832033845290915290205460ff16155b15611c6b5760008181526006602052604090206003810154600160d01b900460ff168015611ace5750600381810154600160c01b900461ffff1610155b15611c6957611ae1600762015180612d11565b6003820154611b009190600160801b90046001600160401b0316612cfe565b4211611c69578054600090336001600160a01b0390911603611b2457506001611b5c565b6001820154336001600160a01b0390911603611b4257506002611b5c565b6002820154336001600160a01b0390911603611b5c575060035b60ff811615611c67576000611b718483610c31565b9050600081118015611b8557508060035410155b15611c655760008481526008602090815260408083203384528252808320805460ff19166001908117909155918390528220908101805491928492611bd49084906001600160801b0316612d5d565b92506101000a8154816001600160801b0302191690836001600160801b031602179055508160036000828254611c0a9190612d4a565b90915550611c1a90508288612cfe565b6040805160ff861681526020810185905290810187905290975033907f338d011a22421a3389379c72db1f2fc001c6e60c197df7ad91ca88bb05177f589060600160405180910390a2505b505b505b505b50600101611a41565b508015611d315760405163a9059cbb60e01b8152336004820152602481018290526000907f00000000000000000000000000000000000000000000000000000000000000006001600160a01b03169063a9059cbb906044016020604051808303816000875af1158015611ceb573d6000803e3d6000fd5b505050506040513d601f19601f82011682018060405250810190611d0f9190612cc6565b905080611d2f576040516312171d8360e31b815260040160405180910390fd5b505b50505050565b6000806000600b548410611d5357506000915081905080611ecb565b60008481526008602090815260408083206001600160a01b038916845290915290205460ff1615611d8c57506000915081905080611ecb565b60008481526006602052604090206003810154600160d01b900460ff16611dbe57600080600093509350935050611ecb565b600381810154600160c01b900461ffff161015611de657600080600093509350935050611ecb565b611df4600762015180612d11565b6003820154611e139190600160801b90046001600160401b0316612cfe565b421115611e2b57600080600093509350935050611ecb565b80546001600160a01b03808816911603611e5a576001611e4c866001610c31565b600193509350935050611ecb565b60018101546001600160a01b03808816911603611e8c576001611e7e866002610c31565b600293509350935050611ecb565b60028101546001600160a01b03808816911603611ebe576001611eb0866003610c31565b600393509350935050611ecb565b6000806000935093509350505b9250925092565b611eda6129ba565b611ee26129ba565b611eea6129ba565b600084815260076020908152604080832060069092529091206003820154600160901b900460ff1615611f755781546001600160a01b03808216875260018401548082166020808a019190915260028601549283166040808b019190915263ffffffff600160a01b9586900481168a5292859004831691890191909152929091041690850152611f9c565b80546001600160a01b03908116865260018201548116602087015260028201541660408601525b6003810154600160d01b900460ff168015611fc65750600381810154600160c01b900461ffff1610155b15611ff957611fd6866001610c31565b8352611fe3866002610c31565b6020840152611ff3866003610c31565b60408401525b50509193909250565b6040516323b872dd60e01b815233600482015230602482015267016345785d8a0000604482015260009081906001600160a01b037f000000000000000000000000000000000000000000000000000000000000000016906323b872dd906064016020604051808303816000875af1158015612081573d6000803e3d6000fd5b505050506040513d601f19601f820116820180604052508101906120a59190612cc6565b9050806120c5576040516312171d8360e31b815260040160405180910390fd5b60028054600101905560006120dd6201518042612d28565b6040805160c0810182523381526001600160401b0342811660208084019182526000848601818152606086018281526080870183815260a08801848152600254855260018087528a862099518a549851955163ffffffff16600160e01b026001600160e01b0396909a16600160a01b026001600160e01b03199099166001600160a01b03919091161797909717939093169690961787555195909301805494519351151563010000000263ff00000019941515620100000262ffffff1990961661ffff97909716969096179490941792909216939093179091558381526007909152908120600381018054939450909267016345785d8a000092906121ec9084906001600160801b0316612d5d565b92506101000a8154816001600160801b0302191690836001600160801b0316021790555067016345785d8a00006003600082825461222a9190612cfe565b9091555050600254604080519182526020820184905233917f2ebc740a82c0c6454a29c8aa9db57c66257e2f17d38a783c83c83dd49f52e0fb910160405180910390a2600254935050505090565b6005546001600160a01b031633146122a357604051635fc483c560e01b815260040160405180910390fd5b600b5481106122c5576040516302caa05b60e41b815260040160405180910390fd5b818110156122e65760405163561ce9bb60e01b815260040160405180910390fd5b600a6122f28383612d4a565b1115612311576040516318c86b3960e11b815260040160405180910390fd5b815b8181116118b357600081815260076020526040902080546001600160e01b031990811682556001808301805483169055600283018054909216909155600390910180546001600160981b031916905501612313565b6123706129ba565b6123786129ba565b6123806129ba565b600b5460405163c3b07e2160e01b81526004810191909152309063c3b07e219060240161012060405180830381865afa1580156123c1573d6000803e3d6000fd5b505050506040513d601f19601f820116820180604052508101906123e59190612e3b565b925092509250909192565b60008181526007602052604090206003810154600160901b900460ff1661262f5760038181018054600160901b60ff60901b198216178255600085815260066020526040902080840180546001600160801b039093166001600160801b03198416811782558454600160d01b79ffff0000000000000000ffffffffffffffffffffffffffffffff19909516909117600160801b9182900461ffff908116600160c01b02919091176aff0000ffffffffffffffff60801b1916426001600160401b0316830217949094179091559254909392900416106125b157815481546001600160a01b039182166001600160a01b03199182161783556001808501549084018054918416918316919091179055600280850154908401805491909316911617905560038201546001600160801b031660006127106125316105dc84612d11565b61253b9190612d28565b61271061254a6109c485612d11565b6125549190612d28565b612710612563610bb886612d11565b61256d9190612d28565b6125779190612cfe565b6125819190612cfe565b9050600061258f8284612d4a565b905080600460008282546125a39190612cfe565b909155506125da9350505050565b6003820154600480546001600160801b03909216916000906125d4908490612cfe565b90915550505b6003820154604080518581526001600160801b0383166020820152600160801b90920461ffff16908201527fc7f3678d2f7a354fa81d27b85b8700a191613fe6d8cfd7a800b0567cb9996c4f906060016118aa565b5050565b6000601e600b5411612646576000612655565b601e600b546126559190612d4a565b905080600c5410156126f2576000600c5460056126729190612cfe565b821061268b57600c54612686906005612cfe565b61268d565b815b600c549091505b818110156126ea57600081815260076020526040902080546001600160e01b031990811682556001808301805483169055600283018054909216909155600390910180546001600160981b031916905501612694565b5050600c8190555b50565b6000848152600760209081526040808320600a83528184206001600160a01b03881685529092529091205460ff166127af576000858152600a602090815260408083206001600160a01b03881684529091528120805460ff19166001179055600382015461ffff600160801b9091041690036127865760038101805461ffff60801b1916600160801b1790556127af565b600381018054600161ffff600160801b808404821692909201160261ffff60801b199091161790555b604080516060810182526001600160a01b038616815263ffffffff808616602083018190528582169383019390935283549192600160a01b90920416101561289a576001820180546002840180546001600160a01b038084166001600160c01b031992831617600160a01b80860463ffffffff90811682029290921763ffffffff60c01b19908116600160c01b80890485168102919091179096558954808516978616979097178288048416830217811686880484168702179097558751602089015160408a01519190941696909416959095179181169094021790931692909116021782556129b2565b600182015463ffffffff600160a01b9091048116908516111561293e57600182018054600284018054600160c01b80840463ffffffff908116820263ffffffff60c01b19600160a01b808804841681026001600160c01b03199687166001600160a01b03808b169190911791909117831693909317909655885160208a015160408b01518516909502949093169095029390951694169390931717161790556129b2565b600282015463ffffffff600160a01b909104811690851611156129b2578051600283018054602084015160408501516001600160a01b039094166001600160c01b031990921691909117600160a01b63ffffffff928316021763ffffffff60c01b1916600160c01b91909316029190911790555b505050505050565b60405180606001604052806003906020820280368337509192915050565b6000602082840312156129ea57600080fd5b5035919050565b60008060408385031215612a0457600080fd5b82359150602083013560ff81168114612a1c57600080fd5b809150509250929050565b63ffffffff811681146126f257600080fd5b600080600060608486031215612a4e57600080fd5b833592506020840135612a6081612a27565b9150604084013561ffff81168114612a7757600080fd5b809150509250925092565b6001600160a01b03811681146126f257600080fd5b600060208284031215612aa957600080fd5b8135612ab481612a82565b9392505050565b60008060408385031215612ace57600080fd5b823591506020830135612a1c81612a82565b60008060408385031215612af357600080fd5b8235612afe81612a82565b946020939093013593505050565b60008060208385031215612b1f57600080fd5b82356001600160401b03811115612b3557600080fd5b8301601f81018513612b4657600080fd5b80356001600160401b03811115612b5c57600080fd5b8560208260051b8401011115612b7157600080fd5b6020919091019590945092505050565b8060005b6003811015611d31578151845260209384019390910190600101612b85565b6101208101818560005b6003811015612bd65781516001600160a01b0316835260209283019290910190600101612bae565b505050606082018460005b6003811015612c0657815163ffffffff16835260209283019290910190600101612be1565b505050612c1660c0830184612b81565b949350505050565b80516001600160a01b0316825260208082015163ffffffff9081169184019190915260409182015116910152565b6101808101612c5b8289612c1e565b612c686060830188612c1e565b612c7560c0830187612c1e565b6001600160801b03851661012083015261ffff8416610140830152821515610160830152979650505050505050565b60008060408385031215612cb757600080fd5b50508035926020909101359150565b600060208284031215612cd857600080fd5b81518015158114612ab457600080fd5b634e487b7160e01b600052601160045260246000fd5b80820180821115610cf357610cf3612ce8565b8082028115828204841417610cf357610cf3612ce8565b600082612d4557634e487b7160e01b600052601260045260246000fd5b500490565b81810381811115610cf357610cf3612ce8565b6001600160801b038181168382160190811115610cf357610cf3612ce8565b600060208284031215612d8e57600080fd5b5051919050565b634e487b7160e01b600052603260045260246000fd5b604051601f8201601f191681016001600160401b0381118282101715612de157634e487b7160e01b600052604160045260246000fd5b604052919050565b600082601f830112612dfa57600080fd5b612e046060612dab565b806060840185811115612e1657600080fd5b845b81811015612e30578051845260209384019301612e18565b509095945050505050565b60008060006101208486031215612e5157600080fd5b84601f850112612e6057600080fd5b6060612e6b81612dab565b8082870188811115612e7c57600080fd5b875b81811015612e9f578051612e9181612a82565b845260209384019301612e7e565b508196506000925088601f820112612eb5578283fd5b839150612ec182612dab565b9381019391508189851115612ed4578384fd5b84821015612ef9578151612ee781612a27565b83526020928301929190910190612ed4565b9550612f0e9350889250505060c08601612de9565b9050925092509256fea26469706673582212205b47a890e4df4da0be88d231ea8d7f1ba16c5c20f0daaf65b22d79d98c9da4cf64736f6c634300081c0033",
  "linkReferences": {},
  "deployedLinkReferences": {}
}